:100000000C94A5090C94EC090C94EC090C94EC09E3
:100010000C94EC090C94EC090C94EC090C94EC098C
:100020000C94EC090C94EC090C943A2E0C940A2FC5
:100030000C94B6280C94EC090C94EC090C94EC0983
:100040000C94EC090C94EC090C94EC090C94EC095C
:100050000C94EC090C9421290C94EC090C94EC09F7
:100060000C94EC090C94EC090C94EC090C94EC093C
:100070000C94EC090C94EC090C94EC090C94EC092C
:100080000C94EC090C94EC090C94EC090C94EC091C
:100090000C94EC090C94EC090C94EC090C94EC090C
:1000A0000C94EC090C94EC090C94EC0901048E9668
:1000B0006E773EFE7E5F1DB8F2664EFF5D19B0C2E0
:1000C0000469542AD62EBFDD19B0C3E529B1E02357
:1000D000A5A9B1C10082674C1A978D795120C70636
:1000E0008E7C7C7A764FFD5930E2460E9EBEDF1D37
:1000F0009991A0A5A1A9D022C6EF5C1B958990A2D9
:10010000A7CCFB5528B3E44AF76C3BF46A562EDEC5
:100110001F9DB8D3058892A6CE1EBEDF1D99B0E202
:1001200046EF5C07115D980B9D9497EE4E45336B3F
:1001300044C729562730C6A7D5F256DFB43862CB5C
:10014000A0B6E30F84062405656F7689B57741274D
:1001500082666582CCD5E620D52717C5F803237CB7
:100160005F64A51DC1D636CB4CD4DB66D78BB19965
:100170007E6F4C364006D6EBD7A2E4F495515A5424
:1001800096D55344D78CE0B94068D218E9DD9A235C
:100190009248EE7F43AFEA7738848C0A72AF69F8F1
:1001A000DDF12483A3F84ABFF59413DBBBD8B4B3C5
:1001B000A0FB4550603059123171A2D313E7FAE722
:1001C000CE0F63150B6B94BB378326059DFB4692C0
:1001D000FC0A15D10D7392D68C1B8CB8558ACEBDF6
:1001E000FE8EFCED0912839182513123FBB40C7613
:1001F000AD7CD9B44BB26714099C7F0C18BA3BD6BE
:100200008E142AE41B529F2B7DE1FB6A3302FAAC69
:100210005AF23E887EAED1F378E805D1E3DC21F6D0
:10022000E19ABD170ED9469B8803EAF666BE0E1BFF
:100230005049964097F1F1E480A66EE87734BF29E3
:100240004044C2FF4E98D39CA3322B76510409E759
:10025000A9D1A632B12353E247ABD6F5695C3E5F24
:10026000FAAE4520E5D244FF39326DFD27575CFDDB
:10027000F0DEC1B599E5F51C770175C56D5892F2B0
:10028000B247000126967A30FFB7F0EF77C18A5D5A
:10029000DCC0D129301E77387A94F1B87A7EEFA489
:1002A000D1AC314AF25D643DB2E2F00899FC70EEE7
:1002B00024A77EEE1E20697D44BF8742DF883B0C69
:1002C000DA42C904F94550FC838F116A72BC9995D2
:1002D000F0AC3DA73BCD1CE2887937115F39899599
:1002E0000A16847AF68AA428E4ED83803BB123A51C
:1002F0000310F466EABB0C0FC5EC6C69C5D324ABE4
:10030000D42AB799887608A0A8957CD8386DCD599D
:1003100002514BF1B52B50E3B6BDD072CF9EFD6EAE
:10032000BB44C8248A77188A1306EF977DFA81F0B8
:1003300031E6FA77ED3106315B548A9F3068DBE2B3
:1003400040F84E73FAAB748B105813DCD2E678D1B8
:10035000322E8A9F2C58064827C5A95E81478946B8
:1003600021910370A43E889CDA330ACEBC8B8ECFD9
:100370009FD3718043CF6BA95183763082C56A8544
:100380003911501A82DC1E1CD57DA9719933471989
:1003900097B35AB1DFEDA4F2E62684A2289A9EDF35
:1003A000A66AF4D6FC2E5B9D1A2A2768FBC183211E
:1003B0004B90E036DD5B314255A013F7D089537185
:1003C00099570929C5F321F8372F40F3D4AF160800
:1003D0003602FC77C58B049056B9C9679A99E80034
:1003E000D386FF972D08E9B7B391BCDF45C6ED0F63
:1003F0008C4C1EE65B6E3830E4AAE395DEB9E49AD5
:10040000F5B2559A879BF66AB2F2779A31F47A314F
:10041000D11D04C07C32A29E9AF562F8278DBF518F
:10042000FFD3DF64373F2A6F763A7D77069E777F6A
:100430005EEB3251F916669A09F3B008A47096463D
:1004400030FFDA4FE91BED8DF8741F3192B373174B
:1004500036DB9130D688556B3477877AE7EE06C65F
:100460001C8C190C4846235E9C075CBFB47ED64F9B
:10047000749CE2C5508BC58B159060625729D013D0
:1004800043A18088910044C74D1986CC2F2A755A04
:10049000FCEB972A70E378D891B04F9907A395EABF
:1004A0002421D5DE512093270A3073A8FF8A97E9CB
:1004B000A76A8E0DE8F0DFECEAB46C1D392A622DD4
:1004C0003D5A8B65F890052E7E912C78EF8E7AC17F
:1004D0002FAC78EEAF2845064C26AF3BA2DBA393AA
:1004E00006B53CA5D8EE8FAF25CC3F856848A962FC
:1004F000CC978F7F2AEAE0150AAD6207BD45F84127
:10050000D836CB4CDB6EE63AE7DA15E9291E121035
:10051000A0142C0E3DF4BF394192750B257BA3CE60
:10052000399C1564C8FA3DEF7327FE262ECEDA6E8D
:10053000FD718EDDFE76EEDC125C02C53A4E4E4F4A
:10054000BFCA4015C76E8D41F110E04F7E977F1CEA
:10055000AE478E6BB12531B073C71B9779F980D345
:1005600066223007741EE4D08021D6EE6B6C4FBF3C
:10057000F5B7D909872FA914BE27D9725001D41312
:1005800073A6A751027525E1B345347DA88EEBF320
:100590001649CB4F8CA1B9368539755D0800AEEB95
:1005A000F6EAD7133A215A5F3084522695C914F2DD
:1005B00057556BB110C2E1BD3B51C0B7554C7112DC
:1005C00026C70DF951A43802057FB8F1724BBF71EF
:1005D0008914F37738D97124F30011A1D8D469278D
:1005E000083735C9119D901C0EE71CFF2D1EE8929F
:1005F000E11810957CE080F4964321F97521643868
:10060000DD9F1E9516DA561D4F9A53B2E2E418CBC1
:100610006B1A65EB56C63BE5FED8263F3A84597205
:1006200066A2F375FFFB60B322AD3F2D6BF9EBEAD9
:10063000057CD88F6D2C989E2B93F15E46F08749F0
:10064000297368D77FF9F0E57DDB1D7519F3C45870
:100650009B1788A892E0BEBD8B1D8D9F5676ADAFCF
:1006600029E2D9D552F6B55635573AC8E15643195D
:1006700094D3049B6D35D80B5F4D198EECFA6491C1
:100680000A72202BBC1A4AFE8BFDBBED1B23EAAD80
:100690007282A1299971BDF095C103DD7BC2B23C84
:1006A0002854D368A472C86696E0D1D87FF8D126C2
:1006B0002BF7ADBA55CA15B932C3E588978E5CFBE6
:1006C00092258BBFA245557AA76F8B575BCF0ECB78
:1006D0001DFB208277A88CCC16CE1DFADECC0B62D7
:1006E000FECCE1B7F0C381647340A0C24D8911759F
:1006F0003355338DE84AFDEA6E300BD7312CDE4797
:10070000E3BFF85542E27F59E517EF99346991B19B
:10071000238E20872DA8FED58AF3843AF037E4098A
:100720000054EE674993E48170E3904DEFFE41B7CA
:10073000997BC183BA62126F7DDE6BAFDA16F95511
:1007400051EEA60C2B02A3FD8DFB3017E46FDF36B4
:1007500071C4CA872548B047ECEAB4BFA54D9B9F3A
:100760000293C4E3E4E8422D6881150AEB845BD66A
:10077000A874FB7D1DCB2CDA462A7662CEBC5C9E2B
:100780008BE7CFBE78F57CEBB33A9CAA6FCC72D1E5
:1007900059F21123D63F48D1B7CEB0BFCBEA80DEA5
:1007A00057D45E972F75D1508E802C6679BF724BCF
:1007B000BD8A816CD3E101DCD21526C536DA2C1A4C
:1007C000C02794EDB79B850B5E8097C5EC4FEC88F6
:1007D0005D50073547DC0B3B3DDD60AFA85D8138E0
:1007E00024255D5C15D1DEB3ABEC0569EF83ED57D5
:1007F00054B8646411163269DA9F2D7F36BB445AAF
:1008000034E87FBF03EB007F59682279CF736C2CEB
:1008100029A7A15F38A11DF02053E01A6314587175
:1008200010AA080C3E161A6022827FBAA443A0D0F8
:10083000AC1BD56B64B51493319E5350D05766EE04
:100840005A4FFB032A695876F183F74EBA8C420659
:10085000605D6DCE6088AEA4C3F103A54B98A1FF87
:1008600067E1ACA2B862D76FA031B4D277AF2110E4
:1008700006C69AFF1D09170E5FF1AA54344B458A2C
:100880008763A6DCF9243067C6B2D6613369EE50BF
:10089000615728E77EEEEC3A5A734EA88DE418EAC9
:1008A000EC4164C8E2E866B62DB6FB6A6C16B3DDAF
:1008B0004643B973006A71ED4E9D251AC33C4A95B3
:1008C000159935811402D6989BECD8233B8429AF27
:1008D0000C9983A69A344FFAE8D03C4BD0FBB6680B
:1008E000B89E8FCDF7602D7A22E57DAB651B95A76D
:1008F000A87FB677477B5F8B1272D0D491EFDE1959
:10090000503CA78BC4A9B323CB76E681F0C1048FFA
:10091000A3B8545B97AC19FF3F55272FE01D429BAE
:1009200057FC4B4E0FCE98A9435703BDE7C894DF41
:100930006E367332B4EF2E857A6EFC6C1882753584
:100940009007F3E49F3EDC68F3B5F31980920699B3
:10095000A2E86FFF2E7FAE42A45FFBD40E812BC3B3
:1009600004FF2BB3744E365B9C1500C6472BE88BF7
:100970003DF19C039A587F9B9CBF854979352E5643
:100980007B411439478326AA078998111B86E77390
:100990007AD87D786153E979F5368D449284F913DC
:1009A00050583BA46A3665498E3C0EF16FD284C420
:1009B0007E8E3F39AE7C84F163378E3CCC3E4481E1
:1009C00045F14BB9ED6B365DBB20601A0FA3AA55FC
:1009D000773AA9AE374DBAB8866BBC0850F6CCA4AE
:1009E000BD1D4072A586FAE210AE3D584B97F34309
:1009F00074A99EEB21B701A4869397EE2F4F3B86F7
:100A0000A1416F412690785C7F30384B3FAAECEDD6
:100A10005C6F0EAD4387FD9335E601EF412690995B
:100A20009EFB195BADD2918AE046AF65FA4F84C157
:100A3000A12DCF458BD38550557CF96788D44EE9DD
:100A4000D76B6154A1A4A6A2C2BF309C409F5FD7C0
:100A5000692B24825ED9D6A712541AF7559F765077
:100A6000A99584E66B6DB59654D6CDB3A19B46A7E8
:100A7000944DC494B498E3E1E234D533160754CDD1
:100A8000B77753DB4F4D469DE9D49C8A36B6B838CC
:100A9000266C0EFF9C1B438B80CCB93DDAC7F18AD4
:100AA000F26DB8D7742F7E1EB7D34AB4ACFC794828
:100AB0006CBC96B69446572DB0A3FC1EB952608507
:100AC0002D41D043011E1CD57DFCF3960DC7CB2ACA
:100AD000299A93DD882D375DAAFB4968A09C508632
:100AE0007F685657F9791839D4E001843361CAA573
:100AF000D2D6E4C98A4A23444EBCF0DC24A1A0C467
:100B0000E2073C10C4B5254B6563F480E7CF61B1C3
:100B1000718221872CF59100320CECA9B59A74856D
:100B2000E3368F764F9C6DCEBCAD0A4BED7604CB91
:100B3000C3B9339E019396697DC5A245799B045C38
:100B40008409ED8843C7AB931426A140B5CE4EBFB0
:100B50002A42853E2C3B54E8121F0E9759B2278932
:100B6000FAF2DF8E6859DC06BCB6850D0622ECB1C0
:100B7000CBE504E63DB3B04173083F3C588663EBD8
:100B800050EE1D2C3774A9D318A3476E9354AD0AA9
:100B90005DB82A555D78F6EEBE8E3C7669B940C2E6
:100BA00034EC2AB9ED7E20E48D0038C7E68F44A8E6
:100BB00086CEEB2AE990F14CDF32FB731B6D921E5F
:100BC00095FEB4DB65DF4D23548948BF4A2E70D6AD
:100BD000D762B43329B13A334C236DA676A521638D
:100BE00048E6905DED90950B7A84BEB80D5E630C7F
:100BF00062264C145AB3AC23A474A76F333005603B
:100C00000142A028B7EE1938F164808243E1412700
:100C10001F1F90547AD5232ED13DCB28BA587FDCA4
:100C20007C9124E92851836EC5562142EDA05622BD
:100C3000A140806BA8F794CA136B0C39D9FDE9F376
:100C40006FA69EFC708AB3BC593C1E1D6CF97CAF2C
:100C5000F9887195EB5700BD9F8C4FE12483C52225
:100C6000EAFDD30CE217187C6A4CDE77B4539B4C38
:100C700081CD2360AA0E25739C02793230DF74DFA8
:100C80007519F4A5145CF77AA8A591847C60030615
:100C90003BCD50B6279CFEB1DDCCD3B05924B2CAAF
:100CA000E21C81229D078F8EB9BE4EFAFC3965BACF
:100CB000BF9D12375E977EF389F55DF5E3098C627F
:100CC000B5209D0C538A681BD28F75175DD4E5DA69
:100CD000756219146A262DEBF8AF37F06CA455B184
:100CE000BCE233C09ACAB011494F689B3B6B3CCC05
:100CF00013F6C785616842AEBBDDCD4516291DEAF6
:100D0000DBC803943CEE4F8211C3EC28BD970599D4
:100D1000DED7BB5E221FD4EB64D992D985B76A05B2
:100D20006AE42441F1CDF0D83FF89E0ECD0B7A70E5
:100D30006B5A750A6A3388EC17750870102F24CF28
:100D4000C4E942006194CA1F3A7606FAD24881F09B
:100D500077600345D961F4A46F3DD930C3046B5467
:100D60002AB7EC3BF44BF5685226CEFF5D1991A0F3
:100D7000A3A5A9B1E023C40A774DF95120A3A5A9E1
:100D8000B1C10082868E7F5D1991A0A3C4EB540B84
:100D9000756852078C9A978D79706246EF5C1B9547
:100DA000897141E121A1A1A1C002674C1AB6CFFD12
:100DB000785324ABB5C9F16023A5C812876D5813C9
:100DC000858892876D5832C70C9A97ACDA36EE5EFA
:100DD0003EDF1DB8F2662FBDF87247ED58138588C7
:100DE00092878C7B550990A2C6EF3DF85324ABD473
:100DF0002AB7EC5A36EE5E3EDF3CFA764FFD5930AC
:100E0000E246EF3DF853056931C10082868E7F5D71
:100E100019B0E227CCFB744B148B948B756833C5E7
:100E20000892878C9AB6CF1CBAD70D98B2E62FDC01
:100E30001B9589716023C40A968F9CBAF66E3FFC9D
:100E40005B15A8D226AFBDF872662FDC1BB4CB149D
:100E50008B94AAB7CDF951018082866F3DD930E2DB
:100E600027CCFB744B14AAB7CDF97043046B35C97A
:100E7000F16023A5C8F3450892876D5832E62FBD6F
:100E8000F872664E1EBEFE7E7E7E5F1D9991A0A307
:100E9000C40A774D1893A4ABD40B754910A2C6EFC2
:100EA0003DF85324ABB5E833E44A16AEDE1FBCDB95
:100EB00015A8B3C5087345E931C1E121A1A1A1C0BD
:100EC00002866F5C3AD70D9893A4CA16AEDE1F9DBA
:100ED00099B0E246EF3DF872470C9AB6CFFD591132
:100EE000A0A3A5C8F3450892876D39F043048A96FC
:100EF000AEDE3EDF1D9991A0C2066F3DF872470C31
:100F00009A978D989385887345E931E023A5A9D0F8
:100F100003848A96AEDE1FBCDB15A8D226CEFF5D09
:100F20001991818082672DD813A4ABD40B94AAB7F2
:100F3000CDF95120A3A5C8F345E95022C6EF5C3A8C
:100F4000D70D9893858873644AF74DF95120A3C44F
:100F50000A96AEDE3EFE7E7E7E5F3CFA764FFD78E0
:100F600072662FBDD930C3E54812878C7B5528D2D5
:100F7000078C9A97ACDA178D795120A3C4EB540BE8
:100F8000948B94AAD62EBFFC5B15A8D226AFDC1B8F
:100F9000B4EA37EC3BF46A37CD1893856931C1E187
:100FA00040E325C812878C9AB6CFFD5911A0C2061E
:100FB0008E7F5D38F2470C7B746A37EC5A36EE3F11
:100FC000FC7A764F1C9B95897141006344EB542A4F
:100FD000D60F9CBAD70D9893856931C10082868E51
:100FE0009EBEDF3CFA572CDA36EE3FFC5B1589716A
:100FF000410082868E7F5D38F247ED5813A4CAF710
:101000004DF95101806344EB542AD62EBFDD19916E
:10101000A0A3A5A9B1E042068E7F5D1991A0A3C44B
:101020000A968F7D7872470C7B746A562EDE1FBC41
:10103000FA570D7951016121A1C0E325A9B1C1E1A0
:101040004002674C1A978D9893A4ABD42AD60F9C74
:101050009BB4CB14AAB7CDF95120A3C4EB35C9F189
:101060006042068E7F7C7A766E3FFC7A766E5E3EBC
:10107000FE7E5F3CDB15897141E121C0E344EB5406
:101080002AB7CDF9706227ADD832C70C7B744B14E8
:10109000AAB7EC3BD528D2076D39D120C2E74C1A4C
:1010A000978D98B2C70C5928F39BF400F600F50011
:1010B000F700F80019010601805F0100010001003E
:1010C0000100010001000100010001000100010018
:1010D0000100010001000100010001000100010008
:1010E00001000100010001000100010001000100F8
:1010F00001000100010001000100010001000100E8
:1011000001000100010001000100010001000100D7
:1011100001000100010001000100010001000100C7
:1011200001000100010001000100000000000000BA
:1011300000002A2B28000000000000000000000032
:10114000000000000029000000002C1E3420212295
:1011500024342627252E362D3738271E1F202122FE
:10116000232425263333362E37381F040506070877
:10117000090A0B0C0D0E0F10111213141516171867
:10118000191A1B1C1D2F3130232D350405060708A5
:10119000090A0B0C0D0E0F10111213141516171847
:1011A000191A1B1C1D2F3130354C000000000000A7
:1011B000000000000000000000000000000000002F
:1011C00000000000000000000000000000007E0F92
:1011D00000D4FFFFFFC7000000780C034D006F0034
:1011E0007500730065000000120350006C006F0072
:1011F0006F007000790043006F00000004030904D1
:1012000009025B00030100A0320904000001030190
:101210000100092111010001224000070581030896
:10122000000109040100020300000009211101006E
:101230000122220007058203200001070503032085
:10124000000109040200010300000009211101004E
:1012500001227B0007058403200001120100020027
:1012600000000843506F4D0100010200010660FFBD
:101270000961A1010962150026FF0095207508810A
:10128000020963150026FF00952075089102C0052C
:10129000010902A10185020901A10005091901291D
:1012A000081500250195087501810205010930091D
:1012B000311581257F95027508810609381581252C
:1012C0007F950175088106050C0A38021581257F76
:1012D000950175088106C0C005010980A10185033B
:1012E00019012AB700150126B70095017510810074
:1012F000C0050C0901A101850419012AA0021501EC
:1013000026A002950175108100C005010906A10102
:10131000050719E029E715002501950875018102E7
:101320009501750881010507190029FF150026FFA1
:1013300000950675088100050819012905950575B0
:10134000019102950175039101C011241FBECFEFD9
:10135000DAE0DEBFCDBF04B603FE27C08091630391
:1013600090916403A0916503B09166038730904B20
:10137000A740B04BD1F41092630310926403109213
:1013800065031092660314BE84B7877F84BF0FB6CF
:10139000F894A89580916000886180936000109215
:1013A00060000FBEE0E0F8E3099511E0A0E0B1E0D5
:1013B000E4E5F5E602C005900D92AC39B107D9F726
:1013C00023E0ACE9B1E001C01D92A336B207E1F71A
:1013D0000E94831E0C9463320C94000030E020E0E5
:1013E00043E060E080E30E94E32692E09A95F1F703
:1013F00000C0089582E08A95F1F700C00C948F2711
:10140000CF93DF93C82FD62F803511F010929E0115
:101410000E94EE098C2F80680E945F278D2F0E940A
:101420005F27D82FC92F85E38A95F1F7000087EC55
:1014300090E00197F1F700C000000E948F278D2FE8
:101440009C2FDF91CF910895CF93C82F0E94EE0972
:101450008C2F8F770E945F270E947727C82F82E00A
:101460008A95F1F700C082E38A95F1F700C00E94E7
:101470008F278C2FCF910895CF93DF93D82FC92F2B
:101480000E94EE098D2F9C2F64E670E00E94E631E9
:10149000615071096837710510F067E770E08FE0FF
:1014A0000E94000ADF91CF910C948F27CF93DF9396
:1014B0006DE183E10E94000A8FE19EE40197F1F75C
:1014C00000C0000068E183E10E94000A0E94EE096A
:1014D00082EE0E945F2798E29A95F1F7CCEAD0E07D
:1014E00080E1CA3AD807C1F4EFE8F1E03197F1F7AB
:1014F00000C000008AE20E94240A60E080E10E94AD
:10150000000A0E948F278FE19EE40197F1F700C047
:101510000000DF91CF910895FE0184910E945F2722
:10152000F8E2FA95F1F72196DBCFCF93DF9380E0D5
:101530000E94240AD82F8FE30E94240AC82F8AE22F
:101540000E94240A982FD23429F4CD3B19F481E06B
:10155000943009F080E08170DF91CF910895209A56
:101560000E94DB2610929E010E948F270E94EE09A6
:101570000E948F2766EB8BE30E94000A2FEF82E523
:1015800097E0215080409040E1F700C000000E94A9
:10159000EE092AE62A95F1F700C00E94FA098AE6C8
:1015A0008A95F1F700C06AE58AE30E94000A9FE786
:1015B00028E381E0915020408040E1F700C0000026
:1015C00082E00E94240A83E00E94240A84E00E94B0
:1015D000240A85E00E94240A86E00E94240A0E94D0
:1015E000560A0E94FA098FE19EE40197F1F700C0C4
:1015F000000080E496E00E943C0A8FEC97E001979F
:10160000F1F700C0000060E080E10E94000A60E0A5
:1016100081E10E94000A0E94950A289808959F92ED
:10162000AF92BF92CF92DF92EF92FF920F931F93F0
:10163000CF93DF93EC0180919E01811107C060E0A0
:1016400080E50E94000A81E080939E010E94EE09DD
:1016500080E50E945F278DE58A95F1F700000E94E2
:101660007727F82E80E00E945F270E9477276C0181
:101670000E947727B82E0E9477278C010E94772737
:10168000E82E0E948F279F2C991C9924991CAA242C
:10169000A394F3FCA12CDB28D194C194D1081E297A
:1016A0001195019511090E948F278F2D877011F0D8
:1016B00010929E01F8829982AA82DC82CB82BD823E
:1016C0001F830E83E886CE01DF91CF911F910F918A
:1016D000FF90EF90DF90CF90BF90AF909F900895D4
:1016E0001092FB02109273021092B7028FEF93E0F8
:1016F0009093B9028093B8021092FE021092FD02FC
:101700001092BA02109242031092490310924803B9
:101710001092460310924503109274021092B60282
:101720009093440380934303109234021092330247
:101730001092FF021092750210920303109202039E
:101740001092BC021092BB021092FC02109247034E
:101750001092010310920003109277021092760209
:101760000895FC01DB01808191818E31910524F483
:1017700001969183808308951182108281E08C9379
:1017800008952F923F924F925F926F927F928F9225
:101790009F92AF92BF92CF92DF92EF92FF920F9300
:1017A0001F93CF93DF9300D000D0CDB7DEB7FC01FD
:1017B0003B012A01190109831A8387017601AB8253
:1017C000BC8254018B8C9C8CDB018D919C91119778
:1017D000E817F90714F4ED93FC93D2018D919C91D5
:1017E00011978E179F0714F4ED93FC93D201CD90BF
:1017F000DC90D3012D913C91C601821B930B8A3062
:101800009105B4F163E070E00E94FA31620F731F3A
:10181000E617F7070CF080C0E981FA818081882300
:1018200009F476C0D501ED91FC91EE0FFF1FEE0D8E
:10183000FF1DD182C082B401C5010E94B10BF3012A
:1018400020813181D2018D919C91821B930B97FD58
:10185000019695958795820F931FF301918380835D
:10186000D2018D939C93F1011082A981BA811C92BF
:10187000D4018C91882309F46AC0F7019701225C96
:101880003F4F90E080E041915191840F951F2E17BA
:101890003F07C9F76FE170E00E94FA319B01E98DC3
:1018A000FA8D8081882309F46CC0F801A801425C9C
:1018B0005F4F90E080E061917191860F971F4E1706
:1018C0005F07C9F76FE170E00E94FA31FB01C901BF
:1018D0008E1B9F0B63E070E00E94FA31CB018E0FEC
:1018E0009F1F0F900F900F900F90DF91CF911F913E
:1018F0000F91FF90EF90DF90CF90BF90AF909F90AF
:101900008F907F906F905F904F903F902F900895B1
:1019100081E0F1018083ACCF6E177F070CF0A8CF78
:10192000D1018C91882379F0AB81BC81ED91FC9140
:101930001197EE0FFF1FE00FF11F31832083698D98
:101940007A8DCD017ACF81E0E981FA81E3CFF5018B
:10195000608171816115710581F0F70130E020E04F
:1019600090E080E0261737070CF096CF4191519117
:10197000840F951F2F5F3F4FF5CFD2012D913C91E2
:101980008ECFAB81BC816D917C916115710581F029
:10199000F80150E040E090E080E0461757070CF077
:1019A00093CFA191B1918A0F9B1F4F5F5F4FF5CFEE
:1019B000D301ED91FC918BCF8F929F92AF92BF920A
:1019C000CF92DF92EF92FF920F931F9326EB32E0BC
:1019D0003F932F9324E732E03F932F9325E4822E09
:1019E00023E0922E38E4A32E33E0B32E4DEBC42E29
:1019F00042E0D42E54E0E52E53E0F52E02E413E04D
:101A00002AEB32E04DEF52E068EB72E00E94C10B2E
:101A100090930103809300030F900F900F900F900D
:101A20001F910F91FF90EF90DF90CF90BF90AF90FC
:101A30009F908F9008958F929F92AF92BF92CF9276
:101A4000DF92EF92FF920F931F9327E433E03F93CF
:101A50002F932CEF32E03F932F932BEB822E22E03B
:101A6000922E32E0A32E33E0B32E48E7C42E42E09C
:101A7000D42E55E3E52E52E0F52E05E712E02FEFC8
:101A800032E043E352E063E473E00E94C10B9093C1
:101A90007702809376020F900F900F900F901F9116
:101AA0000F91FF90EF90DF90CF90BF90AF909F90FD
:101AB0008F9008950F931F93CF93DF938C01EB01C9
:101AC00080917402882321F08091B602811103C0B5
:101AD000C8010E94DC0C8091FC02882321F08091D7
:101AE0004703811103C0CE010E941B0D40910003EA
:101AF0005091010380917602909177022091FB0230
:101B0000211128C004171507B4F4C817D9071CF40D
:101B100090E080E00BC083E08093FB028091B702ED
:101B20008823B1F31092B70281E090E0DF91CF916A
:101B30001F910F910895C817D90754F781E080933A
:101B4000FB0280917302882319F3109273028FEFC6
:101B50009FEFECCF2130A1F40417150754F0C817FC
:101B6000D907B4F21092FB022093B70210927302CD
:101B7000CFCFC817D90764F682E08093FB02F4CF79
:101B8000223009F5041715077CF0C817D9070CF0A7
:101B9000BFCF81E08093FB0280917302882309F418
:101BA000B7CF10927302C0CFC817D9070CF4B0CFCB
:101BB00083E08093FB028091B702882309F4A8CFC9
:101BC0001092B702C4CF0417150764F0C817D907DD
:101BD0000CF49ECF1092FB0281E08093730210926E
:101BE000B70296CFC817D9070CF092CF82E0809346
:101BF000FB02F2CFFC016583448308950F931F938A
:101C0000CF93DF93EC018091A0019091A1010E94FC
:101C100012298436910580F18091A2019091A3014F
:101C20000E941229059740F18091A601811124C0DC
:101C30000E94E6289093A3018093A20180E00E9475
:101C4000B9268C0184E00E94B926BC01C8010E941B
:101C50005A0DAC01892B81F08C81480F511D87FDF5
:101C60005A956D81062E000C770BCE01DF91CF9136
:101C70001F910F910C94FA0DDF91CF911F910F914D
:101C80000895FC01628343830895CF92DF92EF921F
:101C9000FF920F931F93CF93DF93CDB7DEB72997B2
:101CA0000FB6F894DEBF0FBECDBF8C01CE010196FA
:101CB0000E940F0B8B818823E1F18A818823C9F16F
:101CC000EC80FD80CF80D8848091A4019091A50103
:101CD000892B31F40E94E6289093A5018093A401FA
:101CE000A6014038510514F04FE750E041388FEF1E
:101CF000580714F441E85FEFB7016038710514F03C
:101D00006FE770E061388FEF780714F461E87FEFD8
:101D1000C80129960FB6F894DEBF0FBECDBFDF9184
:101D2000CF911F910F91FF90EF90DF90CF900C9487
:101D3000410E29960FB6F894DEBF0FBECDBFDF91DE
:101D4000CF911F910F91FF90EF90DF90CF9008956A
:101D5000EF92FF921F93CF93DF9300D000D00F92AA
:101D6000CDB7DEB77C0169837A83A981BA818C9172
:101D7000813079F411968C9181110BC00E94E62874
:101D80009093A1018093A001E981FA8182818093DF
:101D9000A60169817A81C7010E941710182F882334
:101DA00091F1F0E8EF16FFE5FF06C9F5A981BA81C8
:101DB0001296BC91BD83BB2331F180914A0390E020
:101DC000019663E070E00E94E63180934A0320911F
:101DD0004A0330914B0340914C0350914D032983AA
:101DE0003A834B835C83CA01B9010E947E1AE09159
:101DF0004A03F0E0EE0FFF1FE050FF4F808191811A
:101E00000E943C0A1D81812F0F900F900F900F9020
:101E10000F90DF91CF911F91FF90EF90089531E8DF
:101E2000E3163FE5F30679F7A981BA8112968C9102
:101E3000882331F080919F0191E0892780939F0151
:101E4000E0914A03F0E0EE0FFF1FE050FF4F80816A
:101E5000918120919F01222321F19C0150E040E0DB
:101E600029833A834B835C83CA01B9010E94EB301A
:101E700020E030E040E45FE369837A838B839C83D6
:101E800069817A818B819C810E94513169837A8337
:101E90008B839C8369817A818B819C810E94BC3079
:101EA000CB010E943C0AAFCF0F931F93CF93DF93D8
:101EB00000D000D000D0CDB7DEB780988898849845
:101EC0008C9886E0E1E2F1E0DE01119601900D923E
:101ED0008A95E1F7FE013196AE01495F5F4F61E0FF
:101EE00070E08191A82FA295AF70B0E091962C91EF
:101EF00091978F708B0102C0000F111F8A95E2F736
:101F0000C801922F982B91969C93919792969C91B1
:101F100092978095892392968C934E175F0709F7C5
:101F200026960FB6F894DEBF0FBECDBFDF91CF91DE
:101F30001F910F910C940E1B0E94AF0A0C94700B12
:101F4000CF93DF9300D000D000D0CDB7DEB70E9492
:101F5000942129833A834B835C836D837E83CE01F6
:101F600001960E94FE0DCE0101960E94450E8091C1
:101F70009F01882349F08B819C8198278927982786
:101F80009E838D831B821C8249815A816B817C8157
:101F90008D819E810E94B5210E945A2126960FB6FE
:101FA000F894DEBF0FBECDBFDF91CF910895CF93E0
:101FB000DF9300D000D0CDB7DEB781E080934A0335
:101FC00080914A0390914B03A0914C03B0914D0333
:101FD00089839A83AB83BC83BC01CD010E947E1AA6
:101FE0000F900F900F900F90DF91CF910C948A1A61
:101FF0000E947A1A60934A0370934B0380934C03B8
:1020000090934D03643010F00E94D70F0C94B11DD3
:10201000E0914A03F0E0EE0FFF1FE050FF4F808198
:1020200091810E943C0A0C94101B81E0089581E08C
:10203000089508950C9419101F93CF93DF9300D047
:1020400000D00F92CDB7DEB749835A836B833091AE
:10205000A70189819A8131111DC06623B9F022231D
:10206000A9F00E944116182F682F89819A810E9439
:10207000EB1569817A81812F0F900F900F900F904F
:102080000F90DF91CF911F910C9427240E94181676
:10209000182FEFCF0E94411669817A81EDCFFC01A4
:1020A000262F408151816281738184810C941C10A0
:1020B00081E00895CF93DF93D82FC92F60E00E946D
:1020C0004F106D2F7C2FDF91CF910C941A10E1E00F
:1020D000F0E0DF0102C0AA0FBB1F6A95E2F7BD0165
:1020E000DF0102C0AA0FBB1F4A95E2F76A2B01C0AD
:1020F000EE0F2A95EAF7962F9823961302C08E2B9F
:102100000895E0958E230895242F462F682F8091FF
:10211000AB010E9467100C94A8150E94971D0E94A5
:10212000D5110C94F80F0C94B31D08950E94361528
:102130000E9495102FE78AE196E021508040904060
:10214000E1F700C000000C9445290F931F93CF9333
:10215000DF938C0161E00E944F10EC01B8010E94F6
:1021600039228823D9F1B801CE010E94A80E882314
:10217000A9F1B801CE010E946725882379F1B80141
:10218000CE010E94BC25882349F1B801CE010E94EE
:102190008F26882319F1F8018281882361F0CA35DE
:1021A000FDE5DF0721F170F4C115ECE5DE07A1F0D4
:1021B000CE3DDC45C9F0C801DF91CF911F910F9151
:1021C0000C941510CB358DE5D807A1F0CC35DD4545
:1021D00091F70E948519EFCF0E94961080E0DF9161
:1021E000CF911F910F9108950E94ED1AF7CF0E9491
:1021F0008E19E1CF0E949119DECFDF92EF92FF920C
:102200000F931F93CF93DF93E82FF0E0E65DFE4E30
:10221000D490282F26952695269530E0F901E6538F
:10222000FE4E0491877010E0082E02C015950795A8
:102230000A94E2F701701127F901E654FE4EE4908A
:10224000F12C082E02C0F594E7940A94E2F791E08D
:10225000E922FF24F901E655FE4EC491D0E002C008
:10226000D595C7958A95E2F7C170DD27011511054F
:1022700019F081EE0E944A12E114F10419F086EE81
:102280000E944A128D2D0E94DD12EF2819F086EE71
:102290000E949712012B19F081EE0E949712CD2B0C
:1022A00051F08CE2DF91CF911F910F91FF90EF9051
:1022B000DF900C94DD12DF91CF911F910F91FF9071
:1022C000EF90DF900895EF92FF920F931F93CF93BB
:1022D000DF93EC01162F0AE08881882309F454C0AB
:1022E000813009F04EC08981813099F47E0122E06D
:1022F000E20EF11C8A810E94DD12E7012196812FF6
:10230000815050F3EFECF7E03197F1F700C0000097
:10231000F7CF823041F47E0182E0E80EF11C8A8121
:102320000E944A12EACF833041F47E01E2E0EE0ED1
:10233000F11C8A810E949712E0CF843011F021961F
:10234000DDCF2A81229690E080E0AE014F5F5F4FA3
:102350002053330B2A30310548F0019778F2EFEC27
:10236000F7E03197F1F700C00000F7CF089FB00108
:10237000099F700D1124C901860F971F2981EA0159
:10238000E4CF0E94FD10BACFDF91CF911F910F9142
:10239000FF90EF90089560E00C94631108950C9401
:1023A000CE1181E008950C94D1110895CF93C82FD8
:1023B0000E94CF118C2FCF910C94D311CF93DF9328
:1023C000CDB7DEB72B970FB6F894DEBF0FBECDBFEB
:1023D0004F83588769877A878B8761110E94B61966
:1023E0001E8285E0FE013796DE01119601900D9266
:1023F0008A95E1F78C819D81892B89F449815A81E5
:102400006B817C818D819E810E94AE182B960FB6C8
:10241000F894DEBF0FBECDBFDF91CF9108958981C3
:102420009A8189238F3F51F3CE0101960E94581063
:102430008111E4CFEBCFFC01808191810C946E1669
:102440000F931F93CF93DF9300D000D000D0CDB770
:10245000DEB7082F162F0E94942129834B835C83BB
:102460006D837E83002399F0312B4981532F6B813B
:102470007C818D819E8126960FB6F894DEBF0FBEBB
:10248000CDBFDF91CF911F910F910C94B521109585
:102490003123EBCFCF93C82F882309F446C08CEFAC
:1024A0008C0F813AA0F46C2F809106019091070166
:1024B0000E942228882329F08C2F0E9455190E94FF
:1024C000D9198C2F0E944E19CF910C94D91980E202
:1024D0008C0F883048F4C77081E001C0880FCA951E
:1024E000EAF70E949719F0CF8BE58C0F833038F410
:1024F0002C2F2452330BC901CF910C94E427E8E52B
:10250000EC0FE73150F4F0E0EE0FFF1FE85DFE4FF7
:1025100080819181CF910C94FA27C03F30F08C2FAD
:102520000E94111FCF910C94E41FCF91089588232E
:1025300061F19CEF980F913A20F40E9455190C9488
:10254000D91990E2980F983050F4877091E001C04B
:10255000990F8A95EAF7892F0E949D19F0CF9BE584
:10256000980F933020F490E080E00C94E42798E5F5
:10257000980F973120F490E080E00C94FA27803F88
:1025800020F00E946B1F0C94E41F08951F93CF93BB
:10259000DF93182FEB010E944A12209731F4812F0C
:1025A000DF91CF911F910C9497128FEC97E00197D8
:1025B000F1F700C000002197F0CF70E060E08933B0
:1025C00011F460E570E00C94C612882321F00E949B
:1025D00097190C94D9190895882321F00E949D1908
:1025E0000C94D9190895AF92BF92CF92DF92EF92D7
:1025F000FF920F931F93CF93DF936C01D62FC72FBA
:10260000FC011281058102950F700E946C19E82E61
:102610008823A1F0E12E112389F08C2F807F803454
:1026200029F080E28D0FE12C883040F082E00E949A
:102630002A1A0E946C1991E0E82EE9268C2F8295C7
:102640008F70A82EB12C8C3090F5F501EB59FD4C14
:102650000C940E320C2F0F70C07F11F00295007F8A
:102660001123A9F0002359F080E28D0F883010F07B
:10267000D11109C0802F0E9497190E94D9198D2F5E
:102680000E944A1214C0802F0E94A819F6CF8D2FE5
:102690000E949712002359F080E28D0F883010F0CD
:1026A000D1112EC0802F0E949D190E94D91988E057
:1026B000A81AB10894E0A916B10420F40E94BE271C
:1026C0000E94D611EE2009F471C10E94681980FDA4
:1026D0006DC1F60112820E9462190E94B915C601ED
:1026E0000E94F8140E946219DF91CF911F910F91FF
:1026F000FF90EF90DF90CF90BF90AF900C94C415F7
:10270000802F0E94AE19D1CFFC2FFF70FF2EC07F0B
:10271000C03219F0F29480EFF822DD2369F0D13055
:1027200049F1112391F1002351F1F601858180FFD8
:10273000A6CF8F70858323C0112381F0011106C0BD
:102740000E94BC198F290E94E512B1CF0130C1F758
:102750000E94BC198F290E94C219A9CF011106C07D
:102760000E94CF198F2D0E94EC12A1CF013009F4E5
:102770009ECFF6CF112329F0063008F098CF8F2D89
:10278000E2CF053008F093CFEDCF002359F3D933D2
:1027900049F4FFEF23EF31E0F15020403040E1F702
:1027A00000C000008D2F0E94971281CF8C2F86953C
:1027B0008695837069F0813009F079CF8D2F9C2F39
:1027C0009370111102C090E080E00E94FA276FCF51
:1027D0008D2F9C2F9370111102C090E080E00E9419
:1027E000E42765CF8D2F112391F00E94111FED2F4B
:1027F000E45FFF0BE530F10568F461E070E001C0D3
:10280000660FEA95EAF7812F0E94201250CF0E94AE
:102810006B1FEDCF0E94E41F4ACF8C2F837081F590
:10282000111145CF4D2F429546954770440F440FE7
:102830008D2F8F70042E01C0880F0A94EAF72D2F78
:102840002071D4FF07C02FE030E001C0220F4A956D
:10285000EAF72095C695C695C370822BC23051F019
:10286000C33059F0C13019F00E949A1520CF0E9450
:1028700095151DCF0E949F151ACF0E94931517CF53
:102880008695112311F08C2F8170882309F40FCFC6
:102890004D2F429546954770440F440F8D2F8F70F2
:1028A000042E01C0880F0A94EAF72D2F2071D4FF5F
:1028B00007C02FE030E001C0220F4A95EAF72095CB
:1028C000C695C695C370822BC23051F0C33059F003
:1028D000C13019F00E94E015EACE0E94DB15E7CE68
:1028E0000E94E515E4CE0E94A815E1CECF70112319
:1028F00029F08C2F0E94B9158D2F25CF8D2F0E9486
:10290000EC128C2F0E94C415D2CED23F89F160F414
:10291000D03FC9F0D13F29F1112309F442C0011180
:10292000AECE8C2F8F7121C0D33F39F1D43FA1F7A8
:10293000112369F1CF718C2F0E94B91563E08C2FA0
:102940000E940F1AB4CE112341F0053008F0AFCE2B
:102950008C2F8F710E94D015AACE063008F0A7CE1A
:10296000F7CF8C2F8F71112369F20E94B9159FCE7A
:102970008C2F8F711123C9F3C5CF112329F08C2F10
:102980008F710E94B11593CE0E94AE1590CE81E05A
:102990000E942A1A023008F48ACE82E00E942A1A83
:1029A00086CE0111F4CE8C2F8F71ACCFDF91CF91F9
:1029B0001F910F91FF90EF90DF90CF90BF90AF905D
:1029C00008950F931F93CF93DF93EC016881798172
:1029D0008A810E947A168C010E94EA150E94921543
:1029E000B801CE01DF91CF911F910F910C94F3129A
:1029F000CF93DF93EC018B819C81892B29F0888117
:102A0000998189238F3F59F4DF91CF910895CE01A9
:102A10000E94E114CE01DF91CF910C945A10CE01A7
:102A20000E94A5108111F3CF0E946C19882361F3D5
:102A30008A81882349F382E0DF91CF910C942A1A8E
:102A400090E080E00E94E42790E080E00E94FA2776
:102A50000E94B6190E94B9190E94D9190E940E212C
:102A60000C94E41F0E945C190C9420150E94A51977
:102A70000C943215282F892F82958F70903C80F40A
:102A80008A30B0F4843020F4823090F480E00895ED
:102A90008630E1F781E0283E88F0213FB9F70EC08B
:102AA0008C3011F08F3091F793FB882780F90895CF
:102AB00081E0203F39F018F4283E40F70895243F84
:102AC00029F7FCCF0895FC01808191810E946E1648
:102AD0000C943A15CF93DF9300D000D00F92CDB76E
:102AE000DEB70F900F900F900F900F90DF91CF9166
:102AF0000895CF93DF9300D000D000D0CDB7DEB7DC
:102B000026960FB6F894DEBF0FBECDBFDF91CF91F2
:102B1000089508950C9489150E948A158093AC013C
:102B20000C94201508950C948C159091AC01892B70
:102B30000C948C159091AC0189230C948C15909178
:102B4000AC0189270C948C150C9489150C94A41550
:102B50000E94A6158093AB010C94201580E00C9484
:102B6000A81591E001C0990F8A95EAF7892F0C9476
:102B7000A81521E030E001C0220F8A95EAF7809184
:102B8000AB01822B0C94A81521E030E001C0220F8C
:102B90008A95EAF720958091AB0182230C94A815C1
:102BA00021E030E001C0220F8A95EAF78091AB0165
:102BB00082270C94A8159091AB01892B0C94A81531
:102BC0009091AB0189230C94A8159091AB018927B2
:102BD0000C94A8150895990F990F990FE92FE80FF4
:102BE000877041E001C0440F8A95EAF7E695E695C3
:102BF000E69583E0E89FF0011124E855FE4F30E0B0
:102C000020E070E05191DF011197CB01022E02C04C
:102C1000969587950A94E2F781708195852784239C
:102C200085278C932F5F3F4F2330310559F7089547
:102C3000E92FEE0FEE0FEE0FE80F982F9770E69545
:102C4000E695E69583E0E89FF0011124E855FE4FF4
:102C500050E040E080E0219130E0092E02C036953E
:102C600027950A94E2F721703327042E01C0220F22
:102C70000A94EAF7822B4F5F5F4F4330510559F7B3
:102C80000895DF92EF92FF920F931F93CF93DF93FC
:102C90007C010091AB018091AC01082BC7E0D0E032
:102CA00010E0DC2EC8010C2E02C0959587950A9481
:102CB000E2F780FD0CC02197A0F7D12C8D2DDF917C
:102CC000CF911F910F91FF90EF90DF900895B70182
:102CD0008C2F0E949E1C019771F3F0CFCF93DF934E
:102CE000D82FC92F0E9441166D2F7C2FDF91CF91D5
:102CF0000C949E1C1F93CF93DF93162FD72F909188
:102D0000A701992339F0862F972FDF91CF911F913B
:102D10000C946E16882391F0862F972F0E944116EF
:102D2000C82F682F812F9D2F0E94EB15612F7D2FBB
:102D30008C2FDF91CF911F910C949E1C862F972F83
:102D40000E941816C82FF2CF1F93CF93DF93E09104
:102D5000AD0116E08091AE018E1304C0DF91CF91DA
:102D60001F910895CE2FD0E01E9FF0011124E15550
:102D7000FE4F4081518162817381848195810E94DF
:102D80007915FE013196E770E5CF4091DF01509152
:102D9000E0016091E1017091E2018091E301909185
:102DA000E4010C9479151F93CF93DF938091E40194
:102DB000807FA9F48091E101882389F08091AD01A1
:102DC000C091AE016091DF017091E001A091E2013C
:102DD000B091E301D62FD72316E0C81304C0DF91CA
:102DE000CF911F91089590E0109711F0DF3F19F4F3
:102DF00001968770F2CF189F9001199F300D112412
:102E0000F901E155FE4F41814713F2CF408146134E
:102E1000EFCF42814111ECCF438154814A1B5B0BC0
:102E2000483C510528F78091E4018F7080618093C0
:102E3000E401F901EC54FE4F80818F708061808342
:102E40008FED91E00E94F814DF91CF911F910C94C7
:102E5000A416AF92BF92CF92DF92EF92FF920F93A0
:102E60001F93CF93DF93CDB7DEB72B970FB6F894B0
:102E7000DEBF0FBECDBF8C0185E0F801DE011796E5
:102E800001900D928A95E1F7F801E2808FEDC82E4E
:102E900081E0D82E6091E2017091E3016115710526
:102EA00009F440C19091DF012091E001822F892334
:102EB0008F3F09F437C140815181A380B480F090E5
:102EC000E101F501E61BF70BFF2009F4DDC080915D
:102ED000E401382F307FE83CF10508F0AFC0311134
:102EE00079C0FE2C521323C0941321C0E1101FC0DF
:102EF0008F7080618093E4010E94C516C6010E9414
:102F0000F8148091E401F80185838F2D2B960FB67C
:102F1000F894DEBF0FBECDBFDF91CF911F910F910F
:102F2000FF90EF90DF90CF90BF90AF900895AB28C7
:102F300029F0852F84238F3F09F00DC180E0F82F01
:102F4000F170DF2EE091AD012091AE0136E080FD01
:102F50001CC0EE20D1F28091E40181608093E401F5
:102F6000F12CD3CF8E2F90E03E9FF0011124E1553C
:102F7000FE4F6181561306C06081641303C06281F5
:102F8000E612E7CFFC013196E770E213EBCF4F83F7
:102F900058878F8198850E946E16292F22952F7051
:102FA000903260F0225F2F70223078F49F7051F0E1
:102FB000F8019581907F31F4D12C0AC09F7011F0F7
:102FC0008823D1F3805E8830B8F3C8010E94F814DA
:102FD000FD2C9BCF521306C0941304C0F801EE20C1
:102FE00009F46DC0C8010E946315882319F1EE2011
:102FF00009F18091E401803270F02091DF0130917D
:10300000E0013A8329831B82BD82AC828E83CE018C
:1030100001960E94F81486E0F801AFEDB1E001904E
:103020000D928A95E1F70E94D3160E94C516FF24DF
:10303000F3946BCFC8010E94F814F9CF311113C07B
:103040007A2DBB86AA866E2D8B850E946A158FED20
:1030500091E00E94F81486E0F60111928A95E9F752
:103060000E94C5167DCF5213BDCF9413BBCFE11084
:10307000B9CFF8018583C8010E94F81486E0F601F3
:1030800011928A95E9F741CFE83CF10508F03DC07F
:10309000FE2CEE2079F252132AC0941328C080919E
:1030A000E40180FD1BC0982F907FC1F0F80185835B
:1030B000903F31F0982F907F905F8F70892B8583A0
:1030C000C8010E94F81486E0F801AFEDB1E001906C
:1030D0000D928A95E1F70E94C51617CF86E0F80198
:1030E000AFEDB1E001900D928A95E1F70ECFC801E6
:1030F0000E94631581118FCF8091E40181608093DC
:10310000E401C8010E94F81400CF7A2DBB86AA867C
:103110006E2D8B850E946A1586E0F60111928A95C4
:10312000E9F7D9CFEE2009F485CFC8010E946315D5
:10313000F82E882309F47ECF86E0F801AFEDB1E0E8
:1031400001900D928A95E1F78FED91E00E941B129C
:103150000E94D316C0CF81E08E25F1CE1F93CF936E
:10316000DF93CDB7DEB72C970FB6F894DEBF0FBE56
:10317000CDBF4F83588769877A878B879C87CE011D
:1031800007960E942917882369F08A859B85892BD9
:1031900039F04F815885842F85238F3F09F077C000
:1031A00016E065C086E0FE013796DE0111960190BB
:1031B0000D928A95E1F76A857B856115710581F32A
:1031C0005F814885842F85238F3F51F32091AE0185
:1031D00030E0C901019687709927E091AD01E817A9
:1031E000190671F40E9436151092AE011092AD01CD
:1031F00086E0EFEDF1E0DF011D928A95E9F7D0CF8F
:1032000059834A837D836C8396E0929FD001939F7C
:10321000B00D1124A155BE4FFE01319601900D92C3
:103220009A95E1F78093AE010E94A416B9CF819FD1
:10323000C001112481559E4F0E9429178823E9F06F
:10324000E091AD011E9FF0011124E155FE4F408138
:10325000518162817381848195810E947915809169
:10326000AD0190E00196877099278093AD01809120
:10327000AD019091AE018913DACF2C960FB6F89478
:10328000DEBF0FBECDBFDF91CF911F91089569853D
:103290007A858B859C850E94791582CF682F8091D5
:1032A0000601909107010C945C28682F809106011B
:1032B000909107010C945E2880910601909107017E
:1032C0000C9460288091E5018595859585950895F4
:1032D0008091E501877008959091E501977081E0F4
:1032E00009F480E0089590914F0392FB222720F982
:1032F000281751F080FB92F990934F0380914E0371
:1033000090914F030C946D1A089580914F0382FBA6
:10331000882780F991E089270C94731981E00C9437
:10332000731980E00C9473198091F10108959091C4
:10333000F101982B9093F1010895982F9095809129
:10334000F10189238093F10108951092F10108950C
:103350009091F001982B9093F0010895982F9095FB
:103360008091F00189238093F00108951092F0017B
:1033700008951092EF0108958091E601089508954F
:103380000C94BF1990914F0392FD08C09091E601F3
:10339000981721F08093E6010C94C019089580914C
:1033A000E601882329F01092E60180E00C94C01910
:1033B0000895E0910601F09107018091F101808369
:1033C000E0910601F091070180819091F001892B35
:1033D0008083E0910601F091070180819091EF01D7
:1033E000892B80839091E601992381F0E091060179
:1033F000F09107018081892B808380910601909153
:1034000007010E94102881110E94CF1980910601A6
:10341000909107010C94CA2708950C940C1A90916E
:103420004F0392FD10C098E0899F90011124622BF8
:103430006093E5010E94B9158091E5018595859518
:1034400085950C940D1A0C94B9151092E50180E045
:103450000C940D1A9091E501809589238093E501E4
:10346000282F277039F4282F082E000C330B9217C1
:10347000130621F490914F0392FF07C0859585951F
:1034800085950E94C4150C94251A08956FEF7FEF5F
:1034900090E080E00C944D3290E080E00E94293270
:1034A000893E9E4F11F40C94D42180E0089582E06F
:1034B00090E00C941B3283E090E00C941B32CF938D
:1034C00084E090E00E941B32C82F82E290E00E94CC
:1034D0001B32982F8C2FCF910895CF93682FC92F2F
:1034E00084E090E00E942F326C2F82E290E0CF9136
:1034F0000C942F328FE090E00C942332AB01BC018E
:103500008FE090E00C944132AB01BC0183E190E08C
:103510000C94413260E070E0CB010C94841A69EEA7
:103520007EEF90E080E00E944D3260E082E090E02B
:103530000E942F3260E083E090E00E942F321092D0
:10354000AC0160E084E090E00E942F3260E082E213
:1035500090E00E942F3260E085E090E00E942F32E0
:1035600060E086E090E00E942F326FEF87E090E00D
:103570000E942F3240E050E0BA0188E090E00E94C3
:10358000413260E08DE090E00E942F3240E050E058
:10359000BA0188E190E00E94413260E087E190E06A
:1035A0000E942F3240E050E0BA018CE190E00E948E
:1035B000413270E060E080E290E00E944D3240E0F5
:1035C00050E0BA0188E190E00E94413280E00E9420
:1035D000ED210E9421220C94D70F0C948F1A682F92
:1035E0008EE090E00C942F320E94F2286093F80154
:1035F0007093F9018093FA019093FB016093F401B9
:103600007093F5018093F6019093F701089585B7C3
:10361000806885BF85B7806885BF0895089508953F
:1036200008950E94071B8DE79DE10E9469290E9471
:103630000F1B0C94540F81E008950C941B1B0895EC
:1036400008950E941F1B0C94201B0E94DD280E94DD
:1036500030220E941B1E0E949C0F0C940810EF92B7
:10366000FF920F931F93CF93DF9300D000D00F9260
:10367000CDB7DEB70E94261E81110E94F41A80E0A9
:103680000E94B51D182F8091F301E82EE1268117C5
:1036900009F446C08091FC0181FD0E94BB1DF12C04
:1036A00001E08E2D8023B9F10E941D1B882399F023
:1036B000F9821A82102381E009F480E08B830E9452
:1036C000E6288160782F9D838C8349815A816B81A4
:1036D0008D810E94DE118091F30108270093F30190
:1036E0000E94FE1F0E94A00F0E94BE279091F2012F
:1036F000891739F10E94BE278093F2010F900F9035
:103700000F900F900F90DF91CF911F910F91FF902D
:10371000EF900C94D611F394000F88E0F812C1CF0B
:103720008FEF89838A831B820E94E6288160782F2D
:103730009D838C8349815A816B818D810E94DE112A
:10374000CFCF0F900F900F900F900F90DF91CF91F0
:103750001F910F91FF90EF900895CF93DF930E94F8
:10376000A21CEC01811522E5920708F062C08115C8
:1037700031E5930708F0B5C0883E910518F5803E05
:103780009105B8F5883A910570F4853A910508F0ED
:10379000A2C08130910569F10497813A910548F101
:1037A000D0E0C0E026C0885A91094797C8F7C85AA8
:1037B000D0E0CC0FDD1FCA5ADE4F0990D881C02D52
:1037C000D46417C0811540E59407B8F4C11580E4AE
:1037D000D80708F083C0CF3FD10509F028F4C03FD7
:1037E000D105F0F2D06505C0CE019A9581159F41B3
:1037F000B8F6CE01DF91CF910895F4E096958795C4
:10380000FA95E1F783702C2F26952695237040E2D8
:10381000249F90011124382B8C2F8370C1E0D0E0BD
:1038200002C0CC0FDD1F8A95E2F7C22BD32BDC68D8
:10383000E0CFC11586E5D80730F5C11595E5D90764
:1038400008F063C0C11524E5D207C0F49C2F9695FB
:1038500096959E0123703327C115D34508F046C0C5
:10386000C1E0D0E002C0CC0FDD1F2A95E2F720E2D4
:10387000929FC0011124C82BD92BD9CFDC2FCC2784
:10388000C46FD06AB6CFC1153AE5D30788F4C11525
:1038900049E5D40708F044C0CE0198558F3F910503
:1038A00011F008F07DCFDC2FCC27C06FD06AA1CFFC
:1038B000CE0190568115904208F072CF8D2F8F71F6
:1038C0000E943A1D90E0982F882788279F719C01BD
:1038D0002C2BE90123C0A497D0648BCFDF70D06A72
:1038E00088CFD82FCC27C16FD06A83CFC1E0D0E07A
:1038F00002C0CC0FDD1F2A95E2F730E2939FC00192
:103900001124C82BD92BDA6874CF8C2F0E943A1D52
:10391000C82FD0E0DC2FCC27CC27DF71D06269CF55
:103920008C2F8F700E943A1D34E0D695C7953A953A
:10393000E1F7CF70DC2FC82FD0695BCF0E9427241E
:103940000C94AD1B803E910599F1C8F4813391052B
:1039500009F476C048F48932910509F46AC08A32C4
:10396000910509F474C0089589339105D1F0823826
:103970009105B9F08533910509F454C00895843E4A
:10398000910599F138F4823E9105F9F0833E910555
:1039900009F10895863E910599F1873E9105B9F1A7
:1039A000089520914E032370A1F080EE90E00895D9
:1039B00020914E0320FD52C030914F0330FF09C0CB
:1039C00024FF4FC090E080E004C020914E0322FD10
:1039D000F7CF089520914E0322FD46C030914F034A
:1039E00030FDE3CF24FFF5CFEDCF20914F0321FF32
:1039F000F0CF80914E0384FDE5CF87EE90E00895EF
:103A000020914E0323FFE5CF24FDDCCFF6CF20919C
:103A10004E0323FD2CC030914F0331FFE3CF84EEE2
:103A200090E0089520914E0325FFD3CF89E290E0E6
:103A3000089520914E0325FFCCCF85E390E00895B3
:103A400020914E0326FFC5CF8AE290E00895209191
:103A50004E0326FFBECF81E390E0089589E390E016
:103A6000089583EE90E0089582EE90E0089586EE4A
:103A700090E0089590914E0392FF06C0282F287180
:103A80002830F9F4877F846093FF06C0282F2871BF
:103A90002831F1F4877E846120914F0320FF06C016
:103AA000382F38713830D9F4877F816021FF06C004
:103AB000282F28712831D1F4877E816194FD877E7B
:103AC0000895282F24712430F9F68B7F8860DCCF8D
:103AD000282F2471243101F78B7E8861DDCF382FA8
:103AE0003171313019F78E7F8860E0CF282F217136
:103AF000213121F78E7E8861E1CF80E008950C941A
:103B0000461A0E94261E8FE19EE40197F1F700C03D
:103B100000000E94261E80E00E94B51D83FF04C0A5
:103B20000E947F1D0C94452908950C94811D0E94CC
:103B30004C1A811102C00E94ED1A0E94571A8093FC
:103B4000FC010E945F1A90934F0380934E030E94E2
:103B5000951D0E945B1A0E9493158091AB010C94F5
:103B6000A615089508950C94B21DE82FF0E0EF5AC1
:103B7000FC4F808108950895CF93A4E8B1E04CE80C
:103B800051E061E070E08D918F3F91F0E82FE29578
:103B9000EF70F0E0C1A18F709B0101C0220F8A95E8
:103BA000EAF7922F90959C2391A382A1822B82A366
:103BB0004A175B0741F7CF910895EF92FF921F9349
:103BC000CF93DF937C01C62FD0E088E0689FF0019F
:103BD0001124EC57FE4F50E040E030E061E070E02F
:103BE00021912F3FB9F0822F82958F7090E0DC01F8
:103BF00090968C9190E02F7002C0959587952A95AC
:103C0000E2F780FD16C0CB01042E01C0880F0A9494
:103C1000EAF7382B4F5F5F4F4830510509F7D7015E
:103C2000AC0FBD1F3C93DF91CF911F91FF90EF90A0
:103C3000089580E0EECF0E94BC1D109250031092B8
:103C4000510381E00E944C1E0C948D101F93CF9362
:103C5000DF930F92CDB7DEB7198260E0CE010196F7
:103C60000E94DD1D90915003898111E0981301C0DD
:103C700010E0981380935003212F41E061E573E039
:103C800080E593E00E944D1E0E949310812F0F90BB
:103C9000DF91CF911F9108950895FF920F931F9385
:103CA000CF93DF93F82E092F162FD72FC42F22235F
:103CB00049F081E08093FF010E94E6289093FE0185
:103CC0008093FD018091FF018823A1F08091FD0187
:103CD0009091FE010E941229059760F0EF2DF02FC0
:103CE000A12FBD2FCE0FDF2FD11DEC17FD0741F403
:103CF0001092FF01DF91CF911F910F91FF900895D6
:103D000081918D93F2CF0E9468280E94F92A0E9427
:103D1000122B0E94242B0E94211BFBCF80910602B4
:103D200080FF12C060910D0185E0689FB0011124F1
:103D3000759567957595679560387105A8F5611556
:103D40007105A1F1862F089581FF09C060910D01D1
:103D500085E0689FB001112475956795EDCF60915E
:103D60000D0182FD0AC0809105028823D1F0909157
:103D70000C0160910D01891728F085E0689FB00162
:103D80001124DACF869FB001112485E0869F90012F
:103D9000879F300D1124692F70E0C9010E94FA310C
:103DA000CBCF65E070E0CECF8FE7089581E0089536
:103DB0008091060280FF0CC06091090170E075954A
:103DC0006795759567956115710549F1862F089579
:103DD00081FF06C06091090170E075956795F3CF8A
:103DE0006091090182FD0BC0909104029923A1F01A
:103DF0006091080180910901961738F0682F70E0F2
:103E00006038710500F38FE70895899FC001112480
:103E100070E00E94FA31F4CF61E070E0D7CF81E02A
:103E20000895803F31F40E948E1E819580930A028E
:103E30000895813F19F40E948E1EF8CF823F31F41D
:103E40000E948E1E8195809309020895833F19F484
:103E50000E948E1EF8CF893F29F40E94D81E8093BD
:103E60000B0208958A3F21F40E94D81E8195F7CF56
:103E70008B3F31F40E94D81E819580930C020895E7
:103E80008C3F19F40E94D81EF8CF9CE0980F953013
:103E900070F4845F990B21E030E001C0220F8A9515
:103EA000EAF780910802822B8093080208958D3FE3
:103EB00031F48091060281608093060208958E3F5E
:103EC00021F4809106028260F7CF8F3FB9F780918D
:103ED00006028460F1CF40910902803F59F480913D
:103EE0000A0287FF0DC010920A0241110BC0109206
:103EF000050208C0813F81F480910A0218169CF3E4
:103F0000442381F080910B0290910C02892B09F0DF
:103F10005AC0109204020895823F49F447FFF0CF3F
:103F20001092090280910A028111ECCFE0CF833F09
:103F300019F41416ACF3E4CF90910B02893F29F4E5
:103F40001916F4F610920B02DBCF8A3F19F497FF93
:103F5000D7CFF8CF90910C028B3F29F497FFD0CFA9
:103F600010920C02CDCF8C3F19F41916CCF3C8CFA8
:103F70009CE0980F953090F4845F990B21E030E03D
:103F8000B90102C0660F771F8A95E2F7CB018095D1
:103F900090910802892380930802B2CF8D3F31F4BB
:103FA000809106028E7F80930602AACF8E3F21F475
:103FB000809106028D7FF7CF8F3F09F0A1CF8091CE
:103FC00006028B7FF0CF08950E94E6282091090217
:103FD00030910A02232B21F0809302029093030276
:103FE00020910B0230910C02232B21F080930002D0
:103FF0009093010287E092E00C94D527EF92FF9214
:104000000F931F93CF93DF9300D000D000D0CDB794
:10401000DEB786E0E7E0F2E0DE01119601900D9256
:104020008A95E1F7E0900902F0900A0200910B02F4
:1040300010910C021092090210920A0210920B02C7
:1040400010920C028F2D8E2991F080910202909196
:1040500003020E9412299C0180910502882309F421
:1040600043C090910E019217130608F44BC0802FA5
:10407000812B91F080910002909101020E941229FF
:104080009C0180910402882309F47BC090910A016D
:104090009217130608F483C08091090290910A02D6
:1040A000892B90910B02892B90910C02892B11F096
:1040B0000E94E41FEB82FC820D831E8386E0FE01DA
:1040C0003196A7E0B2E001900D928A95E1F726962D
:1040D0000FB6F894DEBF0FBECDBFDF91CF911F9119
:1040E0000F91FF90EF90089540910F019AE0499F42
:1040F000A00111244217530708F0B9CF8F5F8093B6
:10410000050202C08F3FD1F7EE2059F00E948E1EAB
:104110009FEF1E140CF491E0899F802D1124809351
:104120000902FF2059F00E948E1E9FEF1F140CF40D
:1041300091E0899F802D112480930A023091090219
:10414000332309F494CF20910A02222309F48FCF5C
:1041500045EB3403C0011124992359F090930902CF
:1041600045EB240390011124332339F030930A02E4
:104170007ECF81E080930902F3CF81E080930A0231
:1041800076CF40910B019AE0499FA001112442177C
:10419000530708F081CF8F5F8093040202C08F3FE6
:1041A000D1F7002359F00E94D81E9FEF10160CF48F
:1041B00091E0899F802D112480930B02112359F0E7
:1041C0000E94D81E9FEF11160CF491E0899F802D5C
:1041D000112480930C0230910B02332309F45CCF3D
:1041E00020910C02222309F457CF45EB3403C00180
:1041F0001124992359F090930B0245EB240390016D
:104200001124332339F030930C0246CF81E08093A0
:104210000B02F3CF81E080930C023ECF86E0E7E013
:10422000F2E0DF011D928A95E9F7109205021092E3
:104230000402109206020895EF92FF920F931F93CB
:10424000CF93DF93CDB7DEB72C970FB6F894DEBFD0
:104250000FBECDBF7C838D839E831A872B873C87BF
:104260005F1119C0662311F0061315C08C818823D5
:1042700019F09A8598130FC08E81882319F09C85B8
:10428000981309C09D81992321F081E02B85291382
:1042900003C080E001C081E081702C960FB6F894D5
:1042A000DEBF0FBECDBFDF91CF911F910F91FF9069
:1042B000EF900895EF92FF920F931F93E0900D02FD
:1042C000F0900E0200910F02109110022091110245
:1042D0003091120240911302509114026091150224
:1042E0007091160280911702909118020E941C2171
:1042F000882321F083E192E00E94D52710921502D5
:1043000010921602109217021092180286E0E3E152
:10431000F2E0ADE0B2E001900D928A95E1F71F91D5
:104320000F91FF90EF900895CF93DF9300D000D0CE
:1043300000D0CDB7DEB786E0E3E1F2E0DE01119612
:1043400001900D928A95E1F729813A814B815C8138
:104350006D817E8180E090E026960FB6F894DEBFF6
:104360000FBECDBFDF91CF910895CF93DF9300D0E3
:1043700000D000D0CDB7DEB749835A836B837C83EE
:104380008D839E8386E0FE013196A3E1B2E0019029
:104390000D928A95E1F726960FB6F894DEBF0FBE10
:1043A000CDBFDF91CF91089583E290E00E941B3250
:1043B000813289F484E290E00E941B32823159F408
:1043C00085E290E00E941B3291E0843009F090E099
:1043D000892F8170089580E0FCCFCF93C82F6FEFB5
:1043E000811161E283E290E00E942F326FEFC111F0
:1043F00062E184E290E00E942F326FEFC11164E02D
:1044000085E290E0CF910C942F320895CF93DF9303
:1044100000D000D0CDB7DEB786E290E00E941B321C
:10442000282F30E050E040E0CA01B9010F900F9012
:104430000F900F90DF91CF91089586E290E00C9459
:104440002F3280E00E94ED2160E070E0CB010E94FD
:104450001D220E94B2230E948B2481E00C94ED2146
:104460000E9405220E94D421811102C00C942122B5
:104470000895CF939C01FB01C281CC2301F18251AD
:104480009F45409720F58EEE820F0E949B24C0E04E
:104490008C2FCF91089581E00E94B91543E062E02E
:1044A00081E00E948410F3CF81E00E94C41543E0B4
:1044B00062E081E00E948410EBCF82E0F6CF803191
:1044C0009F4591F321313F45C1F3C1E0E1CF203158
:1044D000EFE53E0701F382E021313F45E9F2D8CF15
:1044E0002FEFFC01208308951F93CF93DF93CDB767
:1044F000DEB72E970FB6F894DEBF0FBECDBF8D830B
:104500009E83162FAD81BE81EC91E150E33108F01E
:1045100087C0F0E0EF58FD4C0C940E32ED81FE8127
:10452000118289E0828318C0AD81BE8111968C9181
:10453000823001F1833079F1813099F50E94F228BF
:104540000E9414326F83788789879A87ED81FE8174
:104550006283738384839583612F8D819E812E96E0
:104560000FB6F894DEBF0FBECDBFDF91CF911F9184
:104570000C94F2290E9406220E9414326B877C87D9
:104580008D879E87AD81BE8112966D937D938D93AD
:104590009C931597E1CF80E00E94B51DED81FE81CF
:1045A000C1CF612F8D819E810E947022D5CFAD81B8
:1045B000BE8111968C911197823099F712968D9148
:1045C0009D910D90BC91A02D89839A83AB83BC8370
:1045D000BC01CD010E9414320E941D22BDCFED818D
:1045E000FE814381628181810E94842398278927EB
:1045F0009827AD81BE8115969C938E931497ACCF6E
:10460000ED81FE81248135813227232732274381A2
:10461000628181810E949D239FCF0E94B2239CCF03
:104620008FEFAD81BE818C9397CF0E943424ED81B2
:10463000FE81818391CF0E9436249827892798276D
:10464000AD81BE8112969C938E93119785CFED819B
:10465000FE81638170E081819281AF014C5F5F4F89
:104660009827892798270E94392476CFAD81BE816B
:1046700013966C91139770E011968D919C911297FF
:10468000AD014C5F5F4F9827892798270E946024CF
:1046900063CF0E948B2460CF0E947123C8CFAD816D
:1046A000BE8113966C91139770E011968D919C9139
:1046B0001297AD014C5F5F4F9827892798270E947A
:1046C000D9234ACFED81FE81638170E0818192819F
:1046D000AF014C5F5F4F9827892798270E94FE23E0
:1046E0003BCF88E0089520E1629FB001112450E0A3
:1046F000440F551F640F751F20E1829FC0011124D4
:10470000860F971F879608950F931F93CF93DF937C
:104710000E9473238C010E941B32C82FD0E0DC2F33
:10472000CC27C80101960E941B329E01282BC9018B
:10473000DF91CF911F910F9108950F931F93CF9306
:10474000DF93122F032F0E947323EC01602F0E942E
:104750002F32612FCE010196DF91CF911F910F91E2
:104760000C942F32EF92FF920F931F93CF93DF930E
:104770008AEAE82E80E1F82ED0E08701C0E0F80157
:10478000259134914C2F60E08D2F0E949D230E5F68
:104790001F4FCF5FC83099F780E1E80EF11CDF5F53
:1047A000D83059F7DF91CF911F910F91FF90EF9083
:1047B0000895EF92FF920F931F93CF93DF93EC0135
:1047C0008A017C01E60EF71ECE018796CE15DF0525
:1047D00039F4DF91CF911F910F91FF90EF900895E1
:1047E000C038D10540F40E941B32F80180830F5F6E
:1047F0001F4F2196E9CFF8011082F9CFCF92DF92B7
:10480000EF92FF920F931F93CF93DF938C016A0176
:104810007C01E60EF71EEC01CE018796CE15DF0572
:1048200049F4DF91CF911F910F91FF90EF90DF90AE
:10483000CF900895C038D10540F4FE01E01BF10B84
:10484000EC0DFD1D60810E942F322196E5CF462F91
:10485000883038F4711105C0683018F460E00C94A9
:10486000842390E080E0089580E1089589E593E055
:104870000895EF92FF920F931F93CF93DF93EC0174
:104880008A017C01E60EF71ECE0189559F4FCE1599
:10489000DF0539F4DF91CF911F910F91FF90EF90D9
:1048A0000895C93523E0D20740F40E941B32F80175
:1048B00080830F5F1F4F2196E7CFF8011082F9CF59
:1048C000CF92DF92EF92FF920F931F93CF93DF93DC
:1048D0008C016A017C01E60EF71EEC01CE018955C0
:1048E0009F4FCE15DF0549F4DF91CF911F910F91B6
:1048F000FF90EF90DF90CF900895C93523E0D20765
:1049000040F4FE01E01BF10BEC0DFD1D60810E94E7
:104910002F322196E3CFCF93DF93C7EAD0E060E058
:10492000CE010E942F322196C11584E0D807B9F735
:10493000DF91CF910895DF92EF92FF920F931F9333
:10494000CF93DF9300D000D0CDB7DEB7F82E8FE045
:104950008F1540F08FEF93E00E941B3207EA10E0C2
:104960008823C1F00F900F900F900F90DF91CF919F
:104970001F910F91FF90EF90DF900895011584E053
:10498000180781F3C8010E941B32811101C0FA94FB
:104990000F5F1F4FF110F2CF80911D0190911E010A
:1049A000A0911F01B091200189839A83AB83BC83BE
:1049B000DD24D39478018FEFE81AF80AC8010E9429
:1049C0001B3289831A82882369F29FEF980F9330F4
:1049D00080F48A83D9820E5F1F4FC7010E941B3269
:1049E0008B83882309F4BECFCE0101960E94CB11A0
:1049F000E1CF8701F9CF0F931F93CF93DF93C42F9C
:104A0000D22FFC0182818823C9F040931B020E94AF
:104A1000E62890931A028093190280E28C0F883066
:104A200008F050C0C77081E001C0880FCA95EAF74E
:104A3000DF91CF911F910F910C94E51210911B0201
:104A4000141335C08091190290911A020E94122904
:104A5000883C910560F5C0E2CD0F1D17B9F080E2EA
:104A6000810F883040F4177081E001C0880F1A95DB
:104A7000EAF70E94EC12C83048F481E09D2F97704D
:104A800001C0880F9A95EAF70E94E512802F0E94D4
:104A9000DD12C830B8F4D77081E001C0880FDA9514
:104AA000EAF7DF91CF911F910F910C94EC1280E205
:104AB0008C0F883038F4C77081E001C0880FCA9528
:104AC000EAF7EFCFDF91CF911F910F9108950F93E8
:104AD0009C01CB01233F4CE53407A1F190F4283D24
:104AE000FCE53F0749F1293D4CE53407E9F1273D55
:104AF0003C45C1F0FC0182818823E1F110921B0248
:104B000019C0253FFCE53F0719F1263F4CE5340766
:104B100029F1243F3C4571F707E225EE44EE64EFAE
:104B20007CE505C006E221EE41EE67ED7CE50E94E2
:104B3000FB2480E00F91089507E225EE45EE68ED35
:104B40007CE5F5CF06E221EE40EE63EF7CE5EFCFAA
:104B500006E221EE42EE65EF7CE5E9CF07E225EEC5
:104B600046EE66EF7CE5E3CF08E221E045EE69ED35
:104B70007CE5DDCF81E0DECFCF93DF93EC01FB015D
:104B80008281882309F4C9C0C631FCE5DF07E0F45F
:104B9000C2309CE5D907F0F00E945F1A90934F0352
:104BA00080934E03C631ECE5DE0720F5C230FCE50C
:104BB000DF0798F480914E0390914F030E946D1A85
:104BC0000E94361580E006C09E012A5F3C452930D0
:104BD000310510F3DF91CF910895FE01E350FC45BC
:104BE00080914E038160E331F10588F4EC57FD4C70
:104BF0000C940E32CA5FDC45C930D105D8F6C956CF
:104C0000DD4CFE010C940E3280914E038260809345
:104C10004E03D0CF80914E038460F9CF80914E0334
:104C20008860F5CF80914F03816080934F03C2CF9E
:104C300080914F038260F9CF80914E038061E7CF6E
:104C400080914E038062E3CF80914E038064DFCF7A
:104C50000E94361580914E038068D9CF80914E0313
:104C60008C60D5CF80914F038360DFCF80914E035E
:104C70008E7FCDCF80914E038D7FC9CF80914E0323
:104C80008B7FC5CF80914E03877FC1CF80914F032B
:104C90008E7FCBCF80914F038D7FC7CF80914E0306
:104CA0008F7EB5CF80914E038F7DB1CF80914E0323
:104CB0008F7BADCF0E94361580914E038F77A7CFA3
:104CC00080914E03837FA3CF80914F038C7FADCF24
:104CD00080914E0382FB992790F921E0922790FB67
:104CE00082F990FB83F993CF80914F03982F909591
:104CF00091708E7F892B90FB81F997CF0E9436159A
:104D000090914E03892F97FB87F9805880CF81E0DF
:104D10000E94EF1A4FCF80E0FBCF81E05BCFCF93B3
:104D2000DF93EB0186319C4511F50E9494199A811D
:104D3000992399F08A7A91E009F490E090931C020B
:104D4000811109C089E20E944E190E94D91980E0A0
:104D5000DF91CF91089585E3F6CF80911C028111F8
:104D600004C089E20E945519F0CF85E3FBCF81E0B2
:104D7000EFCF95E890937A00982F90729068909377
:104D80007B008F7190911001892B80937C00809122
:104D90007A00806480937A0080917A0086FDFCCF4F
:104DA000809178002091790090917A009F7790937C
:104DB0007A00922F0895289A219A229A23982B9864
:104DC00080E58CBD0895F901909111019F3F09F094
:104DD00074C08F3F09F471C061114AC010921E0265
:104DE00090911E02423009F447C0433009F448C094
:104DF0009460413009F441C021E030E02E173F07B4
:104E000008F440C090911E022032310509F450C0D0
:104E1000E0F52830310509F446C02031310509F4A8
:104E200045C022303105D9F19CB520911E02922B4C
:104E30009CBD90911D02992319F09DB591609DBD77
:104E400080931101E82FE295EF70F0E031A1282F57
:104E50002F7081E090E001C0880F2A95EAF7932F28
:104E6000982B91A392A18095892382A381E0089534
:104E700090E290931E02B4CF986090931E02BCCF34
:104E80009C60FBCF220F331FB9CF2034310599F03E
:104E900093602038310541F690931E02C5CF91E012
:104EA00090931D02C1CF21E020931D029160F4CFA9
:104EB00021E020931D029260EFCF80E00895CF9310
:104EC000DF938EBD0E94E628EC010DB407FE05C0FD
:104ED0008EB590E0DF91CF9108950E94E6288C1B5B
:104EE0009D0B8436910588F38EEF9FEFF3CFCF9320
:104EF000DF931EBC0E94E628EC010DB407FE05C03E
:104F00008EB590E0DF91CF9108950E94E6288C1B2A
:104F10009D0B8436910588F38EEF9FEFF3CF809140
:104F200011018F3F29F1E82FE295EF70F0E041A1E8
:104F30008F7021E030E0B90102C0660F771F8A95BB
:104F4000E2F7CB01942F982B91A392A1892B82A3F6
:104F50008FEF809311018DB58E7F8DBD9CB58091B3
:104F60001E02809589238CBD10921E0210921D0294
:104F7000089590932402809323020895E0912302E0
:104F8000F0912402309721F00190F081E02D0994F6
:104F900080E00895E0912302F0912402309721F0FF
:104FA0000280F381E02D09940895DC01E091230251
:104FB000F0912402309739F082E08C930480F581DF
:104FC000E02DCD0109940895209121023091220213
:104FD0002817390771F09093220280932102E09103
:104FE0002302F0912402309721F00680F781E02D12
:104FF0000994089520911F02309120022817390743
:1050000071F09093200280931F02E0912302F091AF
:105010002402309721F00084F185E02D0994089551
:10502000AC019C012E5F3F4F485F5F4F80E024172B
:10503000350709F40895F90191919F019923B9F376
:105040008F5FF5CF9C01662351F0FC013296285FFB
:105050003F4F8191861729F0E217F307D1F780E0DF
:10506000089581E008959C01FC0132968FEF90E055
:105070004191461751F08F3F19F4411101C0892F1A
:105080009F5F9630A9F78F3F09F40895280F311DCF
:1050900087FD3A95F901628308959C01FC013296DF
:1050A000285F3F4F8191861303C0DF0111971C9247
:1050B000E217F307B9F708950C9433280C944D28A0
:1050C000FC01329686E0DF011D928A95E9F708958A
:1050D0000895089508950C946A2880915A038430A5
:1050E00049F10E946B2880E00E94D611109225029F
:1050F00088E190E020E40FB6F894A89580936000D2
:105100000FBE2093600083B7817F846083BF83B725
:10511000816083BF7894889583B78E7F83BF0FB6F5
:10512000F894A89580916000886180936000109247
:1051300060000FBE089508950E9469280E94261EEF
:105140000E949B2880E00E94B51D982F81E091115C
:1051500001C080E0089508950C94AB280E94361594
:105160000E94BE270E94D6110C94AC281F921FB635
:105170001F9211248F939F93AF93BF938091250229
:10518000811113C08091520390915303A091540355
:10519000B09155034196A11DB11D80935203909388
:1051A0005303A0935403B0935503BF91AF919F91C4
:1051B0008F911F901FBE1F90189582E084BD93E0D1
:1051C00095BD9DE797BD80936E0008952FB7F89425
:1051D0008091520390915303A0915403B0915503D1
:1051E0002FBF0895CF93DF9300D000D0CDB7DEB7A7
:1051F0008FB7F89420915203309153034091540398
:105200005091550329833A834B835C838FBF698117
:105210007A818B819C810F900F900F900F90DF917E
:10522000CF9108959C014FB7F894809152039091CB
:105230005303A0915403B09155034FBF821B930BAE
:10524000089578941F921FB61F9211248F939F93F5
:10525000AF93BF938091520390915303A091540355
:10526000B09155030196A11DB11D809352039093F7
:105270005303A0935403B0935503BF91AF919F91F3
:105280008F911F901FBE1F90189581E08093E000C2
:1052900080E28093D8001092C9008FE097E20197D6
:1052A000F1F700C0000087E090EBDC01809363031E
:1052B00090936403A0936503B093660388E19CE038
:1052C0000FB6F894A895809360000FBE909360008D
:1052D000FFCF90939D0180939C01089580913102AE
:1052E000089590915A03943029F580932602609393
:1052F0002702709328029093E9008FEF9091E800C5
:10530000815095FD06C09AE69A95F1F700C081118B
:10531000F5CF8091E80085FF0DC050E040E063E0EC
:1053200070E086E292E00E94E82B8091E8008E77A0
:105330008093E8000895BC0184E00C947129BC01BD
:1053400083E00C94712924E02093E9002FEF309141
:10535000E800215035FD06C03AE63A95F1F700C065
:105360002111F5CF2091E80025FF0BC050E040E06F
:1053700066E070E00E94E82B8091E8008E778093D1
:10538000E8000895CF93DF93D82FC92F81E0809351
:10539000E9008FEF9091E800815095FD06C09AE6F4
:1053A0009A95F1F700C08111F5CF8091E80085FF53
:1053B00016C050E040E068E070E08D2F9C2F0E9406
:1053C000E82B8091E8008E778093E80088E0ED2F4D
:1053D000FC2FA9E2B2E001900D928A95E1F7DF91EE
:1053E000CF910895CF93603219F520915A0324305C
:1053F000F9F4C091E900CF703091EC00232F2170B7
:1054000030FD20E8C22B22E02093E9002091E80043
:1054100020FF0BC050E040E060E270E00E94E82B0B
:105420008091E8008E778093E800CF70C093E90008
:10543000CF91089580915903811109C00E94BF2D19
:105440000E941C2E8091E20084608093E200089507
:1054500010925903089508950895089542E061EC6B
:1054600081E00E943B2D42E261EC84E00E943B2DF2
:1054700042E261EC82E00E943B2D42E260EC83E07C
:105480000C943B2D80915C03893089F148F4823083
:1054900009F49EC0833009F459C0813041F0089569
:1054A0008A3009F485C08B3009F46BC0089580916F
:1054B0005B03813A09F049C08091E800877F8093BF
:1054C000E80080915F0390916003892B61F468E0AC
:1054D00089E292E070E00E94862C8091E8008B7750
:1054E0008093E800089560E090E080E0F3CF809141
:1054F0005B03813251F580915F03909160038D7F52
:10550000892B19F58091E800877F8093E8008091CE
:10551000E80082FF16C09091F3008091F20002979C
:1055200029F48091F1008B7F813021F48091F1008A
:10553000809331028091E8008B778093E8000C948F
:105540006F2D80915A038111E2CF089580915B0302
:10555000813AD9F780915F0390916003892BA9F775
:105560008091E800877F8093E8008091E80080FFC9
:10557000FCCF80911C018093F1008091E8008E7730
:10558000DCCF80915B03813201F780915F039091C2
:105590006003892BD1F68091E800877F8093E80033
:1055A0000E946F2D80915D0380931C010C94361531
:1055B00080915B03813249F68091E800877F809378
:1055C000E8000E946F2D80915E038093320208955F
:1055D00080915B03813A09F0B8CF8091E800877F22
:1055E0008093E8008091E80080FFFCCF8091320238
:1055F000C2CF84B7877F84BF0FB6F894A8958091F7
:105600006000886180936000109260000FBE80E8A7
:1056100090E00FB6F89480936100909361000FBE04
:105620000C94111B0E94BF2D0E941C2EE2EEF0E094
:1056300080818460808378940E94A1300E94251B21
:1056400082E191E00C94B927CF93DF93CDB7DEB719
:10565000A0970FB6F894DEBF0FBECDBF80915A035E
:10566000853031F480915A03853091F10E94AE2843
:105670000E942F1B80915A03843009F583E08093A8
:10568000E9008091E80082FF1AC08091E80090E074
:1056900085FF09C050E040E060E270E0CE01019675
:1056A0000E94372C91E08091E8008B778093E8008E
:1056B000992329F060E2CE0101960E947422A096FF
:1056C0000FB6F894DEBF0FBECDBFDF91CF91089526
:1056D0000E946D2880915803882321F20E949C2803
:1056E000882309F4BFCF0E94D32B0E943615BACF6E
:1056F0000C947A2BFC01CB01DA012F2F33272330B6
:105700003105D1F070F42130310509F447C0223061
:10571000310569F48BE590E020E032E12D933C9374
:10572000089521323105E9F02232310539F190E056
:1057300080E030E020E0F2CFCF019927E13059F04E
:105740008230910559F0ECEFF1E1892B81F78491DA
:1057500090E09F01E3CFE8EEF1E1F9CFEAEDF1E16E
:10576000F6CF6330710518F7880F991FFC01EB56CF
:10577000FE4F2081318189E090E0D0CF6330710508
:10578000B0F6FB01EE0FFF1FE157FE4F2081318184
:1057900084579E4FFC01808190E0C0CF82E190E071
:1057A0002BE532E1BBCF19BC82E089BD09B400FE14
:1057B000FDCF8091D8008F7D8093D8008091E0004C
:1057C00082608093E0008091E00081FDFCCF08952D
:1057D000AF92BF92CF92DF92FF920F931F93CF931E
:1057E000DF936C01EB018A010E948E2DF82E81114E
:1057F00023C00115110539F0F80180819181C81B82
:10580000D90BC80ED91EB12CA12C2097A9F08091DC
:10581000E80085FD22C08091E8008E778093E80043
:1058200001151105A1F0F80180819181A80EB91E22
:10583000B182A08285E0F82E8F2DDF91CF911F914C
:105840000F91FF90DF90CF90BF90AF9008950E948E
:105850008E2D8823D1F2F82EEFCFF60181916F01C2
:105860008093F1002197FFEFAF1ABF0ACECFAF921E
:10587000BF92CF92DF92FF920F931F93CF93DF934C
:105880006C01EB018A010E948E2DF82E811123C03C
:105890000115110539F0F80180819181C81BD90BE0
:1058A000C80ED91EB12CA12C2097A9F08091E80038
:1058B00085FD22C08091E8008B778093E800011578
:1058C0001105A1F0F80180819181A80EB91EB18265
:1058D000A08285E0F82E8F2DDF91CF911F910F913F
:1058E000FF90DF90CF90BF90AF9008950E948E2DD3
:1058F0008823D1F2F82EEFCF8091F100F601819349
:105900006F012197FFEFAF1ABF0ACECFFC01CB0189
:1059100020916103309162032617370790F00097BA
:1059200029F42091E8002E772093E80040E00097CA
:1059300051F4411108C08091E80082FF31C080E03D
:105940000895C901F3CF20915A032223A9F12530EC
:10595000A9F12091E80023FD2DC02091E80022FD4F
:10596000EACF2091E80020FFE2CF3091F3002091B0
:10597000F200009719F02830310558F041E0283046
:10598000310509F040E02091E8002E772093E800EF
:10599000CECF41914093F10001972F5F3F4FE9CF68
:1059A00080915A03882341F0853041F08091E800CE
:1059B00083FFC1CF81E0089582E0089583E00895D8
:1059C000FC01CB0120916103309162032617370758
:1059D00090F0009729F42091E8002E772093E800BA
:1059E00040E0009751F4411108C08091E80082FF27
:1059F00032C080E00895C901F3CF20915A032223D9
:105A0000B1F12530B1F12091E80023FD2EC02091A5
:105A1000E80022FDEACF2091E80020FFE2CF30919C
:105A2000F3002091F200009719F02830310558F06A
:105A300041E02830310509F040E02091E8002E7760
:105A40002093E800CECF44914093F1003196019726
:105A50002F5F3F4FE8CF80915A03882341F0853074
:105A600041F08091E80083FFC0CF81E0089582E09B
:105A7000089583E00895982F973028F08F708093D1
:105A8000E90081E008959093E900242F762F50E0FB
:105A9000981731F07091EC002091ED005091F000DA
:105AA00021FD02C09F5FE8CF3091EB003E7F309335
:105AB000EB003091ED003D7F3093ED003091EB0035
:105AC00031603093EB007093EC002093ED00509325
:105AD000F0002091EE0027FDE5CF80E00895809151
