:100000000C94060A0C944D0A0C944D0A0C944D0A5B
:100010000C944D0A0C944D0A0C944D0A0C944D0A04
:100020000C944D0A0C944D0A0C9412170C94321C2B
:100030000C944A260C944D0A0C944D0A0C944D0ACB
:100040000C944D0A0C944D0A0C944D0A0C944D0AD4
:100050000C944D0A0C94E5170C944D0A0C944D0A1F
:100060000C944D0A0C944D0A0C944D0A0C944D0AB4
:100070000C944D0A0C944D0A0C944D0A0C944D0AA4
:100080000C944D0A0C944D0A0C944D0A0C944D0A94
:100090000C944D0A0C944D0A0C944D0A0C944D0A84
:1000A0000C944D0A0C944D0A0C944D0AF100F30087
:1000B000F200F400F50001510601635DC45CC35C0D
:1000C000C55CA900AA000151C65C005C01048E96C3
:1000D0006E773EFE7E5F1DB8F2664EFF5D19B0C2C0
:1000E0000469542AD62EBFDD19B0C3E529B1E02337
:1000F000A5A9B1C10082674C1A978D795120C70616
:100100008E7C7C7A764FFD5930E2460E9EBEDF1D16
:100110009991A0A5A1A9D022C6EF5C1B958990A2B8
:10012000A7CCFB5528B3E44AF76C3BF46A562EDEA5
:100130001F9DB8D3058892A6CE1EBEDF1D99B0E2E2
:1001400046EF5C07115D980B9D9497EE4E45336B1F
:1001500044C729562730C6A7D5F256DFB43862CB3C
:10016000A0B6E30F84062405656F7689B57741272D
:1001700082666582CCD5E620D52717C5F803237C97
:100180005F64A51DC1D636CB4CD4DB66D78BB19945
:100190007E6F4C364006D6EBD7A2E4F495515A5404
:1001A00096D55344D78CE0B94068D218E9DD9A233C
:1001B0009248EE7F43AFEA7738848C0A72AF69F8D1
:1001C000DDF12483A3F84ABFF59413DBBBD8B4B3A5
:1001D000A0FB4550603059123171A2D313E7FAE702
:1001E000CE0F63150B6B94BB378326059DFB4692A0
:1001F000FC0A15D10D7392D68C1B8CB8558ACEBDD6
:10020000FE8EFCED0912839182513123FBB40C76F2
:10021000AD7CD9B44BB26714099C7F0C18BA3BD69D
:100220008E142AE41B529F2B7DE1FB6A3302FAAC49
:100230005AF23E887EAED1F378E805D1E3DC21F6B0
:10024000E19ABD170ED9469B8803EAF666BE0E1BDF
:100250005049964097F1F1E480A66EE87734BF29C3
:100260004044C2FF4E98D39CA3322B76510409E739
:10027000A9D1A632B12353E247ABD6F5695C3E5F04
:10028000FAAE4520E5D244FF39326DFD27575CFDBB
:10029000F0DEC1B599E5F51C770175C56D5892F290
:1002A000B247000126967A30FFB7F0EF77C18A5D3A
:1002B000DCC0D129301E77387A94F1B87A7EEFA469
:1002C000D1AC314AF25D643DB2E2F00899FC70EEC7
:1002D00024A77EEE1E20697D44BF8742DF883B0C49
:1002E000DA42C904F94550FC838F116A72BC9995B2
:1002F000F0AC3DA73BCD1CE2887937115F39899579
:100300000A16847AF68AA428E4ED83803BB123A5FB
:100310000310F466EABB0C0FC5EC6C69C5D324ABC3
:10032000D42AB799887608A0A8957CD8386DCD597D
:1003300002514BF1B52B50E3B6BDD072CF9EFD6E8E
:10034000BB44C8248A77188A1306EF977DFA81F098
:1003500031E6FA77ED3106315B548A9F3068DBE293
:1003600040F84E73FAAB748B105813DCD2E678D198
:10037000322E8A9F2C58064827C5A95E8147894698
:1003800021910370A43E889CDA330ACEBC8B8ECFB9
:100390009FD3718043CF6BA95183763082C56A8524
:1003A0003911501A82DC1E1CD57DA9719933471969
:1003B00097B35AB1DFEDA4F2E62684A2289A9EDF15
:1003C000A66AF4D6FC2E5B9D1A2A2768FBC18321FE
:1003D0004B90E036DD5B314255A013F7D089537165
:1003E00099570929C5F321F8372F40F3D4AF1608E0
:1003F0003602FC77C58B049056B9C9679A99E80014
:10040000D386FF972D08E9B7B391BCDF45C6ED0F42
:100410008C4C1EE65B6E3830E4AAE395DEB9E49AB4
:10042000F5B2559A879BF66AB2F2779A31F47A312F
:10043000D11D04C07C32A29E9AF562F8278DBF516F
:10044000FFD3DF64373F2A6F763A7D77069E777F4A
:100450005EEB3251F916669A09F3B008A47096461D
:1004600030FFDA4FE91BED8DF8741F3192B373172B
:1004700036DB9130D688556B3477877AE7EE06C63F
:100480001C8C190C4846235E9C075CBFB47ED64F7B
:10049000749CE2C5508BC58B159060625729D013B0
:1004A00043A18088910044C74D1986CC2F2A755AE4
:1004B000FCEB972A70E378D891B04F9907A395EA9F
:1004C0002421D5DE512093270A3073A8FF8A97E9AB
:1004D000A76A8E0DE8F0DFECEAB46C1D392A622DB4
:1004E0003D5A8B65F890052E7E912C78EF8E7AC15F
:1004F0002FAC78EEAF2845064C26AF3BA2DBA3938A
:1005000006B53CA5D8EE8FAF25CC3F856848A962DB
:10051000CC978F7F2AEAE0150AAD6207BD45F84106
:10052000D836CB4CDB6EE63AE7DA15E9291E121015
:10053000A0142C0E3DF4BF394192750B257BA3CE40
:10054000399C1564C8FA3DEF7327FE262ECEDA6E6D
:10055000FD718EDDFE76EEDC125C02C53A4E4E4F2A
:10056000BFCA4015C76E8D41F110E04F7E977F1CCA
:10057000AE478E6BB12531B073C71B9779F980D325
:1005800066223007741EE4D08021D6EE6B6C4FBF1C
:10059000F5B7D909872FA914BE27D9725001D413F2
:1005A00073A6A751027525E1B345347DA88EEBF300
:1005B0001649CB4F8CA1B9368539755D0800AEEB75
:1005C000F6EAD7133A215A5F3084522695C914F2BD
:1005D00057556BB110C2E1BD3B51C0B7554C7112BC
:1005E00026C70DF951A43802057FB8F1724BBF71CF
:1005F0008914F37738D97124F30011A1D8D469276D
:10060000083735C9119D901C0EE71CFF2D1EE8927E
:10061000E11810957CE080F4964321F97521643847
:10062000DD9F1E9516DA561D4F9A53B2E2E418CBA1
:100630006B1A65EB56C63BE5FED8263F3A845972E5
:1006400066A2F375FFFB60B322AD3F2D6BF9EBEAB9
:10065000057CD88F6D2C989E2B93F15E46F08749D0
:10066000297368D77FF9F0E57DDB1D7519F3C45850
:100670009B1788A892E0BEBD8B1D8D9F5676ADAFAF
:1006800029E2D9D552F6B55635573AC8E15643193D
:1006900094D3049B6D35D80B5F4D198EECFA6491A1
:1006A0000A72202BBC1A4AFE8BFDBBED1B23EAAD60
:1006B0007282A1299971BDF095C103DD7BC2B23C64
:1006C0002854D368A472C86696E0D1D87FF8D126A2
:1006D0002BF7ADBA55CA15B932C3E588978E5CFBC6
:1006E00092258BBFA245557AA76F8B575BCF0ECB58
:1006F0001DFB208277A88CCC16CE1DFADECC0B62B7
:10070000FECCE1B7F0C381647340A0C24D8911757E
:100710003355338DE84AFDEA6E300BD7312CDE4776
:10072000E3BFF85542E27F59E517EF99346991B17B
:10073000238E20872DA8FED58AF3843AF037E4096A
:100740000054EE674993E48170E3904DEFFE41B7AA
:10075000997BC183BA62126F7DDE6BAFDA16F955F1
:1007600051EEA60C2B02A3FD8DFB3017E46FDF3694
:1007700071C4CA872548B047ECEAB4BFA54D9B9F1A
:100780000293C4E3E4E8422D6881150AEB845BD64A
:10079000A874FB7D1DCB2CDA462A7662CEBC5C9E0B
:1007A0008BE7CFBE78F57CEBB33A9CAA6FCC72D1C5
:1007B00059F21123D63F48D1B7CEB0BFCBEA80DE85
:1007C00057D45E972F75D1508E802C6679BF724BAF
:1007D000BD8A816CD3E101DCD21526C536DA2C1A2C
:1007E000C02794EDB79B850B5E8097C5EC4FEC88D6
:1007F0005D50073547DC0B3B3DDD60AFA85D8138C0
:1008000024255D5C15D1DEB3ABEC0569EF83ED57B4
:1008100054B8646411163269DA9F2D7F36BB445A8E
:1008200034E87FBF03EB007F59682279CF736C2CCB
:1008300029A7A15F38A11DF02053E01A6314587155
:1008400010AA080C3E161A6022827FBAA443A0D0D8
:10085000AC1BD56B64B51493319E5350D05766EEE4
:100860005A4FFB032A695876F183F74EBA8C420639
:10087000605D6DCE6088AEA4C3F103A54B98A1FF67
:1008800067E1ACA2B862D76FA031B4D277AF2110C4
:1008900006C69AFF1D09170E5FF1AA54344B458A0C
:1008A0008763A6DCF9243067C6B2D6613369EE509F
:1008B000615728E77EEEEC3A5A734EA88DE418EAA9
:1008C000EC4164C8E2E866B62DB6FB6A6C16B3DD8F
:1008D0004643B973006A71ED4E9D251AC33C4A9593
:1008E000159935811402D6989BECD8233B8429AF07
:1008F0000C9983A69A344FFAE8D03C4BD0FBB668EB
:10090000B89E8FCDF7602D7A22E57DAB651B95A74C
:10091000A87FB677477B5F8B1272D0D491EFDE1938
:10092000503CA78BC4A9B323CB76E681F0C1048FDA
:10093000A3B8545B97AC19FF3F55272FE01D429B8E
:1009400057FC4B4E0FCE98A9435703BDE7C894DF21
:100950006E367332B4EF2E857A6EFC6C1882753564
:100960009007F3E49F3EDC68F3B5F3198092069993
:10097000A2E86FFF2E7FAE42A45FFBD40E812BC393
:1009800004FF2BB3744E365B9C1500C6472BE88BD7
:100990003DF19C039A587F9B9CBF854979352E5623
:1009A0007B411439478326AA078998111B86E77370
:1009B0007AD87D786153E979F5368D449284F913BC
:1009C00050583BA46A3665498E3C0EF16FD284C400
:1009D0007E8E3F39AE7C84F163378E3CCC3E4481C1
:1009E00045F14BB9ED6B365DBB20601A0FA3AA55DC
:1009F000773AA9AE374DBAB8866BBC0850F6CCA48E
:100A0000BD1D4072A586FAE210AE3D584B97F343E8
:100A100074A99EEB21B701A4869397EE2F4F3B86D6
:100A2000A1416F412690785C7F30384B3FAAECEDB6
:100A30005C6F0EAD4387FD9335E601EF412690993B
:100A40009EFB195BADD2918AE046AF65FA4F84C137
:100A5000A12DCF458BD38550557CF96788D44EE9BD
:100A6000D76B6154A1A4A6A2C2BF309C409F5FD7A0
:100A7000692B24825ED9D6A712541AF7559F765057
:100A8000A99584E66B6DB59654D6CDB3A19B46A7C8
:100A9000944DC494B498E3E1E234D533160754CDB1
:100AA000B77753DB4F4D469DE9D49C8A36B6B838AC
:100AB000266C0EFF9C1B438B80CCB93DDAC7F18AB4
:100AC000F26DB8D7742F7E1EB7D34AB4ACFC794808
:100AD0006CBC96B69446572DB0A3FC1EB9526085E7
:100AE0002D41D043011E1CD57DFCF3960DC7CB2AAA
:100AF000299A93DD882D375DAAFB4968A09C508612
:100B00007F685657F9791839D4E001843361CAA552
:100B1000D2D6E4C98A4A23444EBCF0DC24A1A0C446
:100B2000E2073C10C4B5254B6563F480E7CF61B1A3
:100B3000718221872CF59100320CECA9B59A74854D
:100B4000E3368F764F9C6DCEBCAD0A4BED7604CB71
:100B5000C3B9339E019396697DC5A245799B045C18
:100B60008409ED8843C7AB931426A140B5CE4EBF90
:100B70002A42853E2C3B54E8121F0E9759B2278912
:100B8000FAF2DF8E6859DC06BCB6850D0622ECB1A0
:100B9000CBE504E63DB3B04173083F3C588663EBB8
:100BA00050EE1D2C3774A9D318A3476E9354AD0A89
:100BB0005DB82A555D78F6EEBE8E3C7669B940C2C6
:100BC00034EC2AB9ED7E20E48D0038C7E68F44A8C6
:100BD00086CEEB2AE990F14CDF32FB731B6D921E3F
:100BE00095FEB4DB65DF4D23548948BF4A2E70D68D
:100BF000D762B43329B13A334C236DA676A521636D
:100C000048E6905DED90950B7A84BEB80D5E630C5E
:100C100062264C145AB3AC23A474A76F333005601A
:100C20000142A028B7EE1938F164808243E14127E0
:100C30001F1F90547AD5232ED13DCB28BA587FDC84
:100C40007C9124E92851836EC5562142EDA056229D
:100C5000A140806BA8F794CA136B0C39D9FDE9F356
:100C60006FA69EFC708AB3BC593C1E1D6CF97CAF0C
:100C7000F9887195EB5700BD9F8C4FE12483C52205
:100C8000EAFDD30CE217187C6A4CDE77B4539B4C18
:100C900081CD2360AA0E25739C02793230DF74DF88
:100CA0007519F4A5145CF77AA8A591847C600306F5
:100CB0003BCD50B6279CFEB1DDCCD3B05924B2CA8F
:100CC000E21C81229D078F8EB9BE4EFAFC3965BAAF
:100CD000BF9D12375E977EF389F55DF5E3098C625F
:100CE000B5209D0C538A681BD28F75175DD4E5DA49
:100CF000756219146A262DEBF8AF37F06CA455B164
:100D0000BCE233C09ACAB011494F689B3B6B3CCCE4
:100D100013F6C785616842AEBBDDCD4516291DEAD5
:100D2000DBC803943CEE4F8211C3EC28BD970599B4
:100D3000DED7BB5E221FD4EB64D992D985B76A0592
:100D40006AE42441F1CDF0D83FF89E0ECD0B7A70C5
:100D50006B5A750A6A3388EC17750870102F24CF08
:100D6000C4E942006194CA1F3A7606FAD24881F07B
:100D700077600345D961F4A46F3DD930C3046B5447
:100D80002AB7EC3BF44BF5685226CEFF5D1991A0D3
:100D9000A3A5A9B1E023C40A774DF95120A3A5A9C1
:100DA000B1C10082868E7F5D1991A0A3C4EB540B64
:100DB000756852078C9A978D79706246EF5C1B9527
:100DC000897141E121A1A1A1C002674C1AB6CFFDF2
:100DD000785324ABB5C9F16023A5C812876D5813A9
:100DE000858892876D5832C70C9A97ACDA36EE5EDA
:100DF0003EDF1DB8F2662FBDF87247ED58138588A7
:100E000092878C7B550990A2C6EF3DF85324ABD452
:100E10002AB7EC5A36EE5E3EDF3CFA764FFD59308B
:100E2000E246EF3DF853056931C10082868E7F5D51
:100E300019B0E227CCFB744B148B948B756833C5C7
:100E40000892878C9AB6CF1CBAD70D98B2E62FDCE1
:100E50001B9589716023C40A968F9CBAF66E3FFC7D
:100E60005B15A8D226AFBDF872662FDC1BB4CB147D
:100E70008B94AAB7CDF951018082866F3DD930E2BB
:100E800027CCFB744B14AAB7CDF97043046B35C95A
:100E9000F16023A5C8F3450892876D5832E62FBD4F
:100EA000F872664E1EBEFE7E7E7E5F1D9991A0A3E7
:100EB000C40A774D1893A4ABD40B754910A2C6EFA2
:100EC0003DF85324ABB5E833E44A16AEDE1FBCDB75
:100ED00015A8B3C5087345E931C1E121A1A1A1C09D
:100EE00002866F5C3AD70D9893A4CA16AEDE1F9D9A
:100EF00099B0E246EF3DF872470C9AB6CFFD591112
:100F0000A0A3A5C8F3450892876D39F043048A96DB
:100F1000AEDE3EDF1D9991A0C2066F3DF872470C10
:100F20009A978D989385887345E931E023A5A9D0D8
:100F300003848A96AEDE1FBCDB15A8D226CEFF5DE9
:100F40001991818082672DD813A4ABD40B94AAB7D2
:100F5000CDF95120A3A5C8F345E95022C6EF5C3A6C
:100F6000D70D9893858873644AF74DF95120A3C42F
:100F70000A96AEDE3EFE7E7E7E5F3CFA764FFD78C0
:100F800072662FBDD930C3E54812878C7B5528D2B5
:100F9000078C9A97ACDA178D795120A3C4EB540BC8
:100FA000948B94AAD62EBFFC5B15A8D226AFDC1B6F
:100FB000B4EA37EC3BF46A37CD1893856931C1E167
:100FC00040E325C812878C9AB6CFFD5911A0C206FE
:100FD0008E7F5D38F2470C7B746A37EC5A36EE3FF1
:100FE000FC7A764F1C9B95897141006344EB542A2F
:100FF000D60F9CBAD70D9893856931C10082868E31
:101000009EBEDF3CFA572CDA36EE3FFC5B15897149
:10101000410082868E7F5D38F247ED5813A4CAF7EF
:101020004DF95101806344EB542AD62EBFDD19914E
:10103000A0A3A5A9B1E042068E7F5D1991A0A3C42B
:101040000A968F7D7872470C7B746A562EDE1FBC21
:10105000FA570D7951016121A1C0E325A9B1C1E180
:101060004002674C1A978D9893A4ABD42AD60F9C54
:101070009BB4CB14AAB7CDF95120A3C4EB35C9F169
:101080006042068E7F7C7A766E3FFC7A766E5E3E9C
:10109000FE7E5F3CDB15897141E121C0E344EB54E6
:1010A0002AB7CDF9706227ADD832C70C7B744B14C8
:1010B000AAB7EC3BD528D2076D39D120C2E74C1A2C
:1010C000978D98B2C70C5928F39B1E0F057F3F1FC1
:1010D000643214643214783C1E1E140A05000101A7
:1010E00001010101010101020202020202020202E7
:1010F00003030303030303030404040404040405B7
:10110000050505050606060606070707070708087A
:101110000808090909090A0A0A0B0B0B0C0C0C0D2B
:101120000D0D0E0E0E0F0F0F1010111111121213C4
:10113000131414151516161717181819191A1A1B3F
:101140001B1C1D1D1E1E1F2020212222232424259E
:101150002626272829292A2B2C2D2D2E2F303132D7
:1011600032333435363738393A3B3C3D3E3F4041E7
:1011700042434445464748494A4C4D4E4F505153CF
:1011800054555658595A5B5D5E5F61626465666886
:10119000696B6C6D6F7072737577787A7B7D7E800A
:1011A00082838587888A8C8E8F91939596989A9C56
:1011B0009EA0A2A3A5A7A9ABADAFB1B3B5B7BABC6A
:1011C000BEC0C2C4C6C9CBCDCFD1D4D6D8DBDDDF3B
:1011D000E2E4E7E9EBEEF0F3F5F8FAFDFF22232570
:1011E0002628292A2C2D2F3032333536383A3B3DEC
:1011F0003E4042434547494A4C4E5051535557593A
:101200005A5C5E6062646668696B6D6F7173757756
:10121000797B7D7F81838587898A8C8E9092949655
:10122000989A9C9E9FA1A3A5A7A8AAACAEAFB1B364
:10123000B4B6B8B9BBBCBEBFC1C2C3C5C6C7C9CAB4
:10124000CBCCCDCED0D1D2D2D3D4D5D6D7D7D8D976
:10125000D9DADADBDBDBDCDCDCDCDCDDDDDDDDDCD4
:10126000DCDCDCDCDBDBDBDADAD9D9D8D7D7D6D5E6
:10127000D4D3D2D2D1D0CECDCCCBCAC9C7C6C5C3A8
:10128000C2C1BFBEBCBBB9B8B6B4B3B1AFAEACAAF5
:10129000A8A7A5A3A19F9E9C9A98969492908E8CA5
:1012A0008A89878583817F7D7B79777573716F6D7F
:1012B0006B6968666462605E5C5A59575553515059
:1012C0004E4C4A4947454342403E3D3B3A3836350D
:1012D0003332302F2D2C2A292826252322050109D7
:1012E00002A10185020901A10005091901290815BA
:1012F00000250195087501810205010930093115A4
:1013000081257F95027508810609381581257F950D
:101310000175088106050C0A38021581257F9501A3
:1013200075088106C0C005010980A1018503190166
:101330002AB700150126B700950175108100C00578
:101340000C0901A101850419012AA002150126A09A
:1013500002950175108100C005010906A10105076C
:1013600019E029E71500250195087501810295010D
:10137000750881010507190029FF150026FF009552
:101380000675088100050819012905950575019163
:1013900002950175039101C009023B00020100A002
:1013A00032090400000103010100092111010001BB
:1013B0002240000705810308000109040100010320
:1013C000000000092111010001227B0007058203B2
:1013D000200001120100020000000843506F4D017F
:1013E00000010200010C034D006F007500730065E1
:1013F000000000120350006C006F006F0070007955
:101400000043006F000000040309040011241FBE04
:10141000CFEFDAE0DEBFCDBF04B603FE27C0809178
:101420006E0390916F03A0917003B09171038730A8
:10143000904BA740B04BD1F410926E0310926F0303
:10144000109270031092710314BE84B7877F84BF1B
:101450000FB6F894A8958091600088618093600031
:10146000109260000FBEE0E0F8E3099511E0A0E003
:10147000B1E0E8E6F1E602C005900D92A637B107AB
:10148000D9F723E0A6E7B1E001C01D92AE36B2075E
:10149000E1F70E9471260C946D300C940000E8ED89
:1014A000F0E080818E7F80831092E2001092DA005B
:1014B0001092E100A0EEB0E08C9181608C9380816D
:1014C0008F77808319BCA7EDB0E08C918E7F8C93D1
:1014D00080818F7E80831092520308952091E400D2
:1014E0003091E50095E6A9012091EC00822F8170F2
:1014F00020FF06C08091E80080FF06C080E00895CC
:101500002091E80022FD1AC080915F03882389F0B2
:10151000853089F08091EB0085FD0FC02091E400BB
:101520003091E50042175307F9F29150E1F684E05B
:10153000089582E0089583E0089581E00895EF9290
:10154000FF920F931F93CF937C018B010E946E0A31
:10155000C82F811117C08091E80085FD0BC08091D4
:10156000E8008E778093E8000E946E0A882399F342
:10157000C82F08C0F70181917F018093F1000150CD
:10158000110949F78C2FCF911F910F91FF90EF9088
:1015900008958091610387FF13C08091E80082FF66
:1015A00006C08091E8008B778093E80004C08091AA
:1015B0005F038111F2CF089580915F038823D9F3EF
:1015C0008091E80080FFF8CF8091E8008E77ECCF23
:1015D000982F9093E900242F762F50E0891731F04F
:1015E0007091EC002091ED005091F00021FD07C0BA
:1015F0009F5F973071F78093E90081E00895309103
:10160000EB003E7F3093EB003091ED003D7F309357
:10161000ED003091EB0031603093EB007093EC0003
:101620002093ED005093F0002091EE0027FDE0CFD5
:1016300080E00895CF92DF92EF92FF920F931F9375
:10164000CF93DF93C8EDD0E088818F7E8883E7ED6C
:10165000F0E080818160808384E082BF81E08093BC
:10166000520388818E7F888302EE10E0F801108299
:101670001092DA0081EEC82ED12CF60110828881FA
:101680008F77888388818068888388818F7D88832D
:1016900019BC10925F031092600310925E031092C7
:1016A0005D0390EEE92EF12CF70180818B7F808322
:1016B00088818160888342E060E080E00E94E80ADF
:1016C000F60180818E7F8083F80180818160808334
:1016D000808188608083F70180818E7F808388810C
:1016E00080618883DF91CF911F910F91FF90EF90E0
:1016F000DF90CF900895FC01CB01209167033091DA
:1017000068032617370790F0009729F42091E80026
:101710002E772093E80040E0009751F4411108C073
:101720008091E80082FF31C080E00895C901F3CFC5
:1017300020915F032223A9F12530A9F12091E8002F
:1017400023FD2DC02091E80022FDEACF2091E80082
:1017500020FFE2CF3091F3002091F200009719F0C2
:101760002830310558F041E02830310509F040E0DB
:101770002091E8002E772093E800CECF419140934E
:10178000F10001972F5F3F4FE9CF80915F038823DE
:1017900041F0853041F08091E80083FFC1CF81E0C6
:1017A000089582E0089583E0089580915403089598
:1017B0009C014FB7F89480914B0390914C03A091FA
:1017C0004D03B0914E034FBF821B930B08959C01B4
:1017D000FC0132968FEF90E04191461751F08F3F18
:1017E00019F4411101C0892F9F5F9630A9F78F3FEF
:1017F00009F40895280F311D87FD3A95F901628398
:10180000089520914803309149032817390771F052
:101810009093490380934803E0914603F091470376
:10182000309721F00084F185E02D099408952091EE
:101830004403309145032817390771F0909345030D
:1018400080934403E0914603F0914703309721F0E1
:101850000680F781E02D09940895DC01E0914603AC
:10186000F0914703309739F082E08C930480F58142
:10187000E02DCD0109940895E0914603F0914703CE
:10188000309721F00190F081E02D099480E00895D7
:10189000FA0181110994FB01FDCF089580913F0366
:1018A000982F9E7F29F48170826080933F03089572
:1018B0008C33E8F381708A63F8CF8F929F92AF9256
:1018C000BF92CF92DF92EF92FF920F931F93CF932D
:1018D000DF93D82EC62EE901E42FF0E0E352FF4E4D
:1018E000611113C04491942FE42FE98348839A83B4
:1018F000DF91CF911F910F91FF90EF90DF90CF90EC
:10190000BF90AF909F908F900895062F10E0E491C4
:1019100086E0D89E700111242FEF30E0C701B90195
:101920000E94E52D8D2D90E0880F991FF5E5F69F1B
:10193000A001F79F500D1124841B950B982F990F30
:10194000890FA901401B510BE49FD001E59FB00D09
:1019500011244B2FC89E60011124CD2CDD24590188
:10196000AC18BD08EA9D6001EB9DD00C11249D2DA3
:101970004901881A9108809E5001819EB00C909E6A
:10198000B00C1124AB2CBB242A193B09E29F800127
:10199000E39F100D112463307105D1F08CEFE81630
:1019A00083E0F80670F461307105B1F062307105C2
:1019B000B9F08FEFE816F10408F097CF9B2F412F75
:1019C00094CF6430710579F066307105B9F38DCF2D
:1019D0004D2D9E2FEB2F89CF4E2FED2D9B2F85CF99
:1019E000912F4E2FF7CF9E2FE12F7FCF40911103E4
:1019F0008D3E59F48091120387FF0DC0109212039F
:101A000041110BC01092090308C08E3E81F48091F1
:101A1000120318169CF3442381F0809113039091D4
:101A20001403892B09F05AC01092080308958F3EC1
:101A300049F447FFF0CF10921103809112038111F6
:101A4000ECCFE0CF803F19F41416ACF3E4CF9091C3
:101A50001303893F29F41916F4F610921303DBCF10
:101A60008A3F19F497FFD7CFF8CF909114038B3F9B
:101A700029F497FFD0CF10921403CDCF8C3F19F4E7
:101A80001916CCF3C8CF9FE0980F983090F4815F7F
:101A9000990B21E030E0B90102C0660F771F8A95EB
:101AA000E2F7CB0180959091100389238093100376
:101AB000B2CF8D3F31F480910A038E7F80930A0369
:101AC000AACF8E3F21F480910A038D7FF7CF8F3FFD
:101AD00009F0A1CF80910A038B7FF0CF0895809108
:101AE0000A0380FD16C081FD16C082FD16C08091DC
:101AF00008038823A1F0883280F428E0829FC00187
:101B0000112468E270E00E94F92D862F672B39F0CE
:101B1000089582E0089584E0089588E0089581E0C2
:101B2000089580910A0380FD14C081FD14C082FDD8
:101B300016C080910903882381F0843180F422E368
:101B4000829FC001112464E170E00E94F92D862F6C
:101B500008958CE0089589E1089585E0089582E371
:101B600008958D3E31F40E94910D8195809312036A
:101B700008958E3E19F40E94910DF8CF8F3E31F4F6
:101B80000E94910D8195809311030895803F19F46F
:101B90000E94910DF8CF893F29F40E946F0D809328
:101BA000130308958A3F21F40E946F0D8195F7CFAA
:101BB0008B3F31F40E946F0D81958093140308953B
:101BC0008C3F19F40E946F0DF8CF9FE0980F98306A
:101BD00070F4815F990B21E030E001C0220F8A95FB
:101BE000EAF780911003822B8093100308958D3FB4
:101BF00031F480910A03816080930A0308958E3F37
:101C000021F480910A038260F7CF8F3FB9F780916A
:101C10000A038460F1CF80E008959091CE0192FF95
:101C200006C0282F28712830F9F4877F846093FF3D
:101C300006C0282F28712831F1F4877E8461209115
:101C4000CF0120FF06C0382F38713830D9F4877F94
:101C5000816021FF06C0282F28712831D1F4877EAA
:101C6000816194FD877E0895282F24712430F9F630
:101C70008B7F8860DCCF282F2471243101F78B7E85
:101C80008861DDCF382F3171313019F78E7F886050
:101C9000E0CF282F2171213121F78E7E8861E1CF9D
:101CA000CF93DF93EC01803E910509F460C050F5BD
:101CB0008133910509F4A6C090F48932910509F4A5
:101CC0009AC08A9709F4A5C0C130D10509F462C051
:101CD000CE010497813A910508F055C05BC0893365
:101CE0009105F1F182389105D9F1C59709F47CC0CD
:101CF000C83AD10508F094C0C53AD10528F3A49795
:101D0000D06448C0843E910509F453C068F4823E13
:101D10009105E1F1833E910509F440C0CE01805E5A
:101D20009109089780F536C0863E910509F44CC0AC
:101D3000873E910509F44DC0811522E5920708F010
:101D4000AAC0811531E5930708F0FAC08F3F9105CD
:101D500011F008F074C08D3E910550F2D0651AC0A4
:101D60008091CE018370B1F0C0EED0E013C08091BD
:101D7000CE0180FD12C19091CF0190FF0BC0C3EE48
:101D8000D0E084FF07C0D0E0C0E004C08091CE0165
:101D900082FDF5CFCE01DF91CF9108958091CE01E4
:101DA00082FDFEC09091CF0190FDDECF84FFF2CF87
:101DB000EACF8091CF0181FFEDCF8091CE01C7EEB8
:101DC000D0E084FDE0CFE6CF8091CE0183FDF7CF58
:101DD000E1CF8091CE0183FDE6C09091CF0191FFCC
:101DE000E5CFC4EED0E0D6CF8091CE0185FFD2CF33
:101DF000C9E2D0E0CFCF8091CE0185FFCBCFC5E344
:101E0000D0E0C8CF8091CE0186FFC4CFCAE2D0E037
:101E1000C1CF8091CE0186FFBDCFC1E3D0E0BACF64
:101E2000CF3BD10508F07ACFC85AD0E0CC0FDD1FE8
:101E3000C55EDE4F0990D881C02DD464ABCF81152B
:101E400040E5940760F4C11580E4D80708F075C038
:101E5000CE019A9581159F4108F49CCF94CFF4E070
:101E600096958795FA95E1F783702C2F2695269500
:101E7000237040E2249F90011124382B8C2F837013
:101E8000C1E0D0E002C0CC0FDD1F8A95E2F7C22B83
:101E9000D32BDC687FCFC11586E5D80730F5C11597
:101EA00095E5D90708F060C0C11524E5D207C0F454
:101EB0009C2F969596959E0123703327C115D34587
:101EC00008F043C0C1E0D0E002C0CC0FDD1F2A956E
:101ED000E2F720E2929FC0011124C82BD92BD9CF61
:101EE000DC2FCC27C46FD06A55CFC1153AE5D30794
:101EF00088F4C11549E5D40708F041C0CE019855D2
:101F00008F3F910511F008F03ECFDC2FCC27C06F3A
:101F1000D06A40CFCE0190568115904208F033CF61
:101F20008D2F8F710E940D0E90E0982F88278827A3
:101F30009F719C012C2BE90120C0DF70D06A2ACF51
:101F4000D82FCC27C16FD06A25CFC1E0D0E002C026
:101F5000CC0FDD1F2A95E2F730E2939FC0011124D8
:101F6000C82BD92BDA6816CF8C2F0E940D0EC82FE4
:101F7000D0E0DC2FCC27CC27DF71D0620BCF8C2FA9
:101F80008F700E940D0E34E0D695C7953A95E1F713
:101F9000CF70DC2FC82FD069FDCEC9E3D0E0FACED8
:101FA000C2EED0E0F7CEC6EED0E0F4CE8091C20112
:101FB00081111092C20108958091C1019091C001D8
:101FC000892B9091BF01892B809378019091C20158
:101FD000992391F0892B8093780120E08AE791E0A2
:101FE000FC013081019631112F5F31E08038930779
:101FF000B9F721110E94D60FE0914603F0914703F3
:10200000309731F00280F381E02D88E791E0099468
:1020100008958091BD0190918C01981301C008959D
:102020008F5F8770FACF8F929F92AF92BF92DF92AD
:10203000EF92FF920F931F93CF93DF938090CA018B
:102040009090CB01A090CC01B090CD014091C30104
:102050005091C4016091C5017091C601842A952AEE
:10206000A62AB72ACFE1D0E0E92EF12C082F10E004
:10207000DC2ED501C4010C2E04C0B695A79597950A
:1020800087950A94D2F780FD10C0219788F7D12C4C
:102090008D2DDF91CF911F910F91FF90EF90DF90E9
:1020A000BF90AF909F908F900895F701EC0FFD1FA8
:1020B00083E0EE0FFF1F8A95E1F7E00FF11FEE0FAF
:1020C000FF1FE455FF4F859194910E94500E019798
:1020D000E1F2DECFCF93DF93EC010E9413102D2F9E
:1020E000280F3327331FF90183E0EE0FFF1F8A9576
:1020F000E1F7EC0FF11DEE0FFF1FE455FF4F859147
:102100009491DF91CF910C94500EE92FEE0FEE0FCA
:10211000EE0FE80F982F9770E695E695E69585E027
:10212000E89FF0011124EF57FE4F50E040E080E0BF
:10213000219130E0092E02C0369527950A94E2F7E6
:1021400021703327042E01C0220F0A94EAF7822B54
:102150004F5F5F4F4530510559F70895990F990F1B
:10216000990FE92FE80F877041E001C0440F8A956D
:10217000EAF7E695E695E69585E0E89FF0011124FB
:10218000EF57FE4F30E020E070E05191DF011197F2
:10219000CB01022E02C0969587950A94E2F78170D2
:1021A00081958527842385278C932F5F3F4F25308A
:1021B000310559F70895FC01808191810E946A10D0
:1021C000282F892F8F70392F32953F70903C80F4E3
:1021D0003A30B0F4343020F4323090F480E0089596
:1021E0003630E1F781E0283E88F0213FB9F70EC094
:1021F0003C3011F03F3091F786958695869508958D
:1022000081E0203F39F018F4283E40F70895243F3C
:1022100029F7FCCF0895882341F080959091C10162
:1022200089238093C1010C94DC0F0895882339F031
:102230009091C101892B8093C1010C94DC0F08950A
:102240002F923F924F925F926F927F928F929F92C6
:10225000AF92BF92CF92DF92EF92FF920F931F93B4
:10226000CF93DF9300D000D0CDB7DEB72C01FB01B8
:102270003A0129833A830B831C8317019601850158
:102280007401898C9A8C808191814816590614F4C6
:1022900051824082D3018D919C91119784159505AF
:1022A00014F44D925C92D301AD90BC90C080D1806B
:1022B000C5018C199D098A309105ECF163E070E04D
:1022C0000E94F92D6C0D7D1D461657060CF08EC030
:1022D000AB81BC818C91882309F483C0D7018D9197
:1022E0009C91DC01AA0FBB1FA20FB31FAD92BC9241
:1022F000D7018D919C9111978E3191050CF06AC098
:1023000001968D939C9340815181D3018D919C9135
:10231000841B950B97FD019695958795840F951FC6
:1023200091838083D3018D939C93A981BA811C9260
:10233000AB81BC811C92AB8DBC8D8C91882309F440
:1023400079C0D901225C3F4F90E080E04D915D91D2
:10235000840F951F2A173B07C9F76FE170E00E94B1
:10236000F92D9B01D4018C91882309F47DC0F101E2
:10237000A101425C5F4F90E080E061917191860F16
:10238000971F4E175F07C9F76FE170E00E94F92DA4
:10239000FB01C9018E1B9F0B63E070E00E94F92DC9
:1023A000CB018E0F9F1F0F900F900F900F90DF911A
:1023B000CF911F910F91FF90EF90DF90CF90BF9042
:1023C000AF909F908F907F906F905F904F903F90D5
:1023D0002F9008951D921C9281E0AB8DBC8D8C9343
:1023E00092CF81E0A981BA818C93A5CF6415750540
:1023F0000CF0A1CFA981BA818C918823B9F0D801C2
:102400008D919C91DC01AA0FBB1FA20DB31DCD9233
:10241000DC92D8018D919C9111978E3191050CF42D
:102420006FCF1D921C9281E0D401D9CF81E0AB81A6
:10243000BC81DACFD7016D917C916115710581F076
:10244000D90130E020E090E080E0261737070CF05B
:1024500086CF4D915D91840F951F2F5F3F4FF5CF34
:10246000D3012D913C917ECFD8016D917C91611566
:10247000710581F0F10150E040E090E080E0461706
:1024800057070CF083CFA191B1918A0F9B1F4F5F2B
:102490005F4FF5CF0190F081E02D7BCF90915F03EE
:1024A000943031F580934F03609350037093510340
:1024B00082E08093E9008FEF9091E800815095FDD4
:1024C00006C09AE69A95F1F700C08111F5CF809188
:1024D000E80085FF0DC050E040E063E070E08FE46D
:1024E00093E00E949F0A8091E8008E778093E80035
:1024F0000895BC0184E00C944E12BC0183E00C945E
:102500004E1222E02093E9002FEF3091E800215095
:1025100035FD06C03AE63A95F1F700C02111F5CF36
:102520002091E80025FF0BC050E040E066E070E03D
:102530000E949F0A8091E8008E778093E8000895BA
:10254000CF93DF93D82FC92F81E08093E9008FEFDD
:102550009091E800815095FD06C09AE69A95F1F7B2
:1025600000C08111F5CF8091E80085FF16C050E0D2
:1025700040E068E070E08D2F9C2F0E949F0A8091C0
:10258000E8008E778093E80088E0ED2FFC2FA5E52A
:10259000B3E001900D928A95E1F7DF91CF91089514
:1025A00081E08093E00080E28093D8001092C9001F
:1025B0008FE097E20197F1F700C0000087E090EB11
:1025C000DC0180936E0390936F03A0937003B0932C
:1025D000710388E19CE00FB6F894A89580936000A1
:1025E0000FBE90936000FFCF80913F0380FD0AC033
:1025F000EFE1F3E0118210821282339653E0EB3266
:10260000F507C1F7259A35B13F7D25B120624FB757
:10261000F8948FE193E0FC010196508168E025B9C0
:1026200057FF35B9550F000000C035B96A95B9F7A5
:1026300053E08B32950779F74FBF8FE292E0019715
:10264000F1F700C0000008950F931F93CF93DF931D
:10265000CFE1D3E0FE01118210821282339683E033
:10266000EB32F807C1F710E000E080911E03082E5E
:10267000000C990B081719078CF180911001082E96
:10268000000C990B801791074CF19E014091420379
:1026900060914103809140030E945D0C0F5F1F4FCA
:1026A00023960430110509F70E94F41280910F015E
:1026B00090911E03980F90931E0320911001280FF4
:1026C00020931001121614F493301CF0819580931E
:1026D0000F01DF91CF911F910F91089519821882F8
:1026E0001A82DCCFCF92DF92EF92FF920F931F936B
:1026F000CF93DF93FC018281DD24DA9480FD02C058
:10270000DD24D394CFE1D3E010E000E019821882F9
:102710001A8294E0E92EF12CC12C80911D038C0DBE
:102720008530CCF18370082E000C990B801791072F
:1027300091F4809142038E9DA0018F9D500D112434
:1027400055954795559547959E0160914103809118
:1027500040030E945D0CCD0CF1E0EF1AF108E9F6A0
:102760000F5F1F4F23960430110581F60E94F4126B
:1027700080911D0391E0D91214C0811110C083E033
:1027800080931D03DF91CF911F910F91FF90EF90E8
:10279000DF90CF90089587FFC6CF8C5FC4CF815064
:1027A000EFCF90E0019683709927EACFEF92FF92E6
:1027B0001F93CF93DF93EC018FE1E82E83E0F82E97
:1027C00010E08C8197014091420360914103810F99
:1027D0000E945D0C115C83E0E80EF11C1C3F89F740
:1027E0000E94F4129A818C8190FF08C08F5F8C83C5
:1027F000DF91CF911F91FF90EF9008958150F7CF17
:1028000090913F0390FF0CC0EFE1F3E08183608380
:102810004283339693E0EB32F907C1F70C94F4123C
:102820000895CF93DF9300D00F92CDB7DEB790918C
:102830003F0390FF0AC09E012F5F3F4F0E945D0C37
:102840004B8169818A810E9400140F900F900F9034
:10285000DF91CF910895CF93DF93EC01EFE3F3E0A5
:10286000438162818C810E9411148C818F5F8C83E3
:10287000DF91CF910895CF93DF93EC01EC81F0E0ED
:10288000E352FE4E4491EFE3F3E0628181810E94C6
:1028900011148C818F5F8C83DF91CF9108954F92BB
:1028A0005F926F927F928F929F92AF92BF92CF92E0
:1028B000DF92EF92FF920F931F93CF93DF93FC0170
:1028C0006280448081E08483EDEDF1E17490ECE579
:1028D000F2E1E491CBE2D3E09FE1E92E93E0F92E1F
:1028E0002FE3C22E23E0D22E32E0A32EBB24B394DA
:1028F00088248A94912C55245A94E7190E2F10E0BD
:1029000082E0861530F080914003888380914103F6
:102910008983411021C01B821A8297014A816981F3
:1029200088810E945D0C259683E0E80EF11CCC1690
:10293000DD0631F7DF91CF911F910F91FF90EF905E
:10294000DF90CF90BF90AF909F908F907F906F90CF
:102950005F904F900C94F4128B818823E9F08150A2
:102960008B83859DC00111246C8170E00E94E52D50
:10297000FB01FF27E352FE4E8491E82FE719E59D06
:10298000C0011124B8010E94E52D80914203689F87
:10299000B00111247A83C1CF0E947B2EAC019091AB
:1029A0004203969591589A9D90019B9D300D11245C
:1029B000232F3327421753070CF0AFCF82E0861541
:1029C00088F40E947B2EB4010E94F92D88830E9416
:1029D0007B2E209141032695622F70E00E94F92DF5
:1029E000280F29831A8280914203893C20F088ECC9
:1029F0008C838B8392CF8431D8F784E1F9CF0F9306
:102A00001F93CF93DF938B01D82FC92F0E944E0CB9
:102A1000A8016D2F7C2F88E090E0DF91CF911F916E
:102A20000F910C94BE2EEF92FF920F931F93CF93B2
:102A3000DF9300D000D000D00F92CDB7DEB7082FC3
:102A4000F62E142FE22E80913F0380FF2AC0E82F3C
:102A5000E695F0E0E95AFE4F908190931B038E7F3C
:102A6000823061F59E012F5F3F4F802F0E945D0CE9
:102A70004B8169818A810E94001400934003F09287
:102A8000410310934203EE2061F080913F03909147
:102A90004003A0914103B0914203BC01CD010E94CB
:102AA000FF1427960FB6F894DEBF0FBECDBFDF919F
:102AB000CF911F910F91FF90EF900895923019F4EC
:102AC00010914203DACF963019F400914003D5CF2C
:102AD000993099F6FACFEFE3F3E0438121E1421B0D
:102AE00008F440E021E0628181810C941315EFE34A
:102AF000F3E0438121E1420F08F44FEF21E06281CE
:102B000081810C941315EFE3F3E0628121E1621BF4
:102B100008F460E021E0438181810C941315EFE318
:102B2000F3E0628121E1620F08F46FEF21E043815D
:102B300081810C941315EFE3F3E0818121E043815F
:102B4000628188500C941315EFE3F3E0818121E05A
:102B500043816281885F0C941315CF93DF9300D07B
:102B600000D0CDB7DEB780914303882319F08150A0
:102B70008093430380913F0390914003A0914103D0
:102B8000B091420389839A83AB83BC83BC01CD019E
:102B90000F900F900F900F90DF91CF910C94FF1436
:102BA000CF93DF9300D000D0CDB7DEB78091430341
:102BB000833018F48F5F8093430380913F0390919B
:102BC0004003A0914103B091420389839A83AB8370
:102BD000BC83BC01CD010F900F900F900F90DF913F
:102BE000CF910C94FF14CF93DF9300D000D0CDB7DA
:102BF000DEB7EFE3F3E083E0808311828FEF82831F
:102C00008383148280819181A281B38189839A8395
:102C1000AB83BC83BC01CD010F900F900F900F9040
:102C2000DF91CF910C94FF1481E08093D201409109
:102C3000D2015091D3016091D4017091D5018FE000
:102C400090E00E94BE2E40E050E0BA0183E190E0A7
:102C50000C94BE2ECF9384E090E00E94982EC82F53
:102C600082E290E00E94982E982F8C2FCF910895A9
:102C700069EE7EEF90E080E00E94CA2E60E082E084
:102C800090E00E94AC2E60E083E090E00E94AC2EC9
:102C90001092C3011092C4011092C5011092C60196
:102CA00060E084E090E00E94AC2E60E082E290E080
:102CB0000E94AC2E60E085E090E00E94AC2E60E0C7
:102CC00086E090E00E94AC2E6FEF87E090E00E94DB
:102CD000AC2E40E050E0BA0188E090E00E94BE2EA9
:102CE00060E08DE090E00E94AC2E40E050E0BA0140
:102CF00088E190E00E94BE2E60E087E190E00E94B3
:102D0000AC2E40E050E0BA018CE190E00E94BE2E73
:102D100070E060E080E290E00E94CA2E40E050E067
:102D2000BA0188E190E00E94BE2E0C941416CF9355
:102D3000C091CF01C2FB992790F9981781F080FBD1
:102D4000C2F9C093CF016091CE0184E090E00E946F
:102D5000AC2E6C2F82E290E0CF910C94AC2ECF91F0
:102D6000089530E020E043E060E080E30E94032D1E
:102D700092E09A95F1F700C00895CF93C82F0E9472
:102D8000B1168C2F0E947F2D0E94972DC82F82E0B4
:102D90008A95F1F700C082E38A95F1F700C00E949E
:102DA000AF2D8C2FCF910895CF93DF93C82FD62FBF
:102DB000803511F01092F5020E94B1168C2F8068B8
:102DC0000E947F2D8D2F0E947F2DD82FC92F85E344
:102DD0008A95F1F7000087EC90E00197F1F700C0C9
:102DE00000000E94AF2D8D2F9C2FDF91CF91089571
:102DF000CF93DF93D82FC92F0E94B1168D2F9C2F10
:102E000064E670E00E94E52D615071096837710534
:102E100010F067E770E08FE00E94D416DF91CF9149
:102E20000C94AF2D1F920F920FB60F9211242F9377
:102E30003F934F935F936F937F938F939F93AF9342
:102E4000BF93EF93FF938091E10082FF09C08091CF
:102E5000E20082FF05C08091E1008B7F8093E1005A
:102E60008091DA0080FF23C08091D80080FF1FC0CE
:102E70008091DA008E7F8093DA008091D90019BCAE
:102E800080FF96C082E089BD09B400FEFDCF81E0DD
:102E900080935F0380915203811109C00E944F0A01
:102EA0000E941A0B8091E20084608093E20080917E
:102EB000E10080FF17C08091E20080FF13C0809185
:102EC000E2008E7F8093E2008091E2008061809337
:102ED000E2008091D80080628093D80019BC85E020
:102EE00080935F038091E10084FF26C08091E2001F
:102EF00084FF22C019BC82E089BD09B400FEFDCF69
:102F00008091D8008F7D8093D8008091E1008F7EE2
:102F10008093E1008091E2008F7E8093E2008091B7
:102F2000E20081608093E20080916003882309F4CD
:102F300044C084E080935F038091E10083FF27C059
:102F40008091E20083FF23C08091E100877F80931E
:102F5000E10082E080935F03109260038091E100C2
:102F60008E7F8093E1008091E2008E7F8093E2006B
:102F70008091E20080618093E20042E060E080E0C6
:102F80000E94E80A8091F00088608093F000FF9131
:102F9000EF91BF91AF919F918F917F916F915F91D1
:102FA0004F913F912F910F900FBE0F901F9018954A
:102FB00010925F03109252037ACF8091E30087FD55
:102FC00002C081E0B7CF83E0B5CF78941F921FB6DF
:102FD0001F9211248F939F93AF93BF9380914B03C4
:102FE00090914C03A0914D03B0914E030196A11D09
:102FF000B11D80934B0390934C03A0934D03B0936A
:103000004E03BF91AF919F918F911F901FBE1F9054
:1030100018952FB7F89480914B0390914C03A09191
:103020004D03B0914E032FBF089560913F03669505
:1030300070E041E050E08EE091E00E948B2E892B01
:1030400019F481E080931C030E94091890931603E1
:10305000809315030895CF93DF9300D000D0CDB7B0
:10306000DEB790913F0390FF42C09170811135C04F
:10307000926090933F03662381F080913F0390918B
:103080004003A0914103B091420389839A83AB83AB
:10309000BC83BC01CD010E94FF1460913F03669583
:1030A00070E041E050E08EE091E00E948B2E892B91
:1030B000D9F010921C0381E08093180320E0409126
:1030C000420360914103809140030F900F900F9055
:1030D0000F90DF91CF910C9413158E3110F09A63FD
:1030E000C8CF880F982BC5CF0E941518E4CF0F903A
:1030F0000F900F900F90DF91CF91089590913F0323
:1031000096958FEF890F913009F48DE161E00C9471
:103110002B1880913F0386958F5F8E3108F081E0F8
:1031200061E00C942B1890913F0390FF07C0969597
:10313000981720F0961710F40C94891861E00C94FD
:103140002B180E9409182091110330911203232B90
:1031500021F080930D0390930E032091130330917F
:103160001403232B21F080930B0390930C038FE027
:1031700093E00C942D0C90E080E00E94170C90E0FE
:1031800080E00E94010C1092C0011092BF010E94C9
:10319000DC0F86E0EFE0F3E0DF011D928A95E9F7AE
:1031A000109209031092080310920A030C94A118BC
:1031B0006093CA017093CB018093CC019093CD01B1
:1031C0000C94BB180F931F93CF93DF9300D000D0C4
:1031D000CDB7DEB741E050E060E070E004C0440FDE
:1031E000551F661F771F8A95D2F7409550956095B9
:1031F00070958091CA019091CB01A091CC01B091C2
:10320000CD018A019B01082319232A233B2309832B
:103210001A832B833C83C901B8010F900F900F9044
:103220000F90DF91CF911F910F910C94D81890912E
:10323000BE01809589238093BE01282F277039F421
:10324000282F082E000C330B9217130621F49091AF
:10325000CF0192FF07C08595859585950E94E2185C
:103260001092BE0108950F931F93CF93DF9300D068
:1032700000D0CDB7DEB741E050E060E070E004C0C0
:10328000440F551F661F771F8A95D2F78091CA0198
:103290009091CB01A091CC01B091CD018A019B010D
:1032A000082B192B2A2B3B2B09831A832B833C8356
:1032B000C901B8010F900F900F900F90DF91CF913F
:1032C0001F910F910C94D8186093C3017093C4019F
:1032D0008093C5019093C6010C94BB181092C10154
:1032E000EAE7F1E086E0DF011D928A95E9F70C94A8
:1032F000BB181F93CF93DF93CDB7DEB7AA970FB656
:10330000F894DEBF0FBECDBF81E693E0FC010196CD
:103310002091F100208323E089369207B9F780914C
:103320006203893009F456C0C8F4823009F4B1C090
:10333000833009F480C0813071F18091E80083FF0F
:1033400079C280916103909162039A3008F072C251
:10335000E92FF0E0E159FF4C0C940D2E8A3009F46E
:1033600087C08B3051F780916103813231F78091B2
:10337000650390916603892B01F78091E800877FB0
:103380008093E8000E94C90A809163038093110131
:103390000E946E19D2CF80916103813A71F68091BB
:1033A000E800877F8093E800809165039091660331
:1033B000892B61F468E085E593E070E00E947B0B67
:1033C0008091E8008B778093E800B7CF60E090E0D1
:1033D00080E0F3CF80916103813209F0AECF80911C
:1033E000650390916603029708F0A7CF8091E800EB
:1033F000877F8093E8008091E80082FF17C090915A
:10340000F3008091F200029729F48091F1008B7F04
:10341000813021F48091F100809354038091E80081
:103420008B778093E8000E94C90A87CF80915F0361
:103430008111E1CF82CF80916103813A09F07DCF84
:103440008091650390916603892B09F076CF809176
:10345000E800877F8093E8008091E80080FFFCCF40
:10346000809111018093F1008091E8008E77D9CF8F
:1034700080916103813209F060CF8091E800877FFD
:103480008093E8000E94C90A8091640380935303EB
:1034900054CF80916103813A09F04FCF8091E800C9
:1034A000877F8093E8008091E80080FFFCCF8091C7
:1034B0005303D8CF803899F0823809F0BBC180918E
:1034C00065038F70873008F0B5C18093E900809163
:1034D000EB0085FB882780F91092E90006C08091F7
:1034E0005D0390915E03911182609091E800977F57
:1034F0009093E8008093F1001092F1008091E80031
:103500008E7794C1882309F482C1823009F092C178
:1035100080916303811185C1809165038F702FEFC6
:10352000280F263008F086C18093E9002091EB0037
:1035300020FF77C1933031F48091EB00806280935B
:10354000EB006FC19091EB0090619093EB0021E054
:1035500030E001C0220F8A95EAF72093EA0010922A
:10356000EA008091EB008860EACF811163C110917D
:1035700063031F778091E3008078812B8093E300C1
:103580008091E800877F8093E8000E94C90A8091BB
:10359000E80080FFFCCF8091E30080688093E30027
:1035A00082E0111183E080935F0344C18058823030
:1035B00008F040C140916303509164034C3D83E0A7
:1035C0005807A1F583E08A838AE289834FB7F8948C
:1035D000DE01139620E03EE051E2E32FF0E050934D
:1035E0005700E49120FF03C0E295EF703F5FEF705A
:1035F0008E2F90E0EA30C0F0C7968D939D932F5F99
:10360000243159F74FBF8091E800877F8093E8000D
:103610006AE270E0CE0101960E947B0B8091E80087
:103620008B778093E80006C1C096E7CF20916503B1
:1036300030916603852F99278330910509F160F455
:103640008130910509F472C0029709F0F3C08BE351
:1036500090E0E8E9F3E129C08132910509F45AC00C
:10366000829709F0E7C02115310509F469C02130BE
:10367000310509F0DFC08BE790E0EDEDF2E115C018
:10368000CA0199274130B1F18230910509F43AC05D
:10369000892B09F0CFC0E7E0F4E1E4918E2F90E0B0
:1036A000E7E0F4E1009709F4C5C02091E800277F26
:1036B0002093E800209167033091680382179307F5
:1036C00008F49C0140E02115310509F03EC041118C
:1036D0003CC08091E80082FDA1CF80915F038823E8
:1036E00009F49CCF853009F499CF8091E80083FFDD
:1036F000F0CF94CFE3EFF3E1E4918E2F90E0E3EF8E
:10370000F3E1D0CFE5EEF3E1E4918E2F90E0E5EE2A
:10371000F3E1C8CF2115310571F02130310509F0F1
:1037200089C089E090E0E3ECF3E1BFCF82E190E073
:10373000E3EDF3E1BACF89E090E0EAEAF3E1B5CF57
:1037400080E490E0E8E5F3E1B0CF80915F03882367
:1037500009F464CF853009F461CF8091E80083FDDE
:103760005DCF8091E80082FDB4CF8091E80080FFBA
:10377000AACF9091F3008091F2002115310519F044
:103780008830910550F041E0089709F040E08091C1
:10379000E8008E778093E80096CF44914093F10043
:1037A0003196215031090196E8CF803809F042C0A6
:1037B0008091E800877F8093E80080916003809388
:1037C000F1009CCE811136C010916303123090F548
:1037D0008091E800877F8093E800109360030E9447
:1037E000C90A112311F084E005C08091E30087FD30
:1037F000FACF81E080935F0342E061EC81E00E94B8
:10380000E80A42E261EC82E00E94E80A13C080917B
:103810006303813079F481E0933009F080E0809394
:103820005E031092E9008091E800877F8093E800B2
:103830000E94C90A8091E80083FF0AC08091E800D5
:10384000877F8093E8008091EB0080628093EB009B
:10385000AA960FB6F894DEBF0FBECDBFDF91CF9111
:103860001F9108951F920F920FB60F9211242F935C
:103870003F934F935F936F937F938F939F93AF93F8
:10388000BF93CF93DF93EF93FF93D091E900DF7065
:103890008091EC00C82FC17080FDC0E81092E90053
:1038A0008091F000877F8093F00078940E947919CE
:1038B0001092E9008091F00088608093F000CD2B99
:1038C000CF70C093E900FF91EF91DF91CF91BF914D
:1038D000AF919F918F917F916F915F914F913F91A8
:1038E0002F910F900FBE0F901F9018958823F1F124
:1038F0009CEF980F913A78F4EAE7F1E020E831E0A4
:103900009191891303C0DF0111971C922E173F0775
:10391000B9F70C94DC0F90E2980F983088F4877018
:1039200021E030E0A90102C0440F551F8A95E2F75B
:10393000CA0180959091C10189238093C101E9CF8B
:103940009BE5980F933020F490E080E00C94170CE6
:1039500098E5980F973120F490E080E00C94010CEA
:103960008D3E20F00E94F60C0C94A1180895CF9380
:10397000C82F882309F455C08CEF8C0F813AF8F4D6
:10398000EAE7F1E0DF018D91C81761F021E0A0388E
:10399000B207C9F76C2F88E791E00E94E70BCF913F
:1039A0000C94DC0F8191C81303C0DF0111971C92A6
:1039B00031E0E038F307B1F70E94DC0FEBCF80E293
:1039C0008C0F883068F4C77021E030E001C0220F0E
:1039D000CA95EAF78091C101822B8093C101DFCFA4
:1039E0008BE58C0F833038F42C2F2452330BC90114
:1039F000CF910C94170CE8E5EC0FE73150F4F0E0B0
:103A0000EE0FFF1FE55EFE4F80819181CF910C94F8
:103A1000010CCD3E30F08C2F0E94B10DCF910C9453
:103A2000A118CF910895FF920F931F93CF93DF9327
:103A3000C62FD42F122FFC0182818823A9F0609316
:103A40006B030E94091890936A0380936903C770FF
:103A500081E001C0880FCA95EAF7DF91CF911F91ED
:103A60000F91FF900C94161180916B03681337C06F
:103A70008091690390916A030E94D80B883C91055C
:103A800070F500E20D0FCD17A9F0C770FF24F39475
:103A90008F2D01C0880FCA95EAF70E940B110830DC
:103AA00048F48D2F877001C0FF0C8A95EAF78F2D9F
:103AB0000E941611812F0E94B71C812F0E94761C34
:103AC0000830A0F4D77081E001C0880FDA95EAF7DA
:103AD000DF91CF911F910F91FF900C940B11C77044
:103AE00081E001C0880FCA95EAF7F2CFDF91CF914C
:103AF0001F910F91FF900895CF93A9E4B1E050E09A
:103B000040E080E061E070E09D919F3FA9F0E92FE7
:103B1000E295EF70F0E020A130E09F7002C0359593
:103B200027959A95E2F720FD2EC09B01042E01C037
:103B3000220F0A94EAF7822B4F5F5F4F48305105FE
:103B400019F79091D001C1E0981301C0C0E0981717
:103B5000E1F08093D00181E08093C9010E940918AF
:103B60009093C8018093C7018091C7019091C801CB
:103B70000E94D80B059768F08091D0018093D801FE
:103B80001092C90106C020E0D6CF8091C9018111F1
:103B9000EBCF8C2FCF9108957F928F929F92AF920F
:103BA000BF92CF92DF92EF92FF920F931F93CF932A
:103BB000DF93CDB7DEB766970FB6F894DEBF0FBEC2
:103BC000CDBF7C01DC0113968D919C911497892BBC
:103BD00041F01C911196DC90812F8D218F3F09F0CF
:103BE000E3C566960FB6F894DEBF0FBECDBFDF917A
:103BF000CF911F910F91FF90EF90DF90CF90BF90EA
:103C0000AF909F908F907F9008950E941310082F7F
:103C1000682F89819A810E94AE10202F2D0D3327A5
:103C2000331FF90103E0EE0FFF1F0A95E1F7E10FE3
:103C3000F11DEE0FFF1FE455FF4F05911491D701C1
:103C40008C91813071F411968C9181110AC00E947F
:103C500009189093F4028093F302F7018281809314
:103C6000F0020336FDE51F0741F5D70112968C914E
:103C7000882309F43FC08091D20190E0019663E06F
:103C800070E00E94E52D8093D2014091D2015091C5
:103C9000D3016091D4017091D5018FE090E00E9432
:103CA000BE2EE091D201F0E0EE0FFF1FEF5AFE4F63
:103CB000808191810E94F8161DC00436BDE51B0766
:103CC00009F480C0043FECE51E0709F4C1C008F008
:103CD00043C0093D2CE5120709F4B6C028E241E0D3
:103CE0000A3D3CE5130709F4B1C0083D4CE5140753
:103CF00009F4A6C0D70112968C91882309F467C5F0
:103D000010926B030631BCE51B0708F0ADC0023012
:103D1000ECE51E0708F46AC10E942A169093CF01B1
:103D20008093CE010631FCE51F0708F0C7C00230C2
:103D30002CE5120708F0B5C06091CE011091CF01BB
:103D400084E090E00E94AC2E612F82E290E00E941D
:103D5000AC2E0E946E1915C0063F5CE5150709F4EC
:103D60007BC0073F6CE5160709F47AC027E245EEF1
:103D700064EE053F7CE5170709F0BCCFC7010E9440
:103D8000131D8091BE01877009F42BCFD7011296C5
:103D90008C91882309F425CF82E066960FB6F894BB
:103DA000DEBF0FBECDBFDF91CF911F910F91FF906E
:103DB000EF90DF90CF90BF90AF909F908F907F90CB
:103DC0000C941719D70112968C91882331F08091A9
:103DD000040391E0892780930403E091D201F0E08D
:103DE000EE0FFF1FEF5AFE4F808191812091040357
:103DF000222309F45FCF9C0150E040E02B8B3C8BE9
:103E00004D8B5E8BCA01B9010E94722F20E030E019
:103E100040E45FE36B8B7C8B8D8B9E8B6B897C8905
:103E20008D899E890E94D82F6B8B7C8B8D8B9E8B6E
:103E30006B897C898D899E890E94432FCB013ACF63
:103E400026E241EE61EE9ACF27E245EE65EE96CF8F
:103E500026E241EE60EE92CF26E241EE62EE8ECF98
:103E600027E245EE66EE8ACFC8018B5F9C45099735
:103E700008F452CF0631BCE51B0709F0B7C08091AA
:103E8000C1018A7A91E009F490E09093800169E29F
:103E9000811165E388E791E00E94E70B0E94DC0F47
:103EA00070CFF801E350FC458091CE018160E33191
:103EB000F10590F4E758FF4C0C940D2E0B5F1C4558
:103EC0000930110508F038CF04571F4CF8010C9445
:103ED0000D2E8091CE0182608093CE012DCF8091F6
:103EE000CE018460F9CF8091CE018860F5CF8091BA
:103EF000CF0181608093CF011FCF8091CF0182607D
:103F0000F9CF8091CE018061E7CF8091CE018062B0
:103F1000E3CF8091CE018064DFCF0E946E19809143
:103F2000CE018068D9CF8091CE018C60D5CF8091B1
:103F3000CF018360DFCF8091CE018E7FCDCF809186
:103F4000CE018D7FC9CF8091CE018B7FC5CF80916F
:103F5000CE01877FC1CF8091CF018E7FCBCF809163
:103F6000CF018D7FC7CF8091CE018F7EB5CF80915D
:103F7000CE018F7DB1CF8091CE018F7BADCF0E94DE
:103F80006E198091CE018F77A7CF8091CE01837F6C
:103F9000A3CF8091CF018C7FADCF8091CE0182FBEA
:103FA000992790F921E0922790FB82F990FB83F901
:103FB00093CF8091CF01982F909591708E7F892B10
:103FC00090FB81F997CF0E946E199091CE01892FB5
:103FD00097FB87F9805880CF61E08EE090E00E94E7
:103FE000AC2EAACE60E0F9CF85E3FAC38091C1017F
:103FF0008272073DFCE51F0778F4033C2CE51207AD
:10400000C8F0F801E45CFC45E331F10508F071C04B
:10401000EB56FF4C0C940D2E6DE188E10E353DE51D
:10402000130709F4CCC00B358DE5180709F4F8C067
:1040300008F0D4C00115ACE51A0709F4E1C00F3D42
:104040001C4509F4EAC0F7018281108101818823AF
:1040500009F4EAC0812F902F0E941310D82E682FE8
:10406000812F902F0E94AE10202F2D0D3327331F4C
:10407000F90163E0EE0FFF1F6A95E1F7E10FF11D13
:10408000EE0FFF1FE455FF4F859194910E94500E53
:104090008C01782ED7011296DC9012971596CC9051
:1040A000C294EFE0CE228091BE018770A1F09D2CDA
:1040B000DD2091F0812F807F803421F080E2800F1D
:1040C000883048F082E00E9417198091BE01877005
:1040D000992493948111912C812F82958F70A82E11
:1040E000B12C8C3008F0DBC0F501E855FF4C0C9486
:1040F0000D2E80913F0380FF21C08E7F80933F0370
:1041000040913F03509140036091410370914203FD
:104110004B8B5C8B6D8B7E8BCB01BA010E94FF14A5
:1041200010921C035FE768E371E0515060407040FB
:10413000E1F700C000000E94F41223CE816080935A
:104140003F0361E086950E942B181BCE4EE758E195
:1041500069E878E10E94480C14CE49E858E16EE71E
:1041600078E1F8CF4BE955E164EA75E1F3CF44EA31
:1041700055E16BE975E1EECF43E855E16FE875E194
:10418000E9CF4FE855E163E875E1E4CF4BE655E14F
:1041900067E775E1DFCF47E755E16BE675E1DACF19
:1041A0004DEA55E160ED75E1D5CF40ED55E16DEAA1
:1041B00075E1D0CF61E081E0C6CF65E082E00E948A
:1041C0009318DFCD68E086E0FACF6EE089E0F7CFA4
:1041D00064E18FE0F4CF67E185E1F1CF0C35EDE5E7
:1041E0001E0701F10D351D4509F02DCF8091CF013E
:1041F00082FB882780F991E089270E94971623CFB8
:104200000E946E190FE71AE126E00150104020408D
:10421000E1F700C000000E94D0120E943816B1CD14
:1042200081E0EBCF80E0E9CF812F902F0E948510B5
:10423000D82E1ACFB12FBF70CB2E107F19F0C29499
:1042400050EFC522802FDD20C9F0CC2069F090E22C
:10425000900F983010F001110BC08091C101C82A55
:10426000C092C1010E94DC0F802F0E94B71C17C0B2
:104270008091C001C82AC092C001F4CF0E94761C70
:10428000CC2069F0C094005E083010F0711048C076
:104290008091C101C822C092C1010E94DC0FA8E038
:1042A000AA1AB108B4E0AB16B10410F40E943C0C99
:1042B0009920A9F08091BE0180FD11C0F701128202
:1042C0008595859585950E943319C7010E94CC1D5F
:1042D0008091BE018595859585950E94E21885E0BF
:1042E000F701DE01119601900D928A95E1F789811F
:1042F0009A810E948510EA81E80FFF27FF1FCF01F6
:1043000023E0880F991F2A95E1F7E981E80FF92F3B
:10431000F11DEE0FFF1FE455FF4F8591949161CC85
:104320008091C001C822C092C001B7CFE12FEF70C9
:104330008E2E107F103219F0829440EF8422772065
:1043400089F0F1E07F1699F1DD20F1F1CC20A9F19F
:10435000D70115968C91159780FF86CF8F70159693
:104360008C932BC0DD20B1F09091C201882D892B58
:10437000C11003C00E94161192CF01E0C012FACF03
:104380002091CF0122FD8BCF981709F488CF80931D
:10439000C20185CFC11006C00E94D60F882D0E9491
:1043A0000B117DCF11E0C11609F479CFF5CFDD20D7
:1043B00031F025E02C1508F472CF882DDBCF34E0E6
:1043C0003C1508F46CCFEACFCC2041F3093349F413
:1043D000BFEFE3EFF1E0B150E040F040E1F700C0A3
:1043E0000000802F0E94761C5ACF812F86958695DB
:1043F000837061F0813009F052CFC8019370D11001
:1044000002C090E080E00E94010C49CFC801937087
:10441000D11002C090E080E00E94170C40CF802FA6
:10442000DD20C1F10E94B10D015F110B08301105B3
:10443000B8F521E030E001C0220F0A95EAF786E0E6
:10444000EEEFF2E0DE01179601900D928A95E1F70A
:1044500086E0FE013796DE011D9601900D928A9549
:10446000E1F78885DD20C9F0822B8E8796E0FE017A
:104470003D96DE01119601900D929A95E1F78A839F
:1044800086E0FE013196AEEFB2E001900D928A9582
:10449000E1F705CF0E94F60CC7CF20958223E5CF28
:1044A0000E94A118FCCE812F837009F072C0D11038
:1044B000F6CE202F229526952770220F220F402F0F
:1044C0004F7050E070E060E0022E04C0440F551FB2
:1044D000661F771F0A94D2F780E090E0DC0104FFAA
:1044E0000FC08FE090E0A0E0B0E004C0880F991FFB
:1044F000AA1FBB1F2A95D2F780959095A095B095DD
:10450000E12FE695E695E370E23051F1E33009F1F1
:104510000091C3011091C4012091C5013091C601E1
:10452000E13099F0842B952BA62BB72BAC01BD0164
:1045300040235123622373234B8B5C8B6D8B7E8BCB
:10454000CB01BA010E946419AACE402B512B622BD9
:10455000732B8A019B01082B192B2A2B3B2B12C092
:10456000842B952BA62BB72B4091C3015091C401EE
:104570006091C5017091C6018C019D01042715272A
:10458000262737270B8B1C8B2D8B3E8BC901B8013F
:10459000D9CF8695DD2011F0812F8170882309F411
:1045A0007ECE202F229526952770220F220F402F96
:1045B0004F7050E070E060E0022E04C0440F551FC1
:1045C000661F771F0A94D2F780E090E0DC0104FFB9
:1045D0000FC08FE090E0A0E0B0E004C0880F991F0A
:1045E000AA1FBB1F2A95D2F780959095A095B095EC
:1045F000E12FE695E695E370E23081F1E330F9F0E2
:104600000091CA011091CB012091CC013091CD01D4
:10461000E13089F0842B952BA62BB72BAC01BD0183
:1046200040235123622373234B8B5C8B6D8B7E8BDA
:10463000CB01BA0110C0402B512B622B732B8A0186
:104640009B01082B192B2A2B3B2B0B8B1C8B2D8BA7
:104650003E8BC901B8010E94D81821CE842B952B1E
:10466000A62BB72B4091CA015091CB016091CC0190
:104670007091CD018C019D0104271527262737272E
:10468000E4CF1F70DD2029F0812F0E943319802F85
:1046900071CE802F0E940B11812F0E94E218FFCD56
:1046A000802F22EF721609F44AC0271570F030EF00
:1046B000731629F141EF7416D1F1DD2009F464C0BD
:1046C000C110D2CD812F8F7137C053EF7516E1F134
:1046D00064EF7612F2CFDD2009F44BC01F71812FF9
:1046E0000E9433198091CF0182FD07C058E0159FC9
:1046F000C001112483608093BE01812F1DC0DD2085
:1047000089F074E07C1508F4CACD1F7181E090E057
:10471000A0E0B0E004C0880F991FAA1FBB1F1A9524
:10472000D2F7A0CF25E02C1508F4B9CDEECF812F1C
:104730008F71DD2009F4B1CF0E943319B0CD812FE4
:104740008F71DD20C9F3A9CF60E070E0CB01DD20DF
:1047500009F481CF1F7181E090E0A0E0B0E0AC01EE
:10476000BD0104C0440F551F661F771F1A95D2F76D
:104770005BCF81E00E94171961E06C1508F08FCDC6
:1047800082E00E9417198BCDCC2059F0893309F0B3
:1047900028CE7FEF83EF91E0715080409040E1F7A9
:1047A0001ECE812F8F7179CF85E0F701DE01119642
:1047B00001900D928A95E1F7D70112962C9189818B
:1047C0009A81211122CA0E948510082F26CA06311B
:1047D0001C4509F038CC80918001811105CC89E21B
:1047E000EAE7F1E020E831E09191891303C0DF01AD
:1047F00011971C922E173F07B9F750CB1F93CF93F9
:10480000DF9380918B01807FA9F4809188018823B8
:1048100089F08091BD01D0918C01609186017091E9
:104820008701A0918901B0918A01C62FC72316E0A4
:10483000D81304C0DF91CF911F91089590E0109795
:1048400011F0CF3F19F401968770F2CF189F9001B5
:10485000199F300D1124F901E357FE4F4181471391
:10486000F2CF40814613EFCF42814111ECCF43811B
:1048700054814A1B5B0B483C510528F780918B0102
:104880008F70806180938B01F901EE56FE4F80811D
:104890008F708061808386E891E00E94CC1DDF915B
:1048A000CF911F910C940910AF92BF92CF92DF92DB
:1048B000EF92FF920F931F93CF93DF93CDB7DEB7A5
:1048C0002B970FB6F894DEBF0FBECDBF8C0185E0ED
:1048D000F801DE01179601900D928A95E1F7F80133
:1048E000E28086E8A82E81E0B82E6091890170915F
:1048F0008A016115710509F41AC1909186014091F0
:104900008701842F89238F3F09F411C120813181D0
:10491000C380D480F0908801F601E61BF70BFF20DE
:1049200009F4D0C080918B01582F507FE83CF105ED
:1049300008F0ABC0511177C0FE2C431321C0921375
:104940001FC0E1101DC08F70806180938B01C50175
:104950000E94CC1D80918B01F80185838F2D2B96B1
:104960000FB6F894DEBF0FBECDBFDF91CF911F9180
:104970000F91FF90EF90DF90CF90BF90AF90089590
:10498000CD2829F0822F83238F3F09F0EBC080E0F0
:10499000F82FF170DF2EE091BD0140918C0156E0BF
:1049A00080FD1CC0EE20D1F280918B01816080934C
:1049B0008B01F12CD3CF8E2F90E05E9FF00111245C
:1049C000E357FE4F6181361306C06081261303C092
:1049D0006281E612E7CFFC013196E770E413EBCF7A
:1049E0002F8338878F8198850E946A10292F2295FE
:1049F0002F70903260F0225F2F70223078F49F7019
:104A000051F0F8019581907F31F4D12C0AC09F704C
:104A100011F08823D1F3805E8830B8F3C8010E947A
:104A2000CC1DFD2C9BCF431306C0921304C0F8018C
:104A3000EE2009F461C0C8010E94DB10882309F14F
:104A4000EE20F9F080918B01803270F02091860188
:104A5000309187013A8329831B82DD82CC828E8349
:104A6000CE0101960E94CC1D86E0F801A6E8B1E0D7
:104A700001900D928A95E1F70E94FE23FF24F394A2
:104A80006DCFC8010E94CC1DF9CF51110AC086E834
:104A900091E00E94CC1D86E0F50111928A95E9F71C
:104AA00088CF4313C8CF9213C6CFE110C4CFF8010B
:104AB0008583C8010E94CC1D86E0F50111928A957C
:104AC000E9F74CCFE83CF105B8F7FE2CEE20C9F22F
:104AD00043131FC092131DC080918B0180FD10C035
:104AE000982F907F69F0F8018583903F31F0982FDF
:104AF000907F905F8F70892B8583C8010E94CC1DA9
:104B000086E0F801A6E8B1E001900D928A95E1F700
:104B100025CFC8010E94DB108111A6CF80918B01A7
:104B2000816080938B01C8010E94CC1D17CFEE20BD
:104B300009F4A7CFC8010E94DB10F82E882309F4DE
:104B4000A0CF86E0F801A6E8B1E001900D928A9529
:104B5000E1F780918601909187010E946A100E947E
:104B6000FE23FCCE81E08E2513CF1F93CF93DF93DE
:104B7000CDB7DEB767970FB6F894DEBF0FBECDBFD7
:104B80004B8B5C8B6D8B7E8B8F8B61111092C00178
:104B90001A8A2C898E899F893B893D872E876F874A
:104BA000998B888B86E0FE013D96DE011796019079
:104BB0000D928A95E1F7CE0107960E94542488232E
:104BC00089F016E08091BD0190918C0189134FC04E
:104BD00067960FB6F894DEBF0FBECDBFDF91CF91C1
:104BE0001F91089586E0FE013796DE01119601902F
:104BF0000D928A95E1F74A855B854115510509F3C8
:104C00007F816885862F87238F3FD9F220918C0181
:104C100030E0C901019687709927E091BD01E8173E
:104C2000190671F40E946E1910928C011092BD0148
:104C300086E0E6E8F1E0DF011D928A95E9F7C1CF51
:104C400079836A835D834C8396E0929FD001939F22
:104C5000B00D1124A357BE4FFE01319601900D9265
:104C60009A95E1F780938C010E940910AACF819F49
:104C7000C001112483579E4F0E945424882309F4B5
:104C8000A7CF8091BD0190E001968770992780930E
:104C9000BD0198CF1F921FB61F9211248F939F932F
:104CA000AF93BF9380914A03811113C080914B034E
:104CB00090914C03A0914D03B0914E034196A11DDC
:104CC000B11D80934B0390934C03A0934D03B0937D
:104CD0004E03BF91AF919F918F911F901FBE1F9068
:104CE0001895CDB7DEB76D970FB6F894DEBF0FBE3F
:104CF000CDBF84B7877F84BF0FB6F894A895809105
:104D00006000886180936000109260000FBE80E8B0
:104D100090E00FB6F89480936100909361000FBE0D
:104D200085B7806885BF85B7806885BF8BE09EE0CA
:104D300090937701809376018098889884988C98D6
:104D400086E0E4E1F1E0DE01119601900D928A9592
:104D5000E1F7DE011196AE01495F5F4F61E070E05F
:104D60008D91E82FE295EF70F0E021A18F708B011B
:104D700002C0000F111F8A95E2F7C801922F982BED
:104D800091A392A18095892382A34A175B0741F7DB
:104D90000E944F0A0E941A0B8091E2008460809367
:104DA000E200789480915F038823A1F01091E900DC
:104DB0001F709091EC00892F817090FD80E8182B76
:104DC0001092E9008091E80083FD0E9479191F701C
:104DD0001093E90082E084BD93E095BD9DE797BD07
:104DE00080936E00A9E4B1E041E551E061E070E03C
:104DF0008D918F3F91F0E82FE295EF70F0E011A1D7
:104E00008F709B0101C0220F8A95EAF7922F90952F
:104E1000912391A382A1822B82A34A175B0741F7BA
:104E20001092D0011092D80190E080E00E94A62E4E
:104E3000893E9E4F11F00E94381682E090E00E9459
:104E4000982E809306030E942A169093CF01809398
:104E5000CE010E947C1D8FE19EE40197F1F700C016
:104E600000000E947C1D8091D80183FF08C06FEF75
:104E70007FEF90E080E00E94CA2E0E94D01283E073
:104E800090E00E94982E082F10E030E020E0088F7C
:104E9000198F2A8F3B8FC901B8010E9464198FE0D6
:104EA00090E00E94A02E6093D2017093D301809372
:104EB000D4019093D501643010F00E9414168091B3
:104EC000D101811136C090E080E00E94A62E893E7B
:104ED0009E4F21F00E9438160E94F31588E090E062
:104EE0000E94A02E60933F03709340038093410380
:104EF000909342036E7F71F40E94F31588E090E076
:104F00000E94A02E60933F0370934003809341035F
:104F1000909342030E944E0C10921C0380913F0319
:104F200080FF04C060E086950E942B1881E080938A
:104F3000D101209A0E94FB2C1092F5020E94AF2D05
:104F40000E94B1160E94AF2D66EB8BE30E94D4162F
:104F50002FEF32E547E0215030404040E1F700C0FC
:104F600000000E94B1165AE65A95F1F700C082E09F
:104F70008A95F1F700C00E94AF2D9AE69A95F1F755
:104F800000C06AE58AE30E94D416AFE7B8E3E1E027
:104F9000A150B040E040E1F700C0000082E00E9474
:104FA000BD1683E00E94BD1684E00E94BD1685E018
:104FB0000E94BD1686E00E94BD166DE183E10E944D
:104FC000D4168FE19EE40197F1F700C0000068E17C
:104FD00083E10E94D4160E94B11682EE0E947F2DBA
:104FE00098E29A95F1F70CEC10E04AECE42E40E1DF
:104FF000F42EE016F10609F0A3C28FE891E00197C4
:10500000F1F700C000008AE20E94BD1660E080E176
:105010000E94D4160E94AF2DAFE1BEE41197F1F7C4
:1050200000C00000B2E0BA95F1F700C00E94AF2DB9
:10503000EFE1FEE43197F1F700C0000080E496E074
:105040000E94F8168FEC97E00197F1F700C000007E
:1050500060E080E10E94D41660E081E10E94D416F5
:1050600080E00E94BD168FE30E94BD168AE20E9476
:10507000BD1628981092E7021092E5021092E602FF
:105080008FEF93E090935E0280935D0210925C023A
:1050900010925B0210925A02109259021092DC0197
:1050A0001092DB011092DA011092D9011092EF02F6
:1050B0001092EE029093E4028093E3021092E202D7
:1050C0001092E1021092E0021092DF02109262024E
:1050D000109261021092600210925F021092ED0233
:1050E0001092EC021092EB021092EA021092E90286
:1050F0001092E802E091D201F0E0EE0FFF1FEF5AAC
:10510000FE4F808191810E94F81684E091E0909397
:105110004703809346035524539480915F0312E024
:10512000853009F467C20E947C1D882359F08FB72F
:10513000F89440914B0350914C0360914D03709152
:105140004E038FBF8091D80190910703981709F4FF
:1051500071C2982720E011E0392F312309F465C28C
:1051600029831A82812391E009F490E09B830E94B5
:1051700009188160782F9D838C8349815A816B81C6
:105180008D810E94B525809107031827109307038E
:1051900080911C038823D1F180911B03E0913F0390
:1051A000E695E81BE0931703823009F054C2F0E063
:1051B000E752FF4EE4910E2F10E02BE3622E24E124
:1051C000722E80911803882361F0109218030E94B8
:1051D0000918909316038093150310921A031092E6
:1051E00019030E940918E0911503F09116038E1B14
:1051F0009F0B8F3F9F4750F4E00FF11FF093160372
:10520000E093150385E193E0F301099586E0EFE073
:10521000F3E0DE01119601900D928A95E1F710916D
:105220001103009112037090130360901403109205
:105230001103109212031092130310921403812F82
:10524000802B09F448C080910D0390910E030E94B9
:10525000D80B9C0180910903882309F4A5C323334B
:105260003105C8F18F3F19F08F5F80930903112337
:1052700059F00E94910D9FEF11160CF491E0899F57
:10528000802D112480931103002359F00E94910D69
:105290009FEF10160CF491E0899F802D11248093CC
:1052A0001203309111033323B1F020911203222312
:1052B00091F045EB3403C0011124992309F41AC27B
:1052C0009093110355EB250390011124332309F426
:1052D00014C230931203872D862909F448C08091A7
:1052E0000B0390910C030E94D80B9C018091080342
:1052F000882309F454C325363105C8F18F3F19F0CE
:105300008F5F80930803772059F00E946F0D9FEF05
:1053100017140CF491E0899F802D112480931303BE
:10532000662059F00E946F0D9FEF16140CF491E067
:10533000899F802D1124809314033091130333230C
:10534000B1F020911403222391F045EB3403C00106
:105350001124992309F4D4C19093130355EB250329
:1053600090011124332309F4CEC1309314038091AA
:10537000110390911203892B90911303892B909123
:105380001403892B11F00E94A1181B830C837D82CA
:105390006E8286E0FE013196AFE0B3E001900D929F
:1053A0008A95E1F786E0EEEFF2E0DE0117960190D4
:1053B0000D928A95E1F786E0FE013796DE0111969F
:1053C00001900D928A95E1F786E0FE013196DE01AB
:1053D0001D9601900D928A95E1F78B818C8F9C81AF
:1053E000988F4D80AE81AD8F8091F3029091F40241
:1053F0000E94D80B8436910508F4A5C18091F10272
:105400009091F2020E94D80B059708F49CC18091FC
:10541000F002811198C10E9409189093F2028093C2
:10542000F10280E00E94D92C1C0184E00E94D92C5A
:105430003C018091EF02882321F08091EE028111DE
:105440002BC08EEE92E09F938F938FEE92E09F930E
:105450008F9349ED842E41E0942E5BEDA52E51E013
:10546000B52E6DEDC62E61E0D62E7BE1E72E72E003
:10547000F72E09E512E02AE532E04BE552E06DE552
:1054800072E0C1010E9420119093EB028093EA0226
:105490000F900F900F900F908091ED02882321F0D4
:1054A0008091EC0281112BC08CEE92E09F938F9340
:1054B0008DEE92E09F938F938FE5882E82E0982E59
:1054C00091E6A92E92E0B92E23E6C22E22E0D22E3A
:1054D00031EAE32E32E0F32E0FED12E020EE32E05F
:1054E00041EE52E063EE72E0C3010E9420119093FE
:1054F000E9028093E8020F900F900F900F90409177
:10550000EA025091EB028091E8029091E902209129
:10551000E702211108C1241635060CF0F7C0681601
:1055200079060CF410C183E08093E7028091E602D3
:10553000882309F408C11092E60281E0480E03C1F5
:10554000F80184910E947F2DF8E2FA95F1F70F5F40
:105550001F4F4FCD80915F03843009F441C01092FA
:105560001C038091D701811117C091E09093D7015E
:1055700080913F03982F91709093D6018E7F8093F6
:105580003F03AFE7B8E3E1E0A150B040E040E1F70E
:1055900000C000000E94F41210924A0328E130E09B
:1055A00040E40FB6F894A895209360000FBE409396
:1055B000600083B7817F846083BF83B7816083BFCE
:1055C0007894889583B78E7F83BF0FB6F894A8959B
:1055D00080916000886180936000109260000FBE2F
:1055E00080915E03882331F00E947C1D8091D80158
:1055F0008111BFC180915F03853009F4ABCF0E9458
:105600006E190E943C0C1092D7018091D60188231C
:1056100049F080913F03816080933F0360E086956D
:105620000E942B180E9415187ECD2F5F110F283075
:1056300009F092CD8FEF8B8B8C8B1D8A0E940918FD
:105640008160782F9F8B8E8B4B895C896D898F89C8
:105650000E94B5259DCD863059F4F0E0EA52FF4E08
:10566000E4910E2F10E09BE2692E94E1792EA9CDF2
:10567000893061F4E695F0E0ED52FF4EE4910E2F93
:1056800010E086ED682E83E1782E9BCD8F3061F49B
:10569000E695F0E0E053FF4EE4910E2F10E0B2E704
:1056A0006B2EB3E17B2E8DCD853159F4F0E0E353C1
:1056B000FF4EE4910E2F10E0A4E26A2EA3E17A2EB1
:1056C00080CD883181F48E2F63E00E94D92DE92F9F
:1056D000F0E0E653FF4EE4910E2F10E0FFE46F2E52
:1056E000F4E17F2E6ECD00ED17E0EDE46E2EECE0E0
:1056F0007E2E67CD50921103E5CD50921203EBCD73
:10570000509213032BCE5092140331CE68167906B3
:10571000D4F45092E7028091E5028823A1F0109220
:10572000E5028FEF0BCF213009F0C7C024163506F4
:105730000CF4BBC06816790634F01092E70220938F
:10574000E6021092E5028091F502811106C060E048
:1057500080E50E94D4165092F5020E94B11680E5B1
:105760000E947F2DBDE5BA95F1F700000E94972DAC
:10577000F82E80E00E947F2D0E94972D3C010E9410
:10578000972DD82E0E94972D8C010E94972DE82EE0
:105790000E94AF2DEF2DE870CE2E0E94AF2D8F2DE1
:1057A000877011F01092F502C11030C0F7FE2EC0C4
:1057B0008091F6029091F702892B31F40E9409182A
:1057C0009093F7028093F6027D282227332726192B
:1057D00037092038310514F02FE730E02138FFEF8A
:1057E0003F0714F421E83FEF2C8F1E2988279927C3
:1057F000801B910B8038910514F08FE790E0813881
:105800000FEF900714F481E89FEF888F80910403D5
:10581000882329F01C8D1D8F488C188E1C8E2C8D92
:105820002F87388D388B498A4D8D4A8B86E0FE0153
:105830003D96DE01119601900D928A95E1F72B833A
:105840003C834D824E8386E0FE013196AEEFB2E09E
:1058500001900D928A95E1F73091000320910103A8
:1058600090910203809103037091FA026091FB0210
:105870004091FC025091FD02F091F902E091FF028B
:10588000FE1353C0332311F073134FC0222311F0C2
:1058900026134BC0882311F0581347C0992319F0E1
:1058A00081E0491343C080E041C0681679060CF0DE
:1058B0004ACF82E08093E70242CF223001F52416DE
:1058C000350674F0681679060CF03DCF5092E70269
:1058D0008091E502882309F436CF1092E5022DCE9F
:1058E000681679060CF42FCF83E08093E70280914D
:1058F000E602882309F427CF1092E60212CF24167D
:1059000035065CF0681679060CF41DCF1092E7029C
:105910005092E5021092E60216CF681679060CF056
:1059200012CF82E08093E702F3CF81E080FF04C0D2
:105930008EEF92E00E942D0C109200031092010352
:10594000109202031092030386E0EEEFF2E0A8EF5C
:10595000B2E001900D928A95E1F70E943C0C909183
:105960000503891709F4D9CB0E943C0C80930503E9
:10597000D4CB19BC19BD09B400FEFDCF8091D8006D
:105980008F7D8093D8008091E00082608093E0005A
:105990008091E00081FDFCCF0E946E192BCE2D324C
:1059A000314008F0ADCCE3CC2D32314008F05CCC76
:1059B00092CC95E890937A00982F9072906890938B
:1059C0007B008F7190911201892B80937C008091D4
:1059D0007A00806480937A0080917A0086FDFCCF03
:1059E000809178002091790090917A009F77909330
:1059F0007A00922F0895289A219A229A23982B9818
:105A000080E58CBD0895F901909113019F3F09F045
:105A100074C08F3F09F471C061114AC010926D03C8
:105A200090916D03423009F447C0433009F448C0F7
:105A30009460413009F441C021E030E02E173F0767
:105A400008F440C090916D032032310509F450C034
:105A5000E0F52830310509F446C02031310509F45C
:105A600045C022303105D9F19CB520916D03922BB0
:105A70009CBD90916C03992319F09DB591609DBDDB
:105A800080931301E82FE295EF70F0E031A1282F09
:105A90002F7081E090E001C0880F2A95EAF7932FDC
:105AA000982B91A392A18095892382A381E00895E8
:105AB00090E290936D03B4CF986090936D03BCCF48
:105AC0009C60FBCF220F331FB9CF2034310599F0F2
:105AD00093602038310541F690936D03C5CF91E076
