:100000000C94D9080C9420090C9420090C94200914
:100010000C9420090C9420090C9420090C942009BC
:100020000C9420090C9420090C9418290C94EB29A9
:100030000C9490240C9420090C9420090C94200911
:100040000C9420090C9420090C9420090C9420098C
:100050000C9420090C94FB240C9420090C94200986
:100060000C9420090C9420090C9420090C9420096C
:100070000C9420090C9420090C9420090C9420095C
:100080000C9420090C9420090C9420090C9420094C
:100090000C9420090C9420090C9420090C9420093C
:1000A0000C9420090C9420090C94200901048E96CC
:1000B0006E773EFE7E5F1DB8F2664EFF5D19B0C2E0
:1000C0000469542AD62EBFDD19B0C3E529B1E02357
:1000D000A5A9B1C10082674C1A978D795120C70636
:1000E0008E7C7C7A764FFD5930E2460E9EBEDF1D37
:1000F0009991A0A5A1A9D022C6EF5C1B958990A2D9
:10010000A7CCFB5528B3E44AF76C3BF46A562EDEC5
:100110001F9DB8D3058892A6CE1EBEDF1D99B0E202
:1001200046EF5C07115D980B9D9497EE4E45336B3F
:1001300044C729562730C6A7D5F256DFB43862CB5C
:10014000A0B6E30F84062405656F7689B57741274D
:1001500082666582CCD5E620D52717C5F803237CB7
:100160005F64A51DC1D636CB4CD4DB66D78BB19965
:100170007E6F4C364006D6EBD7A2E4F495515A5424
:1001800096D55344D78CE0B94068D218E9DD9A235C
:100190009248EE7F43AFEA7738848C0A72AF69F8F1
:1001A000DDF12483A3F84ABFF59413DBBBD8B4B3C5
:1001B000A0FB4550603059123171A2D313E7FAE722
:1001C000CE0F63150B6B94BB378326059DFB4692C0
:1001D000FC0A15D10D7392D68C1B8CB8558ACEBDF6
:1001E000FE8EFCED0912839182513123FBB40C7613
:1001F000AD7CD9B44BB26714099C7F0C18BA3BD6BE
:100200008E142AE41B529F2B7DE1FB6A3302FAAC69
:100210005AF23E887EAED1F378E805D1E3DC21F6D0
:10022000E19ABD170ED9469B8803EAF666BE0E1BFF
:100230005049964097F1F1E480A66EE87734BF29E3
:100240004044C2FF4E98D39CA3322B76510409E759
:10025000A9D1A632B12353E247ABD6F5695C3E5F24
:10026000FAAE4520E5D244FF39326DFD27575CFDDB
:10027000F0DEC1B599E5F51C770175C56D5892F2B0
:10028000B247000126967A30FFB7F0EF77C18A5D5A
:10029000DCC0D129301E77387A94F1B87A7EEFA489
:1002A000D1AC314AF25D643DB2E2F00899FC70EEE7
:1002B00024A77EEE1E20697D44BF8742DF883B0C69
:1002C000DA42C904F94550FC838F116A72BC9995D2
:1002D000F0AC3DA73BCD1CE2887937115F39899599
:1002E0000A16847AF68AA428E4ED83803BB123A51C
:1002F0000310F466EABB0C0FC5EC6C69C5D324ABE4
:10030000D42AB799887608A0A8957CD8386DCD599D
:1003100002514BF1B52B50E3B6BDD072CF9EFD6EAE
:10032000BB44C8248A77188A1306EF977DFA81F0B8
:1003300031E6FA77ED3106315B548A9F3068DBE2B3
:1003400040F84E73FAAB748B105813DCD2E678D1B8
:10035000322E8A9F2C58064827C5A95E81478946B8
:1003600021910370A43E889CDA330ACEBC8B8ECFD9
:100370009FD3718043CF6BA95183763082C56A8544
:100380003911501A82DC1E1CD57DA9719933471989
:1003900097B35AB1DFEDA4F2E62684A2289A9EDF35
:1003A000A66AF4D6FC2E5B9D1A2A2768FBC183211E
:1003B0004B90E036DD5B314255A013F7D089537185
:1003C00099570929C5F321F8372F40F3D4AF160800
:1003D0003602FC77C58B049056B9C9679A99E80034
:1003E000D386FF972D08E9B7B391BCDF45C6ED0F63
:1003F0008C4C1EE65B6E3830E4AAE395DEB9E49AD5
:10040000F5B2559A879BF66AB2F2779A31F47A314F
:10041000D11D04C07C32A29E9AF562F8278DBF518F
:10042000FFD3DF64373F2A6F763A7D77069E777F6A
:100430005EEB3251F916669A09F3B008A47096463D
:1004400030FFDA4FE91BED8DF8741F3192B373174B
:1004500036DB9130D688556B3477877AE7EE06C65F
:100460001C8C190C4846235E9C075CBFB47ED64F9B
:10047000749CE2C5508BC58B159060625729D013D0
:1004800043A18088910044C74D1986CC2F2A755A04
:10049000FCEB972A70E378D891B04F9907A395EABF
:1004A0002421D5DE512093270A3073A8FF8A97E9CB
:1004B000A76A8E0DE8F0DFECEAB46C1D392A622DD4
:1004C0003D5A8B65F890052E7E912C78EF8E7AC17F
:1004D0002FAC78EEAF2845064C26AF3BA2DBA393AA
:1004E00006B53CA5D8EE8FAF25CC3F856848A962FC
:1004F000CC978F7F2AEAE0150AAD6207BD45F84127
:10050000D836CB4CDB6EE63AE7DA15E9291E121035
:10051000A0142C0E3DF4BF394192750B257BA3CE60
:10052000399C1564C8FA3DEF7327FE262ECEDA6E8D
:10053000FD718EDDFE76EEDC125C02C53A4E4E4F4A
:10054000BFCA4015C76E8D41F110E04F7E977F1CEA
:10055000AE478E6BB12531B073C71B9779F980D345
:1005600066223007741EE4D08021D6EE6B6C4FBF3C
:10057000F5B7D909872FA914BE27D9725001D41312
:1005800073A6A751027525E1B345347DA88EEBF320
:100590001649CB4F8CA1B9368539755D0800AEEB95
:1005A000F6EAD7133A215A5F3084522695C914F2DD
:1005B00057556BB110C2E1BD3B51C0B7554C7112DC
:1005C00026C70DF951A43802057FB8F1724BBF71EF
:1005D0008914F37738D97124F30011A1D8D469278D
:1005E000083735C9119D901C0EE71CFF2D1EE8929F
:1005F000E11810957CE080F4964321F97521643868
:10060000DD9F1E9516DA561D4F9A53B2E2E418CBC1
:100610006B1A65EB56C63BE5FED8263F3A84597205
:1006200066A2F375FFFB60B322AD3F2D6BF9EBEAD9
:10063000057CD88F6D2C989E2B93F15E46F08749F0
:10064000297368D77FF9F0E57DDB1D7519F3C45870
:100650009B1788A892E0BEBD8B1D8D9F5676ADAFCF
:1006600029E2D9D552F6B55635573AC8E15643195D
:1006700094D3049B6D35D80B5F4D198EECFA6491C1
:100680000A72202BBC1A4AFE8BFDBBED1B23EAAD80
:100690007282A1299971BDF095C103DD7BC2B23C84
:1006A0002854D368A472C86696E0D1D87FF8D126C2
:1006B0002BF7ADBA55CA15B932C3E588978E5CFBE6
:1006C00092258BBFA245557AA76F8B575BCF0ECB78
:1006D0001DFB208277A88CCC16CE1DFADECC0B62D7
:1006E000FECCE1B7F0C381647340A0C24D8911759F
:1006F0003355338DE84AFDEA6E300BD7312CDE4797
:10070000E3BFF85542E27F59E517EF99346991B19B
:10071000238E20872DA8FED58AF3843AF037E4098A
:100720000054EE674993E48170E3904DEFFE41B7CA
:10073000997BC183BA62126F7DDE6BAFDA16F95511
:1007400051EEA60C2B02A3FD8DFB3017E46FDF36B4
:1007500071C4CA872548B047ECEAB4BFA54D9B9F3A
:100760000293C4E3E4E8422D6881150AEB845BD66A
:10077000A874FB7D1DCB2CDA462A7662CEBC5C9E2B
:100780008BE7CFBE78F57CEBB33A9CAA6FCC72D1E5
:1007900059F21123D63F48D1B7CEB0BFCBEA80DEA5
:1007A00057D45E972F75D1508E802C6679BF724BCF
:1007B000BD8A816CD3E101DCD21526C536DA2C1A4C
:1007C000C02794EDB79B850B5E8097C5EC4FEC88F6
:1007D0005D50073547DC0B3B3DDD60AFA85D8138E0
:1007E00024255D5C15D1DEB3ABEC0569EF83ED57D5
:1007F00054B8646411163269DA9F2D7F36BB445AAF
:1008000034E87FBF03EB007F59682279CF736C2CEB
:1008100029A7A15F38A11DF02053E01A6314587175
:1008200010AA080C3E161A6022827FBAA443A0D0F8
:10083000AC1BD56B64B51493319E5350D05766EE04
:100840005A4FFB032A695876F183F74EBA8C420659
:10085000605D6DCE6088AEA4C3F103A54B98A1FF87
:1008600067E1ACA2B862D76FA031B4D277AF2110E4
:1008700006C69AFF1D09170E5FF1AA54344B458A2C
:100880008763A6DCF9243067C6B2D6613369EE50BF
:10089000615728E77EEEEC3A5A734EA88DE418EAC9
:1008A000EC4164C8E2E866B62DB6FB6A6C16B3DDAF
:1008B0004643B973006A71ED4E9D251AC33C4A95B3
:1008C000159935811402D6989BECD8233B8429AF27
:1008D0000C9983A69A344FFAE8D03C4BD0FBB6680B
:1008E000B89E8FCDF7602D7A22E57DAB651B95A76D
:1008F000A87FB677477B5F8B1272D0D491EFDE1959
:10090000503CA78BC4A9B323CB76E681F0C1048FFA
:10091000A3B8545B97AC19FF3F55272FE01D429BAE
:1009200057FC4B4E0FCE98A9435703BDE7C894DF41
:100930006E367332B4EF2E857A6EFC6C1882753584
:100940009007F3E49F3EDC68F3B5F31980920699B3
:10095000A2E86FFF2E7FAE42A45FFBD40E812BC3B3
:1009600004FF2BB3744E365B9C1500C6472BE88BF7
:100970003DF19C039A587F9B9CBF854979352E5643
:100980007B411439478326AA078998111B86E77390
:100990007AD87D786153E979F5368D449284F913DC
:1009A00050583BA46A3665498E3C0EF16FD284C420
:1009B0007E8E3F39AE7C84F163378E3CCC3E4481E1
:1009C00045F14BB9ED6B365DBB20601A0FA3AA55FC
:1009D000773AA9AE374DBAB8866BBC0850F6CCA4AE
:1009E000BD1D4072A586FAE210AE3D584B97F34309
:1009F00074A99EEB21B701A4869397EE2F4F3B86F7
:100A0000A1416F412690785C7F30384B3FAAECEDD6
:100A10005C6F0EAD4387FD9335E601EF412690995B
:100A20009EFB195BADD2918AE046AF65FA4F84C157
:100A3000A12DCF458BD38550557CF96788D44EE9DD
:100A4000D76B6154A1A4A6A2C2BF309C409F5FD7C0
:100A5000692B24825ED9D6A712541AF7559F765077
:100A6000A99584E66B6DB59654D6CDB3A19B46A7E8
:100A7000944DC494B498E3E1E234D533160754CDD1
:100A8000B77753DB4F4D469DE9D49C8A36B6B838CC
:100A9000266C0EFF9C1B438B80CCB93DDAC7F18AD4
:100AA000F26DB8D7742F7E1EB7D34AB4ACFC794828
:100AB0006CBC96B69446572DB0A3FC1EB952608507
:100AC0002D41D043011E1CD57DFCF3960DC7CB2ACA
:100AD000299A93DD882D375DAAFB4968A09C508632
:100AE0007F685657F9791839D4E001843361CAA573
:100AF000D2D6E4C98A4A23444EBCF0DC24A1A0C467
:100B0000E2073C10C4B5254B6563F480E7CF61B1C3
:100B1000718221872CF59100320CECA9B59A74856D
:100B2000E3368F764F9C6DCEBCAD0A4BED7604CB91
:100B3000C3B9339E019396697DC5A245799B045C38
:100B40008409ED8843C7AB931426A140B5CE4EBFB0
:100B50002A42853E2C3B54E8121F0E9759B2278932
:100B6000FAF2DF8E6859DC06BCB6850D0622ECB1C0
:100B7000CBE504E63DB3B04173083F3C588663EBD8
:100B800050EE1D2C3774A9D318A3476E9354AD0AA9
:100B90005DB82A555D78F6EEBE8E3C7669B940C2E6
:100BA00034EC2AB9ED7E20E48D0038C7E68F44A8E6
:100BB00086CEEB2AE990F14CDF32FB731B6D921E5F
:100BC00095FEB4DB65DF4D23548948BF4A2E70D6AD
:100BD000D762B43329B13A334C236DA676A521638D
:100BE00048E6905DED90950B7A84BEB80D5E630C7F
:100BF00062264C145AB3AC23A474A76F333005603B
:100C00000142A028B7EE1938F164808243E1412700
:100C10001F1F90547AD5232ED13DCB28BA587FDCA4
:100C20007C9124E92851836EC5562142EDA05622BD
:100C3000A140806BA8F794CA136B0C39D9FDE9F376
:100C40006FA69EFC708AB3BC593C1E1D6CF97CAF2C
:100C5000F9887195EB5700BD9F8C4FE12483C52225
:100C6000EAFDD30CE217187C6A4CDE77B4539B4C38
:100C700081CD2360AA0E25739C02793230DF74DFA8
:100C80007519F4A5145CF77AA8A591847C60030615
:100C90003BCD50B6279CFEB1DDCCD3B05924B2CAAF
:100CA000E21C81229D078F8EB9BE4EFAFC3965BACF
:100CB000BF9D12375E977EF389F55DF5E3098C627F
:100CC000B5209D0C538A681BD28F75175DD4E5DA69
:100CD000756219146A262DEBF8AF37F06CA455B184
:100CE000BCE233C09ACAB011494F689B3B6B3CCC05
:100CF00013F6C785616842AEBBDDCD4516291DEAF6
:100D0000DBC803943CEE4F8211C3EC28BD970599D4
:100D1000DED7BB5E221FD4EB64D992D985B76A05B2
:100D20006AE42441F1CDF0D83FF89E0ECD0B7A70E5
:100D30006B5A750A6A3388EC17750870102F24CF28
:100D4000C4E942006194CA1F3A7606FAD24881F09B
:100D500077600345D961F4A46F3DD930C3046B5467
:100D60002AB7EC3BF44BF5685226CEFF5D1991A0F3
:100D7000A3A5A9B1E023C40A774DF95120A3A5A9E1
:100D8000B1C10082868E7F5D1991A0A3C4EB540B84
:100D9000756852078C9A978D79706246EF5C1B9547
:100DA000897141E121A1A1A1C002674C1AB6CFFD12
:100DB000785324ABB5C9F16023A5C812876D5813C9
:100DC000858892876D5832C70C9A97ACDA36EE5EFA
:100DD0003EDF1DB8F2662FBDF87247ED58138588C7
:100DE00092878C7B550990A2C6EF3DF85324ABD473
:100DF0002AB7EC5A36EE5E3EDF3CFA764FFD5930AC
:100E0000E246EF3DF853056931C10082868E7F5D71
:100E100019B0E227CCFB744B148B948B756833C5E7
:100E20000892878C9AB6CF1CBAD70D98B2E62FDC01
:100E30001B9589716023C40A968F9CBAF66E3FFC9D
:100E40005B15A8D226AFBDF872662FDC1BB4CB149D
:100E50008B94AAB7CDF951018082866F3DD930E2DB
:100E600027CCFB744B14AAB7CDF97043046B35C97A
:100E7000F16023A5C8F3450892876D5832E62FBD6F
:100E8000F872664E1EBEFE7E7E7E5F1D9991A0A307
:100E9000C40A774D1893A4ABD40B754910A2C6EFC2
:100EA0003DF85324ABB5E833E44A16AEDE1FBCDB95
:100EB00015A8B3C5087345E931C1E121A1A1A1C0BD
:100EC00002866F5C3AD70D9893A4CA16AEDE1F9DBA
:100ED00099B0E246EF3DF872470C9AB6CFFD591132
:100EE000A0A3A5C8F3450892876D39F043048A96FC
:100EF000AEDE3EDF1D9991A0C2066F3DF872470C31
:100F00009A978D989385887345E931E023A5A9D0F8
:100F100003848A96AEDE1FBCDB15A8D226CEFF5D09
:100F20001991818082672DD813A4ABD40B94AAB7F2
:100F3000CDF95120A3A5C8F345E95022C6EF5C3A8C
:100F4000D70D9893858873644AF74DF95120A3C44F
:100F50000A96AEDE3EFE7E7E7E5F3CFA764FFD78E0
:100F600072662FBDD930C3E54812878C7B5528D2D5
:100F7000078C9A97ACDA178D795120A3C4EB540BE8
:100F8000948B94AAD62EBFFC5B15A8D226AFDC1B8F
:100F9000B4EA37EC3BF46A37CD1893856931C1E187
:100FA00040E325C812878C9AB6CFFD5911A0C2061E
:100FB0008E7F5D38F2470C7B746A37EC5A36EE3F11
:100FC000FC7A764F1C9B95897141006344EB542A4F
:100FD000D60F9CBAD70D9893856931C10082868E51
:100FE0009EBEDF3CFA572CDA36EE3FFC5B1589716A
:100FF000410082868E7F5D38F247ED5813A4CAF710
:101000004DF95101806344EB542AD62EBFDD19916E
:10101000A0A3A5A9B1E042068E7F5D1991A0A3C44B
:101020000A968F7D7872470C7B746A562EDE1FBC41
:10103000FA570D7951016121A1C0E325A9B1C1E1A0
:101040004002674C1A978D9893A4ABD42AD60F9C74
:101050009BB4CB14AAB7CDF95120A3C4EB35C9F189
:101060006042068E7F7C7A766E3FFC7A766E5E3EBC
:10107000FE7E5F3CDB15897141E121C0E344EB5406
:101080002AB7CDF9706227ADD832C70C7B744B14E8
:10109000AAB7EC3BD528D2076D39D120C2E74C1A4C
:1010A000978D98B2C70C5928F39BF100F300F2001A
:1010B000F400F50028000C034D006F00750073006C
:1010C00065000000120350006C006F006F0070009C
:1010D000790043006F0000000403090409023B008B
:1010E000020100A0320904000001030101000921EE
:1010F00011010001224000070581030800010904D5
:101100000100010300000009211101000122490032
:1011100007058203200001120100020000000843BD
:10112000506F4D01000102000105010902A1018576
:10113000020901A1000509190129081500250195D9
:1011400008750181020501093009311581257F9556
:10115000027508810609381581257F95017508817A
:1011600006050C0A38021581257F95017508810650
:10117000C0C005010906A101050719E029E715000E
:101180002501950875018102950175088101050702
:10119000190029FF150026FF009506750881000536
:1011A00008190129059505750191029501750391AD
:1011B00001C011241FBECFEFDAE0DEBFCDBF04B601
:1011C00003FE27C08091FD019091FE01A091FF01D7
:1011D000B09100028730904BA740B04BD1F41092F1
:1011E000FD011092FE011092FF011092000214BE48
:1011F00084B7877F84BF0FB6F894A895809160006C
:10120000886180936000109260000FBEE0E0F8E318
:10121000099511E0A0E0B1E0EAECFAE502C0059022
:101220000D92AA32B107D9F721E0AAE2B1E001C0DC
:101230001D92AD3FB207E1F70E944B1D0C943D2D6E
:101240000C94000030E020E043E060E086E30E9480
:10125000BD2295E09A95F1F70000089585E08A9502
:10126000F1F700000C946923CF93DF93C82FD62F9A
:10127000803511F010922C010E9422098C2F806879
:101280000E9439238D2F0E943923D82FC92F8AE637
:101290008A95F1F700C08FE891E00197F1F700C05F
:1012A00000000E9469238D2F9C2FDF91CF9108951C
:1012B000CF93C82F0E9422098C2F8F770E94392349
:1012C0000E945123C82F85E08A95F1F7000085E63A
:1012D0008A95F1F700000E9469238C2FCF91089521
:1012E000CF93DF93D82FC92F0E9422098D2F9C2FD7
:1012F00064E670E00E94C72C61507109683771057F
:1013000010F067E770E08FE00E943409DF91CF9121
:101310000C946923CF93DF936DE183E10E9434093C
:101320008FE39CE90197F1F700C0000068E183E1D9
:101330000E9434090E94220982EE0E94392390E51E
:101340009A95F1F7CCEAD0E080E1CA3AD807C1F427
:10135000EFE1F3E03197F1F700C000008AE20E946C
:10136000580960E080E10E9434090E9469238FE3FC
:101370009CE90197F1F700C00000DF91CF9108953B
:10138000FE0184910E943923F0E5FA95F1F7219648
:10139000DBCFCF93DF9380E00E945809D82F8FE3F3
:1013A0000E945809C82F8AE20E945809982FD23407
:1013B00029F4CD3B19F481E0943009F080E081708C
:1013C000DF91CF910895269A0E94B52210922C01A8
:1013D0000E9469230E9422090E94692366EB8BE325
:1013E0000E9434092FEF85EA9EE021508040904012
:1013F000E1F700C000000E94220925ED2A95F1F7CF
:1014000000000E942E0985ED8A95F1F700006AE53B
:101410008AE30E9434099FEF20E782E09150204048
:101420008040E1F700C0000082E00E94580983E09C
:101430000E94580984E00E94580985E00E945809DA
:1014400086E00E9458090E948A090E942E098FE3B3
:101450009CE90197F1F700C0000080E496E00E944B
:1014600070098FE99FE00197F1F700C0000060E08C
:1014700080E10E94340960E083E60E9434098FE92C
:101480009FE00197F1F700C0000060E288E50E944C
:1014900034098FE99FE00197F1F700C0000060E098
:1014A0008AE50E9434098FE99FE00197F1F700C0B7
:1014B00000000E94C9092E9808959F92AF92BF9292
:1014C000CF92DF92EF92FF920F931F93CF93DF9310
:1014D000EC0180912C01811107C060E080E50E9441
:1014E000340981E080932C010E94220980E50E944A
:1014F00039238AEB8A95F1F700C00E945123F82E18
:1015000080E00E9439230E9451236C010E945123E4
:10151000B82E0E9451238C010E945123E82E0E9474
:1015200069239F2C991C9924991CAA24A394F3FC49
:10153000A12CDB28D194C194D1081E2911950195C5
:1015400011090E9469238F2D877011F010922C01D0
:10155000F8829982AA82DC82CB82BD821F830E83AD
:10156000E886CE01DF91CF911F910F91FF90EF9010
:10157000DF90CF90BF90AF909F900895EF92FF9231
:101580000F931F93CF93DF9384EF0E94B122EC015E
:1015900084E90E94B1228C010E94C02490933401FE
:1015A000809333018091350190913601892B09F0A8
:1015B000B9C0EE24E394F12CF0923601E0923501AB
:1015C00080912D0190912E010E94EC24843691058A
:1015D00008F4ACC080914E0190914F010E94EC2420
:1015E000059708F4A3C08091520181119FC080919A
:1015F0003F01909140019C012D5F3F4F2C173D070B
:1016000008F09BC0F0924801E092470180913D01B3
:1016100090913E019C012D5F3F4F2017310708F04C
:101620009CC081E090E090934601809345018091B9
:101630004B0190914C01009709F0E3C0CE01805915
:1016400091408931914008F4A1C00E94C0249C01BE
:101650009093340180933301809147019091480128
:1016600040914301509144014817590709F487C03C
:1016700040914101509142018417950709F47FC0C0
:101680008091450190914601C93A42E0D40708F49F
:1016900070C08230910509F0AAC081E090E090937B
:1016A0004C0180934B018091370190913801019654
:1016B000909338018093370140913101509132016C
:1016C000241B350B3093300120932F01263931052F
:1016D00058F42091490130914A012115310521F03A
:1016E00030934C0120934B01892B59F080914B0191
:1016F00090914C018130910509F07EC089EF0E94E4
:101700009F0F809133019091340190933201809327
:10171000310180914B0190914C0190934A0180934B
:10172000490134C01092360110923501DF91CF91FA
:101730001F910F91FF90EF9008950397C817D90755
:1017400038F482E090E090934801809347015ECFA7
:10175000109248011092470159CF039708171907B3
:1017600018F482E090E05FCF10924601109245019C
:101770005ECF8130910509F490CF0297D1F180912D
:101780004B0190914C01892B09F08DCF209147019D
:10179000309148018091450190914601822B932B15
:1017A000892B21F280914301909144019093420151
:1017B00080934101309344012093430180913F0184
:1017C0009091400190933C0180933B01D093400164
:1017D000C0933F0180913D0190913E0190933A0169
:1017E0008093390110933E0100933D019FCF0197F3
:1017F00031F682E090E053CF029709F082CF8AEF72
:101800007ECF8130910571F4C83A82E0D80708F0A4
:10181000BDCF10924C0110924B01109238011092E2
:101820003701B4CF029709F0B1CFC13921E0D20717
:1018300008F4ACCFEECFFC01619562834195438300
:101840000895CF92DF92EF92FF920F931F93CF9361
:10185000DF93CDB7DEB729970FB6F894DEBF0FBE82
:10186000CDBF8C01CE0101960E945D0A8B81882339
:10187000E1F18A818823C9F1EC80FD80CF80D88492
:101880008091500190915101892B31F40E94C02424
:101890009093510180935001A6014038510514F0F6
:1018A0004FE750E041388FEF580714F441E85FEFFD
:1018B000B7016038710514F06FE770E061388FEFA1
:1018C000780714F461E87FEFC80129960FB6F89401
:1018D000DEBF0FBECDBFDF91CF911F910F91FF9063
:1018E000EF90DF90CF900C941B0C29960FB6F894D4
:1018F000DEBF0FBECDBFDF91CF911F910F91FF9043
:10190000EF90DF90CF900895EF92FF921F93CF93C7
:10191000DF9300D000D00F92CDB7DEB77C01698392
:101920007A83A981BA818C91813079F411968C9156
:1019300081110BC00E94C02490932E0180932D0131
:10194000E981FA8182818093520169817A81C7019C
:101950000E94F00D182F882391F1F3E6EF16FDE5B4
:10196000FF06C9F5A981BA811296BC91BD83BB233C
:1019700031F18091E40190E0019663E070E00E9413
:10198000C72C8093E4012091E4013091E50140915E
:10199000E6015091E70129833A834B835C83CA01B6
:1019A000B9010E942719E091E401F0E0EE0FFF1F5A
:1019B000E050FF4F808191810E9470091D81812F2D
:1019C0000F900F900F900F900F90DF91CF911F917C
:1019D000FF90EF90089534E6E3163DE5F30679F7BE
:1019E000A981BA8112968C91882331F080914D01A2
:1019F00091E0892780934D01E091E401F0E0EE0F42
:101A0000FF1FE050FF4F8081918120914D012223E3
:101A100021F19C0150E040E029833A834B835C83B1
:101A2000CA01B9010E94CC2B20E030E040E45FE322
:101A300069837A838B839C8369817A818B819C8182
:101A40000E94322C69837A838B839C8369817A819B
:101A50008B819C810E949D2BCB010E947009AFCF8E
:101A60000F931F93CF93DF9300D000D00F92CDB789
:101A7000DEB784988C9854985C9885E0EDE1F1E0AD
:101A8000DE01119601900D928A95E1F7FE013196E3
:101A9000AE014A5F5F4F61E070E08191A82FA2958F
:101AA000AF70B0E091962C9191978F708B0102C02E
:101AB000000F111F8A95E2F7C801922F982B91967B
:101AC0009C93919792969C91929780958923929658
:101AD0008C934E175F0709F70F900F900F900F90A0
:101AE0000F90DF91CF911F910F910C94B8190C9426
:101AF000E309CF93DF9300D000D000D0CDB7DEB79D
:101B00000E945C2029833A834B835C836D837E83B0
:101B1000CE0101960E94BE0ACE0101960E94210CC0
:101B200080914D01882349F08B819C8198278927DA
:101B300098279E838D831B821C8249815A816B81E9
:101B40007C818D819E810E947D200E94222026968C
:101B50000FB6F894DEBF0FBECDBFDF91CF910895D1
:101B6000CF93DF9300D000D0CDB7DEB781E0809374
:101B7000E4018091E4019091E501A091E601B0912A
:101B8000E70189839A83AB83BC83BC01CD010E94AA
:101B900027190F900F900F900F90DF91CF910C9419
:101BA00033190E9423196093E4017093E501809337
:101BB000E6019093E701643010F00E94B00D0C94A0
:101BC000791CE091E401F0E0EE0FFF1FE050FF4FC1
:101BD000808191810E9470090C94BA1981E0089566
:101BE00081E0089508950C94F20D1F93CF93DF9335
:101BF00000D000D00F92CDB7DEB749835A836B83F4
:101C00003091530189819A8131111DC06623B9F049
:101C10002223A9F00E94D514182F682F89819A8158
:101C20000E947C1469817A81812F0F900F900F9010
:101C30000F900F90DF91CF911F910C94321B0E9457
:101C4000AB14182FEFCF0E94D51469817A81EDCFA4
:101C5000FC01262F408151816281738184810C9423
:101C6000F50D81E00895CF93DF93D82FC92F60E061
:101C70000E94280E6D2F7C2FDF91CF910C94F30DD5
:101C80000E94411C0E94B10E0C94D10D0C947B1C3F
:101C900008950E9455120E94480E2FEF84E39CE0A5
:101CA000215080409040E1F700C000000C941F25B7
:101CB0000F931F93CF93DF938C0161E00E94280E56
:101CC000EC01B8010E94840C8823A9F1B801CE016F
:101CD0000E940821882379F1B801CE010E945D217C
:101CE000882349F1B801CE010E943022882319F1DE
:101CF000F8018281882361F0CB35FDE5DF0721F112
:101D000070F4C115ECE5DE07A1F0CF3DDC45C9F06C
:101D1000C801DF91CF911F910F910C94EE0DCC353E
:101D20008DE5D807A1F0CD35DD4591F70E942E183D
:101D3000EFCF0E94490E80E0DF91CF911F910F916C
:101D400008950E949719F7CF0E943718E1CF0E949B
:101D50003A18DECF08950C94AA0E81E008950C94F1
:101D6000AD0E0895CF93C82F0E94AB0E8C2FCF914C
:101D70000C94AF0ECF93DF93CDB7DEB72B970FB692
:101D8000F894DEBF0FBECDBF4F83588769877A872F
:101D90008B8761110E945F181E8285E0FE013796D5
:101DA000DE01119601900D928A95E1F78C819D815B
:101DB000892B89F449815A816B817C818D819E8137
:101DC0000E9457172B960FB6F894DEBF0FBECDBFFB
:101DD000DF91CF91089589819A8189238F3F51F3B3
:101DE000CE0101960E94310E8111E4CFEBCFFC01B0
:101DF000808191810C9417150F931F93CF93DF93DC
:101E000000D000D000D0CDB7DEB7082F162F0E942B
:101E10005C2029834B835C836D837E83002399F050
:101E2000312B4981532F6B817C818D819E81269638
:101E30000FB6F894DEBF0FBECDBFDF91CF911F91DB
:101E40000F910C947D2010953123EBCFCF93C82FA9
:101E5000882369F18CEF8C0F813AA0F46C2F80916C
:101E60000601909107010E94FC23882329F08C2F02
:101E70000E94FE170E9482188C2F0E94F717CF91A4
:101E80000C94821880E28C0F883048F4C77081E08F
:101E900001C0880FCA95EAF70E944018F0CFCD3EE6
:101EA00030F08C2F0E94D91DCF910C94AC1ECF9195
:101EB0000895882361F19CEF980F913A20F40E94D5
:101EC000FE170C94821890E2980F983050F48770A7
:101ED00091E001C0990F8A95EAF7892F0E94461870
:101EE000F0CF9BE5980F933020F490E080E00C94C5
:101EF000BE2398E5980F973120F490E080E00C9491
:101F0000D4238D3E20F00E94331E0C94AC1E089505
:101F10001F93CF93DF93182FEB010E94260F20977A
:101F200031F4812FDF91CF911F910C94590F8FE9DC
:101F30009FE00197F1F700C000002197F0CF70E01B
:101F400060E0893311F460E570E00C94880F882319
:101F500021F00E9440180C9482180895882321F0E3
:101F60000E9446180C9482180895CF92DF92EF9247
:101F7000FF920F931F93CF93DF9300D000D00F9267
:101F8000CDB7DEB77C016D837983FC0112810581B9
:101F900002950F700E941518C82E8823A1F0C12E3B
:101FA000112389F08981807F803429F08D81805EC2
:101FB000C12C883040F082E00E94D3180E9415188E
:101FC00091E0C82EC926D980D2948FE0D822F8E0BB
:101FD000DF1609F4F9C0FD1508F454C023E02D15EF
:101FE00018F18981807F39813F70398391E09D1597
:101FF00008F05BC0803221F029812295207F29835F
:102000003D81332309F488C0313009F4A5C0112380
:1020100009F4ADC0002309F4A4C0F701858180FF55
:102020005BC08F7085839DC0E5E0DE1609F4B1C00A
:10203000ED2DE850FF0B349720F40E9498230E9466
:10204000B20ECC2009F4D6C10E94111880FDD2C175
:10205000F70112820E940B180E946C13C7010E94A4
:102060001F120E940B180F900F900F900F900F905F
:10207000DF91CF911F910F91FF90EF90DF90CF9064
:102080000C949D13F9E0DF1609F448C186E08D0D2C
:102090008F70823068F62D81223F09F050C189810E
:1020A0008F71112309F47EC147C1882321F0098172
:1020B0000295007F09831123B9F01981112361F082
:1020C0008D81805E883018F00D81011109C08981F1
:1020D0000E9440180E9482188D810E94260FA8CF6E
:1020E00089810E945118F6CF8D810E94590F198164
:1020F000112309F49DCF8D81805E883018F00D8109
:10210000011106C089810E9446180E94821890CF52
:1021100089810E945718F9CF112391F0011107C04E
:102120000E9465180981802B0E94A70F81CF013082
:10213000B9F70E9465181981812B0E946B1878CF1E
:10214000011106C00E94781889810E94AE0F70CFDD
:10215000013009F46DCFF6CF112329F0063008F0D5
:1021600067CF8981E1CF053008F062CFEDCF002342
:1021700059F30D81093349F41FEF27EE33E0115075
:1021800020403040E1F700C000008D810E94590FCF
:102190004FCF8D81112391F00E94D91DED81E15F18
:1021A000FF0BE830F10568F461E070E001C0660FF4
:1021B000EA95EAF7812F0E94FC0E3ACF0E94331E67
:1021C000EDCF0E94AC1E34CF8981837009F050C0DE
:1021D00011112ECF2D81229526952770220F220FC7
:1021E0008D818F7090E0B0E0A0E0022E04C0880FD7
:1021F000991FAA1FBB1F0A94D2F70D8140E050E03F
:10220000BA0104FF0FC04FE050E060E070E004C08E
:10221000440F551F661F771F2A95D2F7409550959A
:102220006095709519811695169513701D838A0116
:102230009B01082B192B2A2B3B2B09831A832B83F9
:102240003C831D8169817A818B819C81123051F0A0
:10225000133059F0113019F00E94E212E9CE0E94B9
:10226000BA12E6CE0E940A13E3CE0E94B812E0CE64
:102270008695112311F089818170882309F4D8CEC5
:102280002D81229526952770220F220F8D818F7028
:1022900090E0B0E0A0E0022E04C0880F991FAA1FB2
:1022A000BB1F0A94D2F70D8140E050E0BA0104FF51
:1022B0000FC04FE050E060E070E004C0440F551FD5
:1022C000661F771F2A95D2F74095509560957095B7
:1022D00019811695169513701D838A019B01082B91
:1022E000192B2A2B3B2B09831A832B833C831D81BB
:1022F00069817A818B819C81123051F0133059F0C1
:10230000113019F00E942B1493CE0E94031490CE2A
:102310000E9453148DCE0E9436138ACE09810F700D
:102320000983112329F0802F0E946C138D81FCCE2C
:102330008D810E94AE0F89810E949D1379CE2D81DF
:10234000233F60F4203FE1F0213F41F1112309F4E4
:1023500040C00111C1CE89818F7124C03D81333FBE
:1023600021F1343F99F7112351F109810F7109834C
:10237000802F0E946C1363E089810E94B81858CEA8
:10238000112341F0053008F053CE89818F710E94EE
:10239000D2134ECE063008F04BCEF7CF89818F7125
:1023A000112351F20E946C1343CE112329F089812D
:1023B0008F710E9447133CCE0E94421339CE81E0B8
:1023C0000E94D318023008F433CE82E00E94D31862
:1023D0002FCE002361F01D81193309F0D6CE2FEFE7
:1023E00037EE83E0215030408040E1F7CCCE898148
:1023F0008F71A2CF0F900F900F900F900F90DF91E1
:10240000CF911F910F91FF90EF90DF90CF900895A3
:102410000F931F93CF93DF93EC01688179818A81B9
:102420000E9423158C010E947B140E94B712B801F0
:10243000CE01DF91CF911F910F910C94B50FCF93E7
:10244000DF93EC018B819C81892B29F08881998114
:1024500089238F3F59F4DF91CF910895CE010E94D7
:102460000812CE01DF91CF910C94330ECE010E9461
:10247000580E8111F3CF0E941518882361F38A81C9
:10248000882349F382E0DF91CF910C94D3180E9406
:102490005F180E9462180E9482180E94D61F0C9436
:1024A000AC1E0E9405180C9447120E944E180C9402
:1024B0005112282F892F82958F70903C80F48A309A
:1024C000B0F4843020F4823090F480E008958630B7
:1024D000E1F781E0283E88F0213FB9F70EC08C304B
:1024E00011F08F3091F793FB882780F9089581E0F0
:1024F000203F39F018F4283E40F70895243F29F78B
:10250000FCCF0895FC01808191810E9417150C94E5
:102510005912CF93DF9300D000D00F92CDB7DEB722
:102520000F900F900F900F900F90DF91CF91089523
:10253000CF93DF9300D000D000D0CDB7DEB7269682
:102540000FB6F894DEBF0FBECDBFDF91CF910895D7
:1025500008950C94A8120E94A91260935D017093D3
:102560005E0180935F01909360010C94471208957F
:102570000C94AB12CF93DF9300D000D0CDB7DEB771
:1025800069837A838B839C8380915D0190915E0146
:10259000A0915F01B091600129813A814B815C81FA
:1025A000282B392B4A2B5B2B29833A834B835C8363
:1025B000CA01B9010F900F900F900F90DF91CF914A
:1025C0000C94AB12CF93DF9300D000D0CDB7DEB721
:1025D00069837A838B839C8380915D0190915E01F6
:1025E000A0915F01B091600129813A814B815C81AA
:1025F000282339234A235B2329833A834B835C8333
:10260000CA01B9010F900F900F900F90DF91CF91F9
:102610000C94AB12CF93DF9300D000D0CDB7DEB7D0
:1026200069837A838B839C8380915D0190915E01A5
:10263000A0915F01B091600129813A814B815C8159
:10264000282739274A275B2729833A834B835C83D2
:10265000CA01B9010F900F900F900F90DF91CF91A9
:102660000C94AB120C94A8120C9432130E943413E5
:102670006093590170935A0180935B0190935C01C0
:102680000C94471260E070E0CB010C9436130F936A
:102690001F93CF93DF9300D000D0CDB7DEB741E0DA
:1026A00050E060E070E08A019B0104C0000F111F40
:1026B000221F331F8A95D2F709831A832B833C8309
:1026C000C901B8010F900F900F900F90DF91CF913B
:1026D0001F910F910C9436130F931F93CF93DF9399
:1026E00000D000D0CDB7DEB741E050E060E070E050
:1026F00004C0440F551F661F771F8A95D2F780913B
:10270000590190915A01A0915B01B0915C018A013D
:102710009B01082B192B2A2B3B2B09831A832B8314
:102720003C83C901B8010F900F900F900F90DF917B
:10273000CF911F910F910C9436130F931F93CF934A
:10274000DF9300D000D0CDB7DEB741E050E060E0CD
:1027500070E004C0440F551F661F771F8A95D2F79B
:1027600040955095609570958091590190915A01CE
:10277000A0915B01B0915C018A019B0108231923A0
:102780002A233B2309831A832B833C83C901B80185
:102790000F900F900F900F90DF91CF911F910F919D
:1027A0000C9436130F931F93CF93DF9300D000D078
:1027B000CDB7DEB741E050E060E070E004C0440F08
:1027C000551F661F771F8A95D2F780915901909106
:1027D0005A01A0915B01B0915C018A019B0108271D
:1027E00019272A273B2709831A832B833C83C90196
:1027F000B8010F900F900F900F90DF91CF911F9124
:102800000F910C943613CF93DF9300D000D0CDB747
:10281000DEB769837A838B839C8380915901909181
:102820005A01A0915B01B0915C0129813A814B81F1
:102830005C81282B392B4A2B5B2B29833A834B83D2
:102840005C83CA01B9010F900F900F900F90DF9138
:10285000CF910C943613CF93DF9300D000D0CDB737
:10286000DEB769837A838B839C8380915901909131
:102870005A01A0915B01B0915C0129813A814B81A1
:102880005C81282339234A235B2329833A834B83A2
:102890005C83CA01B9010F900F900F900F90DF91E8
:1028A000CF910C943613CF93DF9300D000D0CDB7E7
:1028B000DEB769837A838B839C83809159019091E1
:1028C0005A01A0915B01B0915C0129813A814B8151
:1028D0005C81282739274A275B2729833A834B8342
:1028E0005C83CA01B9010F900F900F900F90DF9198
:1028F000CF910C9436130895292F220FE22FE90F60
:10290000EE0FE80F8E2F877041E001C0440F8A95CB
:10291000EAF7E695E695E69585E0E89FF001112453
:10292000EC5AFE4F30E020E070E05191DF0111974A
:10293000CB01022E02C0969587950A94E2F781702A
:1029400081958527842385278C932F5F3F4F2530E2
:10295000310559F70895292F220FE22FE90FEE0FC5
:10296000E80F9E2F9770E695E695E69585E0E89F3F
:10297000F0011124EC5AFE4F50E040E080E021913C
:1029800030E0092E02C0369527950A94E2F72170AF
:102990003327042E01C0220F0A94EAF7822B4F5FDF
:1029A0005F4F4530510559F70895BF92CF92DF929E
:1029B000EF92FF920F931F93CF93DF938C01C09000
:1029C0005901D0905A01E0905B01F0905C01809138
:1029D0005D0190915E01A0915F01B0916001C82AF4
:1029E000D92AEA2AFB2ACFE1D0E0BC2ED701C601C2
:1029F0000C2E04C0B695A795979587950A94D2F7A3
:102A000080FD0EC0219788F7B12C8B2DDF91CF91DF
:102A10001F910F91FF90EF90DF90CF90BF9008959E
:102A2000B8018C2F0E94481B019761F3EECFCF9322
:102A3000DF93D82FC92F0E94D5146D2F7C2FDF91E3
:102A4000CF910C94481B1F93CF93DF93162FD72F52
:102A500090915301992339F0862F972FDF91CF91D1
:102A60001F910C941715882391F0862F972F0E94A1
:102A7000D514C82F682F812F9D2F0E947C14612FA1
:102A80007D2F8C2FDF91CF911F910C94481B862FA7
:102A9000972F0E94AB14C82FF2CF1F93CF93DF93D1
:102AA000E091610116E0809162018E1304C0DF9114
:102AB000CF911F910895CE2FD0E01E9FF0011124D9
:102AC000ED59FE4F408151816281738184819581EE
:102AD0000E949812FE013196E770E5CF4091930174
:102AE00050919401609195017091960180919701A8
:102AF000909198010C9498121F93CF93DF9380913B
:102B00009801807FA9F480919501882389F08091B4
:102B10006101C09162016091930170919401A09153
:102B20009601B0919701D62FD72316E0C81304C0A1
:102B3000DF91CF911F91089590E0109711F0DF3F42
:102B400019F401968770F2CF189F9001199F300DEC
:102B50001124F901ED59FE4F41814713F2CF408115
:102B60004613EFCF42814111ECCF438154814A1B80
:102B70005B0B483C510528F7809198018F7080616C
:102B800080939801F901E859FE4F80818F70806130
:102B9000808383E991E00E941F12DF91CF911F9102
:102BA0000C944D15AF92BF92CF92DF92EF92FF92AD
:102BB0000F931F93CF93DF93CDB7DEB72B970FB64D
:102BC000F894DEBF0FBECDBF8C0185E0F801DE01B9
:102BD000179601900D928A95E1F7F801E28083E95A
:102BE000C82E81E0D82E60919601709197016115F1
:102BF000710509F440C19091930120919401822FB5
:102C000089238F3F09F437C140815181A380B4806B
:102C1000F0909501F501E61BF70BFF2009F4DDC0EC
:102C200080919801382F307FE83CF10508F0AFC063
:102C3000311179C0FE2C521323C0941321C0E1102E
:102C40001FC08F708061809398010E946E15C6012D
:102C50000E941F1280919801F80185838F2D2B9679
:102C60000FB6F894DEBF0FBECDBFDF91CF911F919D
:102C70000F91FF90EF90DF90CF90BF90AF900895AD
:102C8000AB2829F0852F84238F3F09F00DC180E008
:102C9000F82FF170DF2EE09161012091620136E0A2
:102CA00080FD1CC0EE20D1F280919801816080935C
:102CB0009801F12CD3CF8E2F90E03E9FF00111248C
:102CC000ED59FE4F6181561306C06081641303C045
:102CD0006281E612E7CFFC013196E770E213EBCF99
:102CE0004F8358878F8198850E941715292F229529
:102CF0002F70903260F0225F2F70223078F49F7036
:102D000051F0F8019581907F31F4D12C0AC09F7069
:102D100011F08823D1F3805E8830B8F3C8010E9497
:102D20001F12FD2C9BCF521306C0941304C0F80150
:102D3000EE2009F46DC0C8010E948212882319F1A7
:102D4000EE2009F180919801803270F0209193017A
:102D5000309194013A8329831B82BD82AC828E8399
:102D6000CE0101960E941F1286E0F801A3E9B1E0AE
:102D700001900D928A95E1F70E947C150E946E15D4
:102D8000FF24F3946BCFC8010E941F12F9CF3111B9
:102D900013C07A2DBB86AA866E2D8B850E94891260
:102DA00083E991E00E941F1286E0F60111928A9554
:102DB000E9F70E946E157DCF5213BDCF9413BBCFA0
:102DC000E110B9CFF8018583C8010E941F1286E087
:102DD000F60111928A95E9F741CFE83CF10508F038
:102DE0003DC0FE2CEE2079F252132AC0941328C065
:102DF0008091980180FD1BC0982F907FC1F0F80151
:102E00008583903F31F0982F907F905F8F70892B52
:102E10008583C8010E941F1286E0F801A3E9B1E092
:102E200001900D928A95E1F70E946E1517CF86E00A
:102E3000F801A3E9B1E001900D928A95E1F70ECF78
:102E4000C8010E94821281118FCF80919801816008
:102E500080939801C8010E941F1200CF7A2DBB8673
:102E6000AA866E2D8B850E94891286E0F60111924A
:102E70008A95E9F7D9CFEE2009F485CFC8010E94E1
:102E80008212F82E882309F47ECF86E0F801A3E9A8
:102E9000B1E001900D928A95E1F783E991E00E94FB
:102EA000F70E0E947C15C0CF81E08E25F1CE1F93D6
:102EB000CF93DF93CDB7DEB72C970FB6F894DEBF74
:102EC0000FBECDBF4F83588769877A878B879C87D2
:102ED000CE0107960E94D215882369F08A859B85CA
:102EE000892B39F04F815885842F85238F3F09F036
:102EF00077C016E065C086E0FE013796DE011196C8
:102F000001900D928A95E1F76A857B8561157105BF
:102F100081F35F814885842F85238F3F51F3209172
:102F2000620130E0C901019687709927E091610143
:102F3000E817190671F40E9455121092620110925E
:102F4000610186E0E3E9F1E0DF011D928A95E9F78E
:102F5000D0CF59834A837D836C8396E0929FD001C2
:102F6000939FB00D1124AD59BE4FFE0131960190D3
:102F70000D929A95E1F7809362010E944D15B9CFA9
:102F8000819FC00111248D599E4F0E94D215882324
:102F9000E9F0E09161011E9FF0011124ED59FE4F0F
:102FA0004081518162817381848195810E94981250
:102FB0008091610190E0019687709927809361016B
:102FC00080916101909162018913DACF2C960FB63E
:102FD000F894DEBF0FBECDBFDF91CF911F91089552
:102FE00069857A858B859C850E94981282CF682F8F
:102FF00080910601909107010C943624682F8091EE
:103000000601909107010C9438248091060190915B
:1030100007010C943A2480919901859585958595B1
:103020000895809199018770089590919901977002
:1030300081E009F480E008959091E90192FB222754
:1030400020F9281751F080FB92F99093E9018091C3
:10305000E8019091E9010C94161908958091E90115
:1030600082FB882780F991E089270C941C1881E065
:103070000C941C1880E00C941C188091A5010895F4
:103080009091A501982B9093A5010895982F909564
:103090008091A50189238093A50108951092A5012F
:1030A00008959091A401982B9093A4010895982FCE
:1030B00090958091A40189238093A4010895109292
:1030C000A40108951092A301089580919A01089592
:1030D00008950C9468189091E90192FD08C09091B0
:1030E0009A01981721F080939A010C946918089519
:1030F00080919A01882329F010929A0180E00C9423
:1031000069180895E0910601F09107018091A501E9
:103110008083E0910601F091070180819091A401E4
:10312000892B8083E0910601F091070180819091C5
:10313000A301892B808390919A01992381F0E091DA
:103140000601F09107018081892B8083809106011F
:10315000909107010E94EA2381110E9478188091C2
:103160000601909107010C94A42308950C94B518BE
:103170009091E90192FD10C098E0899F900111247F
:10318000622B609399010E946C138091990185953F
:10319000859585950C94B6180C946C131092990132
:1031A00080E00C94B61890919901809589238093C2
:1031B0009901282F277039F4282F082E000C330B83
:1031C0009217130621F49091E90192FF07C08595AB
:1031D000859585950E949D130C94CE1808956FEFE8
:1031E0007FEF90E080E00C94272D90E080E00E943B
:1031F000032D9C0181E0293E3E4F09F080E00895B7
:1032000082E090E00C94F52C83E090E00C94F52C97
:10321000CF9384E090E00E94F52CC82F82E290E0EA
:103220000E94F52C982F8C2FCF910895CF93682F63
:10323000C92F84E090E00E94092D6C2F82E290E07B
:10324000CF910C94092D8FE090E00C94FD2CAB01F4
:10325000BC018FE090E00C941B2DAB01BC0183E11D
:1032600090E00C941B2D60E070E0CB010C942D19C4
:1032700069EE7EEF90E080E00E94272D60E082E022
:1032800090E00E94092D60E083E090E00E94092D0B
:1032900010925D0110925E0110925F011092600128
:1032A00060E084E090E00E94092D60E082E290E01E
:1032B0000E94092D60E085E090E00E94092D60E009
:1032C00086E090E00E94092D6FEF87E090E00E9479
:1032D000092D40E050E0BA0188E090E00E941B2DEB
:1032E00060E08DE090E00E94092D40E050E0BA01DE
:1032F00088E190E00E941B2D60E087E190E00E9451
:10330000092D40E050E0BA018CE190E00E941B2DB5
:1033100070E060E080E290E00E94272D40E050E005
:10332000BA0188E190E00E941B2D0C94B00D0C9422
:103330003819682F8EE090E00C94092D0E94CC245F
:103340006093AC017093AD018093AE019093AF0197
:103350006093A8017093A9018093AA019093AB0197
:10336000089585B7806885BF85B7806885BF089553
:103370000895089508950E94B11987E29CE10E9482
:1033800030250E94B9190C94300D81E008950C94F9
:10339000C519089508950E94C9190C94CA190E946C
:1033A000B7240E94E31C0E94770D0C94E10DEF926C
:1033B000FF920F931F93CF93DF9300D000D00F9213
:1033C000CDB7DEB70E94EE1C81110E949E1980E0ED
:1033D0000E947D1C182F8091A701E82EE1268117FD
:1033E00009F446C08091B00181FD0E94831CF12C3C
:1033F00001E08E2D8023B9F10E94C719882399F02E
:10340000F9821A82102381E009F480E08B830E9404
:10341000C0248160782F9D838C8349815A816B8180
:103420008D810E94BA0E8091A70108270093A70101
:103430000E94C61E0E94790D0E9498239091A601B9
:10344000891739F10E9498238093A6010F900F905D
:103450000F900F900F90DF91CF911F910F91FF90E0
:10346000EF900C94B20EF394000F86E0F812C1CFE7
:103470008FEF89838A831B820E94C0248160782F0A
:103480009D838C8349815A816B818D810E94BA0E04
:10349000CFCF0F900F900F900F900F90DF91CF91A3
:1034A0001F910F91FF90EF900895CF93DF930E94AB
:1034B0004C1BEC01811522E5920708F04FC08115E5
:1034C00031E5930708F0A1C08F3F910509F0D8F4CA
:1034D0008D3E910508F094C0853A910568F40497F3
:1034E00038F491E080E0219709F090E0C92FD82FBF
:1034F000CE01DF91CF910895805E91090897C0F3C6
:10350000D0E0C0E0F5CF811540E5940758F4C1152F
:1035100080E4D80708F076C0CE019A9581159F41C6
:1035200038F3EECFE4E096958795EA95E1F783705E
:103530002C2F26952695237040E2249F900111247C
:10354000382B8C2F8370C1E0D0E002C0CC0FDD1F80
:103550008A95E2F7C22BD32BDC68CACFC11586E56A
:10356000D80730F5C11595E5D90708F062C0C11537
:1035700024E5D207C0F49C2F969596959E01237062
:103580003327C115D34508F045C0C1E0D0E002C0E3
:10359000CC0FDD1F2A95E2F720E2929FC001112493
:1035A000C82BD92BD9CFDC2FCC27C46FD06AA0CFA2
:1035B000C1153AE5D30788F4C11549E5D40708F0E9
:1035C00043C0CE0198558F3F910511F008F098CF78
:1035D000DC2FCC27C06FD06A8BCFCE0190568115DF
:1035E000904208F08DCF8D2F8F710E94E41B90E0E8
:1035F000982F882788279F719C012C2BE90122C0D6
:10360000D06576CFDF70D06A73CFD82FCC27C16F4B
:10361000D06A6ECFC1E0D0E002C0CC0FDD1F2A958A
:10362000E2F730E2939FC0011124C82BD92BDA684E
:103630005FCF8C2F0E94E41BC82FD0E0DC2FCC275B
:10364000CC27DF71D06254CF8C2F8F700E94E41B87
:1036500034E0D695C7953A95E1F7CF70DC2FC82FA7
:10366000D06946CFE62F272F280F3327331FC901F4
:1036700026E0289FB001299F700D1124E60FF72F37
:10368000F11DEE0FFF1FE655FF4E859194910895B1
:103690000E94321B0C94551A803E910599F1C8F492
:1036A0008133910509F476C048F48932910509F413
:1036B0006AC08A32910509F474C00895893391056E
:1036C000D1F082389105B9F08533910509F454C0E1
:1036D0000895843E910599F138F4823E9105F9F000
:1036E000833E910509F10895863E910599F1873E43
:1036F0009105B9F108952091E8012370A1F080EEC1
:1037000090E008952091E80120FD52C03091E90138
:1037100030FF09C024FF4FC090E080E004C020913A
:10372000E80122FDF7CF08952091E80122FD46C06F
:103730003091E90130FDE3CF24FFF5CFEDCF2091AB
:10374000E90121FFF0CF8091E80184FDE5CF87EE0C
:1037500090E008952091E80123FFE5CF24FDDCCF20
:10376000F6CF2091E80123FD2CC03091E90131FF13
:10377000E3CF84EE90E008952091E80125FFD3CFB8
:1037800089E290E008952091E80125FFCCCF85E300
:1037900090E008952091E80126FFC5CF8AE290E0ED
:1037A00008952091E80126FFBECF81E390E00895BF
:1037B00089E390E0089583EE90E0089582EE90E032
:1037C000089586EE90E008959091E80192FF06C07A
:1037D000282F28712830F9F4877F846093FF06C072
:1037E000282F28712831F1F4877E84612091E90126
:1037F00020FF06C0382F38713830D9F4877F8160B8
:1038000021FF06C0282F28712831D1F4877E8161DD
:1038100094FD877E0895282F24712430F9F68B7F3C
:103820008860DCCF282F2471243101F78B7E8861DA
:10383000DDCF382F3171313019F78E7F8860E0CFBE
:10384000282F2171213121F78E7E8861E1CF80E020
:1038500008950C94EF180E94EE1C8FE39CE90197E9
:10386000F1F700C000000E94EE1C80E00E947D1C69
:1038700084FF04C00E94291C0C941F2508950C94F9
:103880002B1CCF93DF9300D000D0CDB7DEB70E94C2
:10389000F518811102C00E9497190E9400198093A7
:1038A000B0010E9408199093E9018093E8010E94F9
:1038B0003F1C0E940419282F30E050E040E0CA016C
:1038C000B9010E94B8128091590190915A01A091BA
:1038D0005B01B0915C0189839A83AB83BC83BC019B
:1038E000CD010F900F900F900F90DF91CF910C941E
:1038F0003413089508950C947A1CE82FF0E0E551F4
:10390000FE4F808108950895CF93A3E2B1E049E28C
:1039100051E061E070E08D918F3F91F0E82FE295EA
:10392000EF70F0E0C1A18F709B0101C0220F8A955A
:10393000EAF7922F90959C2391A382A1822B82A3D8
:103940004A175B0741F7CF910895EF92FF921F93BB
:10395000CF93DF939C01E62EF12C86E0689FF00167
:103960001124ED5DFE4F70E060E050E0C1E0D0E07A
:1039700041914F3FB9F0842F82958F7090E0DC0128
:1039800090968C9190E04F7002C0959587954A95DE
:10399000E2F780FD16C0CE01062E01C0880F0A9402
:1039A000EAF7582B6F5F7F4F6630710509F7D70133
:1039B000A20FB31F5C93DF91CF911F91FF90EF9007
:1039C000089580E0EECF0E94841C1092EA011092CC
:1039D000EB0181E00E94141D0C94400E1F93CF93C5
:1039E000DF930F92CDB7DEB7198260E0CE0101966A
:1039F0000E94A51C9091EA01898111E0981301C0F1
:103A000010E098138093EA01212F41E06BEE71E002
:103A10008AEE91E00E94151D0E94460E812F0F90A4
:103A2000DF91CF911F9108950895FF920F931F93F7
:103A3000CF93DF93F82E092F162FD72FC42F2223D1
:103A400049F081E08093B3010E94C0249093B201B9
:103A50008093B1018091B3018823A1F08091B101DD
:103A60009091B2010E94EC24059760F0EF2DF02FA9
:103A7000A12FBD2FCE0FDF2FD11DEC17FD0741F475
:103A80001092B301DF91CF911F910F91FF90089594
:103A900081918D93F2CF0E9442240E945D260E9464
:103AA00076260E9488260E94CB19FBCF8091BA010E
:103AB00080FF12C060910D0185E0689FB001112464
:103AC000759567957595679560387105A8F56115C9
:103AD0007105A1F1862F089581FF09C060910D0144
:103AE00085E0689FB001112475956795EDCF6091D1
:103AF0000D0182FD0AC08091B9018823D1F0909117
:103B00000C0160910D01891728F085E0689FB001D4
:103B10001124DACF869FB001112485E0869F9001A1
:103B2000879F300D1124692F70E0C9010E94DB2CA2
:103B3000CBCF65E070E0CECF8FE7089581E00895A8
:103B40008091BA0180FF0CC06091090170E0759509
:103B50006795759567956115710549F1862F0895EB
:103B600081FF06C06091090170E075956795F3CFFC
:103B70006091090182FD0BC09091B8019923A1F0D9
:103B80006091080180910901961738F0682F70E064
:103B90006038710500F38FE70895899FC0011124F3
:103BA00070E00E94DB2CF4CF61E070E0D7CF81E0C1
:103BB00008958D3E31F40E94561D81958093BE017B
:103BC00008958E3E19F40E94561DF8CF8F3E31F4B1
:103BD0000E94561D81958093BD010895803F19F480
:103BE0000E94561DF8CF893F29F40E94A01D8093A2
:103BF000BF0108958A3F21F40E94A01D8195F7CF4F
:103C00008B3F31F40E94A01D81958093C0010895DF
:103C10008C3F19F40E94A01DF8CF9FE0980F9830B8
:103C200070F4815F990B21E030E001C0220F8A958A
:103C3000EAF78091BC01822B8093BC0108958D3FEF
:103C400031F48091BA0181608093BA0108958E3F6A
:103C500021F48091BA018260F7CF8F3FB9F780914C
:103C6000BA018460F1CF4091BD018D3E59F480913D
:103C7000BE0187FF0DC01092BE0141110BC0109212
:103C8000B90108C08E3E81F48091BE0118169CF3E4
:103C9000442381F08091BF019091C001892B09F0EC
:103CA0005AC01092B80108958F3E49F447FFF0CFF3
:103CB0001092BD018091BE018111ECCFE0CF803F19
:103CC00019F41416ACF3E4CF9091BF01893F29F4A5
:103CD0001916F4F61092BF01DBCF8A3F19F497FF53
:103CE000D7CFF8CF9091C0018B3F29F497FFD0CF69
:103CF0001092C001CDCF8C3F19F41916CCF3C8CF68
:103D00009FE0980F983090F4815F990B21E030E0AC
:103D1000B90102C0660F771F8A95E2F7CB01809543
:103D20009091BC0189238093BC01B2CF8D3F31F4C7
:103D30008091BA018E7F8093BA01AACF8E3F21F481
:103D40008091BA018D7FF7CF8F3F09F0A1CF80918D
:103D5000BA018B7FF0CF08950E94C0242091BD014D
:103D60003091BE01232B21F08093B6019093B701CF
:103D70002091BF013091C001232B21F08093B40129
:103D80009093B5018BEB91E00C94AF23EF92FF92EF
:103D90000F931F93CF93DF9300D000D000D0CDB707
:103DA000DEB786E0EBEBF1E0DE01119601900D92BB
:103DB0008A95E1F7E090BD01F090BE010091BF014E
:103DC0001091C0011092BD011092BE011092BF016E
:103DD0001092C0018F2D8E2991F08091B6019091A3
:103DE000B7010E94EC249C018091B901882309F459
:103DF00043C090910E019217130608F44BC0802F18
:103E0000812B91F08091B4019091B5010E94EC2436
:103E10009C018091B801882309F47BC090910A012C
:103E20009217130608F483C08091BD019091BE01E2
:103E3000892B9091BF01892B9091C001892B11F0A2
:103E40000E94AC1EEB82FC820D831E8386E0FE0185
:103E50003196ABEBB1E001900D928A95E1F7269691
:103E60000FB6F894DEBF0FBECDBFDF91CF911F918B
:103E70000F91FF90EF90089540910F019AE0499FB4
:103E8000A00111244217530708F0B9CF8F5F809328
:103E9000B90102C08F3FD1F7EE2059F00E94561DA4
:103EA0009FEF1E140CF491E0899F802D11248093C4
:103EB000BD01FF2059F00E94561D9FEF1F140CF406
:103EC00091E0899F802D11248093BE013091BD0126
:103ED000332309F494CF2091BE01222309F48FCF1C
:103EE00045EB3403C0011124992359F09093BD018F
:103EF00045EB240390011124332339F03093BE01A4
:103F00007ECF81E08093BD01F3CF81E08093BE013D
:103F100076CF40910B019AE0499FA00111244217EE
:103F2000530708F081CF8F5F8093B80102C08F3FA5
:103F3000D1F7002359F00E94A01D9FEF10160CF43A
:103F400091E0899F802D11248093BF01112359F0A6
:103F50000E94A01D9FEF11160CF491E0899F802D07
:103F600011248093C0013091BF01332309F45CCF49
:103F70002091C001222309F457CF45EB3403C0013F
:103F80001124992359F09093BF0145EB240390012C
:103F90001124332339F03093C00146CF81E0809360
:103FA000BF01F3CF81E08093C0013ECF86E0EBEB11
:103FB000F1E0DF011D928A95E9F71092B9011092A4
:103FC000B8011092BA010895EF92FF920F931F93D8
:103FD000CF93DF93CDB7DEB72C970FB6F894DEBF43
:103FE0000FBECDBF7C838D839E831A872B873C8732
:103FF0005F1119C0662311F0061315C08C81882348
:1040000019F09A8598130FC08E81882319F09C852A
:10401000981309C09D81992321F081E02B852913F4
:1040200003C080E001C081E081702C960FB6F89447
:10403000DEBF0FBECDBFDF91CF911F910F91FF90DB
:10404000EF900895EF92FF920F931F93E090C101BC
:10405000F090C2010091C3011091C4012091C501EB
:104060003091C6014091C7015091C8016091C901CA
:104070007091CA018091CB019091CC010E94E41F04
:10408000882321F087EC91E00E94AF231092C901B0
:104090001092CA011092CB011092CC0186E0E7EC9D
:1040A000F1E0A1ECB1E001900D928A95E1F71F914A
:1040B0000F91FF90EF900895CF93DF9300D000D041
:1040C00000D0CDB7DEB786E0E7ECF1E0DE01119677
:1040D00001900D928A95E1F729813A814B815C81AB
:1040E0006D817E8180E090E026960FB6F894DEBF69
:1040F0000FBECDBFDF91CF910895CF93DF9300D056
:1041000000D000D0CDB7DEB749835A836B837C8360
:104110008D839E8386E0FE013196A7ECB1E001908D
:104120000D928A95E1F726960FB6F894DEBF0FBE82
:10413000CDBFDF91CF9108950F931F93CF93DF935E
:10414000C42FD22FFC0182818823C9F04093CF0174
:104150000E94C0249093CE018093CD0180E28C0F09
:10416000883008F050C0C77081E001C0880FCA9540
:10417000EAF7DF91CF911F910F910C94A70F109147
:10418000CF01141335C08091CD019091CE010E94D2
:10419000EC24883C910560F5C0E2CD0F1D17B9F005
:1041A00080E2810F883040F4177081E001C0880FF1
:1041B0001A95EAF70E94AE0FC83048F481E09D2FAF
:1041C000977001C0880F9A95EAF70E94A70F802F79
:1041D0000E949F0FC830B8F4D77081E001C0880FEB
:1041E000DA95EAF7DF91CF911F910F910C94AE0F02
:1041F00080E28C0F883038F4C77081E001C0880FEE
:10420000CA95EAF7EFCFDF91CF911F910F910895F3
:104210000F939C01CB01243F4CE53407A1F190F4AE
:10422000293DFCE53F0749F12A3D4CE53407E9F11A
:10423000283D3C45C1F0FC0182818823E1F11092C8
:10424000CF0119C0263FFCE53F0719F1273F4CE598
:10425000340729F1253F3C4571F707E225EE44EE8E
:1042600065EF7CE505C006E221EE41EE68ED7CE5F8
:104270000E949C2080E00F91089507E225EE45EE14
:1042800069ED7CE5F5CF06E221EE40EE64EF7CE5DA
:10429000EFCF06E221EE42EE66EF7CE5E9CF07E2E2
:1042A00025EE46EE67EF7CE5E3CF08E221E045EE40
:1042B0006AED7CE5DDCF81E0DECFCF93DF93EC01CB
:1042C000FB018281882309F4C9C0C631FCE5DF0700
:1042D000E0F4C2309CE5D907F0F00E9408199093F1
:1042E000E9018093E801C631ECE5DE0720F5C23034
:1042F000FCE5DF0798F48091E8019091E9010E94C4
:1043000016190E94551280E006C09E012B5F3C45A5
:104310002930310510F3DF91CF910895FE01E3506C
:10432000FC458091E8018160E331F10588F4E15CAE
:10433000F24D0C94EF2CCB5FDC45C930D105D8F69B
:10434000CE5AD24DFE010C94EF2C8091E801826090
:104350008093E801D0CF8091E8018460F9CF80910B
:10436000E8018860F5CF8091E90181608093E901DF
:10437000C2CF8091E9018260F9CF8091E80180612C
:10438000E7CF8091E8018062E3CF8091E80180640B
:10439000DFCF0E9455128091E8018068D9CF8091CB
:1043A000E8018C60D5CF8091E9018360DFCF8091F7
:1043B000E8018E7FCDCF8091E8018D7FC9CF8091BC
:1043C000E8018B7FC5CF8091E801877FC1CF8091C5
:1043D000E9018E7FCBCF8091E9018D7FC7CF80919E
:1043E000E8018F7EB5CF8091E8018F7DB1CF8091BC
:1043F000E8018F7BADCF0E9455128091E8018F7745
:10440000A7CF8091E801837FA3CF8091E9018C7FC2
:10441000ADCF8091E80182FB992790F921E09227A6
:1044200090FB82F990FB83F993CF8091E901982F5B
:10443000909591708E7F892B90FB81F997CF0E9488
:1044400055129091E801892F97FB87F9805880CF0A
:1044500081E00E9499194FCF80E0FBCF81E05BCFD4
:10446000CF93DF93EB0186319C4511F50E943D18F7
:104470009A81992399F08A7A91E009F490E09093D7
:10448000D001811109C089E20E94F7170E948218A9
:1044900080E0DF91CF91089585E3F6CF8091D00140
:1044A000811104C089E20E94FE17F0CF85E3FBCFA3
:1044B00081E0EFCF803F09F188F4843901F140F4C5
:1044C0008533F9F08633F9F0843339F583E20895C2
:1044D0008639D9F0873909F582E20895853FB9F028
:1044E00030F4813FB1F0843FC1F484E00895863F09
:1044F00091F0873F91F487E0089580E0089580E28D
:10450000089584E2089585E2089581E2089585E0A2
:10451000089581E0089586E008958FE1089596E872
:1045200090937A00982F9072906890937B008F718F
:1045300090911001892B80937C0080917A00806497
:1045400080937A0080917A0086FDFCCF809178007C
:104550002091790090917A009F7790937A00922F22
:1045600008950E945A220C948F22289A219A229A06
:1045700023982B9880E58CBD0895F9019091110145
:104580009F3F09F074C08F3F09F471C061114AC0A8
:104590001092D2019091D201423009F447C04330C9
:1045A00009F448C09460413009F441C021E030E092
:1045B0002E173F0708F440C09091D20120323105F8
:1045C00009F450C0E0F52830310509F446C0203127
:1045D000310509F445C022303105D9F19CB520914F
:1045E000D201922B9CBD9091D101992319F09DB5D8
:1045F00091609DBD80931101E82FE295EF70F0E08E
:1046000031A1282F2F7081E090E001C0880F2A95FA
:10461000EAF7932F982B91A392A18095892382A3E7
:1046200081E0089590E29093D201B4CF9860909386
:10463000D201BCCF9C60FBCF220F331FB9CF2034F7
:10464000310599F093602038310541F69093D201FD
:10465000C5CF91E09093D101C1CF21E02093D1014A
:104660009160F4CF21E02093D1019260EFCF80E000
:104670000895CF93DF938EBD0E94C024EC010DB44A
:1046800007FE05C08EB590E0DF91CF9108950E949E
:10469000C0248C1B9D0B8436910588F38EEF9FEF11
:1046A000F3CFCF93DF931EBC0E94C024EC010DB466
:1046B00007FE05C08EB590E0DF91CF9108950E946E
:1046C000C0248C1B9D0B8436910588F38EEF9FEFE1
:1046D000F3CF809111018F3F29F1E82FE295EF7020
:1046E000F0E041A18F7021E030E0B90102C0660F17
:1046F000771F8A95E2F7CB01942F982B91A392A173
:10470000892B82A38FEF809311018DB58E7F8DBD94
:104710009CB58091D201809589238CBD1092D201E5
:104720001092D10108959093D8018093D7010895F4
:10473000E091D701F091D801309721F00190F081FC
:10474000E02D099480E00895E091D701F091D8011F
:10475000309721F00280F381E02D09940895DC0167
:10476000E091D701F091D801309739F082E08C9335
:104770000480F581E02DCD01099408952091D501A3
:104780003091D6012817390771F09093D6018093A4
:10479000D501E091D701F091D801309721F0068042
:1047A000F781E02D099408952091D3013091D4012F
:1047B0002817390771F09093D4018093D301E091C9
:1047C000D701F091D801309721F00084F185E02DD8
:1047D00009940895AC019C012E5F3F4F485F5F4FE5
:1047E00080E02417350709F40895F90191919F019C
:1047F0009923B9F38F5FF5CF9C01662351F0FC013B
:104800003296285F3F4F8191861729F0E217F30710
:10481000D1F780E0089581E008959C01FC01329673
:104820008FEF90E04191461751F08F3F19F44111FD
:1048300001C0892F9F5F9630A9F78F3F09F4089533
:10484000280F311D87FD3A95F901628308959C0177
:10485000FC013296285F3F4F8191861303C0DF0130
:1048600011971C92E217F307B9F708950C940D24E1
:104870000C942724FC01329686E0DF011D928A9574
:10488000E9F708950895089508950C9444248091BB
:10489000F401843049F10E94452480E00E94B20E68
:1048A0001092D90188E190E020E40FB6F894A89521
:1048B000809360000FBE2093600083B7817F846087
:1048C00083BF83B7816083BF7894889583B78E7FD9
:1048D00083BF0FB6F894A89580916000886180939B
:1048E0006000109260000FBE089508950E94432456
:1048F0000E94EE1C0E94752480E00E947D1C982F6F
:1049000081E0911101C080E0089508950C94852400
:104910000E9455120E9498230E94B20E0C94862485
:104920001F921FB61F9211248F939F93AF93BF9333
:104930008091D901811113C08091EC019091ED011A
:10494000A091EE01B091EF014196A11DB11D8093A0
:10495000EC019093ED01A093EE01B093EF01BF91B4
:10496000AF919F918F911F901FBE1F90189582E06D
:1049700084BD93E095BD9AEF97BD80936E00089536
:104980002FB7F8948091EC019091ED01A091EE0188
:10499000B091EF012FBF0895CF93DF9300D000D0E7
:1049A000CDB7DEB78FB7F8942091EC013091ED01CF
:1049B0004091EE015091EF0129833A834B835C8350
:1049C0008FBF69817A818B819C810F900F900F90AE
:1049D0000F90DF91CF9108959C014FB7F89480918B
:1049E000EC019091ED01A091EE01B091EF014FBF6C
:1049F000821B930B089578941F921FB61F92112467
:104A00008F939F93AF93BF938091EC019091ED01B1
:104A1000A091EE01B091EF010196A11DB11D80930F
:104A2000EC019093ED01A093EE01B093EF01BF91E3
:104A3000AF919F918F911F901FBE1F90189587E790
:104A400097E7909301088093000888E19AE00FB6F9
:104A5000F894A895809360000FBE90936000FFCFFC
:104A600090932B0180932A0108958091E20108958B
:104A7000089522E02093E9002FEF3091E8002150C3
:104A800035FD06C035ED3A95F1F700002111F5CF5F
:104A90002091E80025FF0BC050E040E066E070E0A8
:104AA0000E9415278091E8008E778093E800089592
:104AB000CF93DF93D82FC92F81E08093E9008FEF48
:104AC0009091E800815095FD06C095ED9A95F1F71B
:104AD00000008111F5CF8091E80085FF16C050E0FD
:104AE00040E068E070E08D2F9C2F0E941527809198
:104AF000E8008E778093E80088E0ED2FFC2FAAED88
:104B0000B1E001900D928A95E1F7DF91CF91089580
:104B100008958091F301811109C00E949D280E948F
:104B2000FA288091E20084608093E2000895109258
:104B3000F301089508950895089542E061EC81E03D
:104B40000E94192842E261EC82E00C9419288091BD
:104B5000F601893089F148F4823009F49DC0833030
:104B600009F458C0813041F008958A3009F484C0B6
:104B70008B3009F46AC008958091F501813A09F0FB
:104B800048C08091E800877F8093E8008091F90118
:104B90009091FA01892B61F468E08AED91E070E070
:104BA0000E9464278091E8008B778093E800089545
:104BB00060E090E080E0F3CF8091F501813249F52B
:104BC0008091F9019091FA01029718F58091E8001F
:104BD000877F8093E8008091E80082FF16C0909163
:104BE000F3008091F200029729F48091F1008B7F0D
:104BF000813021F48091F1008093E2018091E800FE
:104C00008B778093E8000C944D288091F4018111FA
:104C1000E2CF08958091F501813AD9F78091F901A9
:104C20009091FA01892BA9F78091E800877F809302
:104C3000E8008091E80080FFFCCF80911C01809308
:104C4000F1008091E8008E77DCCF8091F501813210
:104C500001F78091F9019091FA01892BD1F68091A9
:104C6000E800877F8093E8000E944D288091F7013B
:104C700080931C010C9455128091F501813249F604
:104C80008091E800877F8093E8000E944D28809102
:104C9000F8018093E30108958091F501813A09F0CC
:104CA000B8CF8091E800877F8093E8008091E8008A
:104CB00080FFFCCF8091E301C2CF84B7877F84BFA0
:104CC0000FB6F894A8958091600088618093600089
:104CD000109260000FBE80E890E00FB6F8948093C9
:104CE0006100909361000FBE0C94BB190E949D2837
:104CF0000E94FA28E2EEF0E080818460808378945C
:104D00000E94822B0E94CF1982E191E00C949323A0
:104D10008091F401853031F48091F401853021F0E7
:104D20000E9488240C94D7190E9447248091F20194
:104D3000882391F30E947624882371F30E94FF2632
:104D40000E945512E9CF0C94A526FC01CB01DA0193
:104D50002F2F332723303105D1F070F42130310566
:104D600009F43EC02230310569F48BE390E02CED6C
:104D700030E12D933C93089521323105E9F0223240
:104D8000310521F190E080E030E020E0F2CFCF016A
:104D90009927E13059F08230910559F0E8EDF0E1C2
:104DA000892B81F7849190E09F01E3CFE4ECF0E15F
:104DB000F9CFE6EBF0E1F6CF892BB9F06130710560
:104DC00009F789E090E027E031E1D3CF892B91F01A
:104DD00061307105B9F689E490E029E231E1C9CF8B
:104DE00082E190E027E131E1C4CF89E090E02EEE4E
:104DF00030E1BFCF80E490E022E731E1BACF80E13B
:104E000089BD82E189BD09B400FEFDCF8091D80043
:104E10008F7D8093D8008091E00082608093E000D5
:104E20008091E00081FDFCCF0895AF92BF92CF92B8
:104E3000DF92FF920F931F93CF93DF936C01EB01EF
:104E40008A010E946C28F82E811123C001151105DA
:104E500039F0F80180819181C81BD90BC80ED91E89
:104E6000B12CA12C2097A9F08091E80085FD22C0EB
:104E70008091E8008E778093E80001151105A1F07C
:104E8000F80180819181A80EB91EB182A08285E0CF
:104E9000F82E8F2DDF91CF911F910F91FF90DF9012
:104EA000CF90BF90AF9008950E946C288823D1F2D4
:104EB000F82EEFCFF60181916F018093F1002197D9
:104EC000FFEFAF1ABF0ACECFFC01CB012091FB014F
:104ED0003091FC012617370790F0009729F42091B4
:104EE000E8002E772093E80040E0009751F441114C
:104EF00008C08091E80082FF31C080E00895C901B8
:104F0000F3CF2091F4012223A9F12530A9F12091BA
:104F1000E80023FD2DC02091E80022FDEACF20917A
:104F2000E80020FFE2CF3091F3002091F2000097DB
:104F300019F02830310558F041E02830310509F0EA
:104F400040E02091E8002E772093E800CECF4191F9
:104F50004093F10001972F5F3F4FE9CF8091F4011B
:104F6000882341F0853041F08091E80083FFC1CF74
:104F700081E0089582E0089583E00895FC01CB016B
:104F80002091FB013091FC012617370790F0009724
:104F900029F42091E8002E772093E80040E0009764
:104FA00051F4411108C08091E80082FF32C080E0D6
:104FB0000895C901F3CF2091F4012223B1F12530E6
:104FC000B1F12091E80023FD2EC02091E80022FDE0
:104FD000EACF2091E80020FFE2CF3091F30020914A
:104FE000F200009719F02830310558F041E02830E0
:104FF000310509F040E02091E8002E772093E80089
:10500000CECF44914093F100319601972F5F3F4FEF
:10501000E8CF8091F401882341F0853041F0809100
:10502000E80083FFC0CF81E0089582E0089583E027
:105030000895982F973028F08F708093E90081E0D1
:1050400008959093E900242F762F50E0981731F0BF
:105050007091EC002091ED005091F00021FD02C014
:105060009F5FE8CF3091EB003E7F3093EB003091B3
:10507000ED003D7F3093ED003091EB0031603093D7
:10508000EB007093EC002093ED005093F000209122
:10509000EE0027FDE5CF80E008958091F50187FFC0
:1050A00013C08091E80082FF06C08091E8008B77F2
:1050B0008093E80004C08091F4018111F2CF08953B
:1050C0008091F4018823D9F38091E80080FFF8CF24
:1050D0008091E8008E77ECCF2091E4003091E500DC
:1050E00095E6A9012091EC00822F817020FF06C077
:1050F0008091E80080FF06C080E008952091E800DC
:1051000022FD1AC08091F401882389F0853089F04E
:105110008091EB0085FD0FC02091E4003091E50007
:1051200042175307F9F29150E1F684E0089582E0C6
:10513000089583E0089581E008950E940B290E945C
:105140001329E0EEF0E0808181608083E8EDF0E0FB
:1051500080818F77808319BCA7EDB0E08C918E7F22
:105160008C9380818F7E80831092F30108950F933A
:105170001F93CF93DF930E940B290E941329C8ED40
:10518000D0E088818F778883888180688883888150
:105190008F7D888319BC1092F4011092F001109257
:1051A000F2011092F10100EE10E0F80180818B7F96
:1051B000808388818160888342E060E080E00E9493
:1051C0001928E1EEF0E080818E7F8083E2EEF0E04E
:1051D000808181608083808188608083F801808104
:1051E0008E7F8083888180618883DF91CF911F913A
:1051F0000F910895E8EDF0E080818F7E8083E7EDE8
:10520000F0E080818160808384E082BF81E08093D0
:10521000F3010C94B728E8EDF0E080818E7F808365
:105220001092E20008951092DA001092E1000895C1
:105230001F920F920FB60F9211242F933F934F930B
:105240005F936F937F938F939F93AF93BF93EF93EE
:10525000FF938091E10082FF0BC08091E20082FF0A
:1052600007C08091E1008B7F8093E1000E94812B39
:105270008091DA0080FF19C08091D80080FF15C0AE
:105280008091DA008E7F8093DA008091D90080FFD0
:1052900094C080E189BD82E189BD09B400FEFDCFE3
:1052A00081E08093F4010E9489258091E10080FFD4
:1052B00019C08091E20080FF15C08091E2008E7FCE
:1052C0008093E2008091E20080618093E20080910F
:1052D000D80080628093D80019BC85E08093F401E7
:1052E0000E949B258091E10084FF29C08091E2000B
:1052F00084FF25C080E189BD82E189BD09B400FE3B
:10530000FDCF8091D8008F7D8093D8008091E100FF
:105310008F7E8093E1008091E2008F7E8093E20097
:105320008091E20081608093E2008091F001882307
:1053300009F449C084E08093F4010E949C25809187
:10534000E10083FF29C08091E20083FF25C08091A6
:10535000E100877F8093E10082E08093F401109266
:10536000F0018091E1008E7F8093E1008091E20066
:105370008E7F8093E2008091E20080618093E20062
:1053800042E060E080E00E9419288091F00088608F
:105390008093F0000E949A25FF91EF91BF91AF9109
:1053A0009F918F917F916F915F914F913F912F913D
:1053B0000F900FBE0F901F90189519BC1092F4011A
:1053C0000E94972572CF8091E30087FD02C081E0A3
:1053D000B2CF83E0B0CF1F920F920FB60F9211247D
:1053E0002F933F934F935F936F937F938F939F93ED
:1053F000AF93BF93CF93DF93EF93FF93D091E900E7
:10540000DF708091EC00C82FC17080FDC0E8109261
:10541000E9008091F000877F8093F00078940E94EB
:105420002F2A1092E9008091F00088608093F000AC
:10543000CD2BCF70C093E900FF91EF91DF91CF9119
:10544000BF91AF919F918F917F916F915F914F919C
:105450003F912F910F900FBE0F901F9018951F93A3
:10546000CF93DF93CDB7DEB7AA970FB6F894DEBF20
:105470000FBECDBF85EF91E0FC0101962091F100B8
:10548000208321E08D3F9207B9F70E94A7258091E4
:10549000E80083FF1EC18091F5019091F6019A30DA
:1054A00008F017C1E92FF0E0E55AF24D0C94EF2C0B
:1054B000803899F0823809F00CC18091F9018F7021
:1054C000873008F006C18093E9008091EB0085FBEE
:1054D000882780F91092E90006C08091F10190912F
:1054E000F201911182609091E800977F9093E8001B
:1054F0008093F1001092F1008091E8008E77E5C072
:10550000882309F4D3C0823009F0E3C08091F70109
:105510008111D6C08091F9018F702FEF280F2630AE
:1055200008F0D7C08093E9002091EB0020FFC8C0AD
:10553000933031F48091EB0080628093EB00C0C027
:105540009091EB0090619093EB0021E030E001C07E
:10555000220F8A95EAF72093EA001092EA008091E0
:10556000EB008860EACF8111B4C01091F7011F777A
:105570008091E3008078812B8093E3008091E800A4
:10558000877F8093E8000E944D288091E80080FF8B
:10559000FCCF8091E30080688093E30082E01111EA
:1055A00083E08093F40195C08058823008F091C068
:1055B0008091F7019091F8018C3D23E09207A1F5CD
:1055C00083E08A838AE289834FB7F894DE011396D9
:1055D00020E03EE051E2E32FF0E050935700E491E9
:1055E00020FF03C0E295EF703F5FEF708E2F90E0D9
:1055F000EA30C0F0C7968D939D932F5F243159F701
:105600004FBF8091E800877F8093E8006AE270E0F6
:10561000CE0101960E9464278091E8008B778093E9
:10562000E80057C0C096E7CF6091F9017091FA0188
:10563000AE014F5F5F4F0E94A326BC01892B09F486
:1056400048C08091E800877F8093E80089819A8133
:105650000E94BE27E1CF8038E1F58091E800877F86
:105660008093E8008091F0018093F10045CF811193
:1056700030C09091F701923060F58091E800877F0B
:105680008093E8009093F0010E944D288091F001F2
:10569000882311F084E005C08091E30087FDFACFF4
:1056A00081E08093F4010E949D2513C08091F70151
:1056B000813079F481E0933009F080E08093F20149
:1056C0001092E9008091E800877F8093E8000E94B3
:1056D0004D288091E80083FF0AC08091E800877F11
:1056E0008093E8008091EB0080628093EB00AA96A3
:1056F0000FB6F894DEBF0FBECDBFDF91CF911F91E3
:1057000008950895CF938091F4018823A1F0C0916A
:10571000E900CF709091EC00892F817090FD80E8B6
:10572000C82B1092E9008091E80083FD0E942F2A87
:10573000CF70C093E900CF9108950E94112C88F09A
:105740009F5798F0B92F9927B751B0F0E1F0660F45
:10575000771F881F991F1AF0BA95C9F714C0B13086
:1057600091F00E942B2CB1E008950C942B2C672F04
:10577000782F8827B85F39F0B93FCCF386957795B5
:105780006795B395D9F73EF490958095709561959E
:105790007F4F8F4F9F4F0895E89409C097FB3EF4C9
:1057A00090958095709561957F4F8F4F9F4F99236E
:1057B000A9F0F92F96E9BB279395F69587957795EC
:1057C0006795B795F111F8CFFAF4BB0F11F460FFAC
:1057D0001BC06F5F7F4F8F4F9F4F16C0882311F004
:1057E00096E911C0772321F09EE8872F762F05C018
:1057F000662371F096E8862F70E060E02AF09A95B3
:10580000660F771F881FDAF7880F9695879597F9A7
:10581000089557FD9058440F551F59F05F3F71F0A0
:105820004795880F97FB991F61F09F3F79F0879507
:105830000895121613061406551FF2CF4695F1DF90
:1058400008C0161617061806991FF1CF8695710520
:10585000610508940895E894BB2766277727CB0154
:1058600097F908950E94452C0C94B62C0E94A82C00
:1058700038F00E94AF2C20F0952311F00C949F2C4F
:105880000C94A52C11240C942C2C0E94092C70F340
:10589000959FC1F3950F50E0551F629FF001729FD5
:1058A000BB27F00DB11D639FAA27F00DB11DAA1FE4
:1058B000649F6627B00DA11D661F829F2227B00D31
:1058C000A11D621F739FB00DA11D621F839FA00DBC
:1058D000611D221F749F3327A00D611D231F849F0C
:1058E000600D211D822F762F6A2F11249F57504063
:1058F0009AF0F1F088234AF0EE0FFF1FBB1F661FDE
:10590000771F881F91505040A9F79E3F510580F0A6
:105910000C949F2C0C942C2C5F3FE4F3983ED4F312
:10592000869577956795B795F795E7959F5FC1F74A
:10593000FE2B880F911D9695879597F9089597F9F5
:105940009F6780E870E060E008959FEF80EC089525
:1059500000240A941616170618060906089500244E
:105960000A9412161306140605060895092E0394C8
:10597000000C11F4882352F0BB0F40F4BF2B11F43C
:1059800060FF04C06F5F7F4F8F4F9F4F0895AA1B2A
:10599000BB1B51E107C0AA1FBB1FA617B70710F01A
:1059A000A61BB70B881F991F5A95A9F7809590954C
:1059B000BC01CD01089597FB072E16F4009407D083
:1059C00077FD09D00E94C72C07FC05D03EF49095C6
:1059D00081959F4F0895709561957F4F0895EE0FC3
:1059E000FF1F0590F491E02D0994F999FECF92BD27
:1059F00081BDF89A992780B50895A6E1B0E044E00A
:105A000050E00C942F2DA8E1B0E042E050E00C945F
:105A10002F2D262FF999FECF92BD81BDF89A0197BF
:105A200000B4021639F01FBA20BD0FB6F894FA9AE6
:105A3000F99A0FBE08950396272F0E940A2D0E94FF
:105A4000092D252F0E940A2D242F0C940A2D019632
:105A5000272F0E940A2D0C94092DDC01CB01FC019B
:105A6000F999FECF06C0F2BDE1BDF89A319600B4B7
:105A70000D9241505040B8F70895F894FFCFA521FA
:105A8000AB21AF21BD21C121C521C921CF21D72102
:105A9000DB21DF21E321EF21F321F721FB2101228B
:105AA0001F220922B321B921E721EB21D3210522AD
:105AB000152228222C22582A802A692B802A692B19
:0A5AC000B32AD42A692B2B2B372BB5
:105ACA00E02EE02EE02E9B012808641E140A321EE6
