:100000000C94F4080C943B090C943B090C943B09A8
:100010000C943B090C943B090C943B090C943B0950
:100020000C943B090C943B090C94CB2A0C949B2B0D
:100030000C9400260C943B090C943B090C943B094E
:100040000C943B090C943B090C943B090C943B0920
:100050000C943B090C946B260C943B090C943B09C3
:100060000C943B090C943B090C943B090C943B0900
:100070000C943B090C943B090C943B090C943B09F0
:100080000C943B090C943B090C943B090C943B09E0
:100090000C943B090C943B090C943B090C943B09D0
:1000A0000C943B090C943B090C943B0901048E967B
:1000B0006E773EFE7E5F1DB8F2664EFF5D19B0C2E0
:1000C0000469542AD62EBFDD19B0C3E529B1E02357
:1000D000A5A9B1C10082674C1A978D795120C70636
:1000E0008E7C7C7A764FFD5930E2460E9EBEDF1D37
:1000F0009991A0A5A1A9D022C6EF5C1B958990A2D9
:10010000A7CCFB5528B3E44AF76C3BF46A562EDEC5
:100110001F9DB8D3058892A6CE1EBEDF1D99B0E202
:1001200046EF5C07115D980B9D9497EE4E45336B3F
:1001300044C729562730C6A7D5F256DFB43862CB5C
:10014000A0B6E30F84062405656F7689B57741274D
:1001500082666582CCD5E620D52717C5F803237CB7
:100160005F64A51DC1D636CB4CD4DB66D78BB19965
:100170007E6F4C364006D6EBD7A2E4F495515A5424
:1001800096D55344D78CE0B94068D218E9DD9A235C
:100190009248EE7F43AFEA7738848C0A72AF69F8F1
:1001A000DDF12483A3F84ABFF59413DBBBD8B4B3C5
:1001B000A0FB4550603059123171A2D313E7FAE722
:1001C000CE0F63150B6B94BB378326059DFB4692C0
:1001D000FC0A15D10D7392D68C1B8CB8558ACEBDF6
:1001E000FE8EFCED0912839182513123FBB40C7613
:1001F000AD7CD9B44BB26714099C7F0C18BA3BD6BE
:100200008E142AE41B529F2B7DE1FB6A3302FAAC69
:100210005AF23E887EAED1F378E805D1E3DC21F6D0
:10022000E19ABD170ED9469B8803EAF666BE0E1BFF
:100230005049964097F1F1E480A66EE87734BF29E3
:100240004044C2FF4E98D39CA3322B76510409E759
:10025000A9D1A632B12353E247ABD6F5695C3E5F24
:10026000FAAE4520E5D244FF39326DFD27575CFDDB
:10027000F0DEC1B599E5F51C770175C56D5892F2B0
:10028000B247000126967A30FFB7F0EF77C18A5D5A
:10029000DCC0D129301E77387A94F1B87A7EEFA489
:1002A000D1AC314AF25D643DB2E2F00899FC70EEE7
:1002B00024A77EEE1E20697D44BF8742DF883B0C69
:1002C000DA42C904F94550FC838F116A72BC9995D2
:1002D000F0AC3DA73BCD1CE2887937115F39899599
:1002E0000A16847AF68AA428E4ED83803BB123A51C
:1002F0000310F466EABB0C0FC5EC6C69C5D324ABE4
:10030000D42AB799887608A0A8957CD8386DCD599D
:1003100002514BF1B52B50E3B6BDD072CF9EFD6EAE
:10032000BB44C8248A77188A1306EF977DFA81F0B8
:1003300031E6FA77ED3106315B548A9F3068DBE2B3
:1003400040F84E73FAAB748B105813DCD2E678D1B8
:10035000322E8A9F2C58064827C5A95E81478946B8
:1003600021910370A43E889CDA330ACEBC8B8ECFD9
:100370009FD3718043CF6BA95183763082C56A8544
:100380003911501A82DC1E1CD57DA9719933471989
:1003900097B35AB1DFEDA4F2E62684A2289A9EDF35
:1003A000A66AF4D6FC2E5B9D1A2A2768FBC183211E
:1003B0004B90E036DD5B314255A013F7D089537185
:1003C00099570929C5F321F8372F40F3D4AF160800
:1003D0003602FC77C58B049056B9C9679A99E80034
:1003E000D386FF972D08E9B7B391BCDF45C6ED0F63
:1003F0008C4C1EE65B6E3830E4AAE395DEB9E49AD5
:10040000F5B2559A879BF66AB2F2779A31F47A314F
:10041000D11D04C07C32A29E9AF562F8278DBF518F
:10042000FFD3DF64373F2A6F763A7D77069E777F6A
:100430005EEB3251F916669A09F3B008A47096463D
:1004400030FFDA4FE91BED8DF8741F3192B373174B
:1004500036DB9130D688556B3477877AE7EE06C65F
:100460001C8C190C4846235E9C075CBFB47ED64F9B
:10047000749CE2C5508BC58B159060625729D013D0
:1004800043A18088910044C74D1986CC2F2A755A04
:10049000FCEB972A70E378D891B04F9907A395EABF
:1004A0002421D5DE512093270A3073A8FF8A97E9CB
:1004B000A76A8E0DE8F0DFECEAB46C1D392A622DD4
:1004C0003D5A8B65F890052E7E912C78EF8E7AC17F
:1004D0002FAC78EEAF2845064C26AF3BA2DBA393AA
:1004E00006B53CA5D8EE8FAF25CC3F856848A962FC
:1004F000CC978F7F2AEAE0150AAD6207BD45F84127
:10050000D836CB4CDB6EE63AE7DA15E9291E121035
:10051000A0142C0E3DF4BF394192750B257BA3CE60
:10052000399C1564C8FA3DEF7327FE262ECEDA6E8D
:10053000FD718EDDFE76EEDC125C02C53A4E4E4F4A
:10054000BFCA4015C76E8D41F110E04F7E977F1CEA
:10055000AE478E6BB12531B073C71B9779F980D345
:1005600066223007741EE4D08021D6EE6B6C4FBF3C
:10057000F5B7D909872FA914BE27D9725001D41312
:1005800073A6A751027525E1B345347DA88EEBF320
:100590001649CB4F8CA1B9368539755D0800AEEB95
:1005A000F6EAD7133A215A5F3084522695C914F2DD
:1005B00057556BB110C2E1BD3B51C0B7554C7112DC
:1005C00026C70DF951A43802057FB8F1724BBF71EF
:1005D0008914F37738D97124F30011A1D8D469278D
:1005E000083735C9119D901C0EE71CFF2D1EE8929F
:1005F000E11810957CE080F4964321F97521643868
:10060000DD9F1E9516DA561D4F9A53B2E2E418CBC1
:100610006B1A65EB56C63BE5FED8263F3A84597205
:1006200066A2F375FFFB60B322AD3F2D6BF9EBEAD9
:10063000057CD88F6D2C989E2B93F15E46F08749F0
:10064000297368D77FF9F0E57DDB1D7519F3C45870
:100650009B1788A892E0BEBD8B1D8D9F5676ADAFCF
:1006600029E2D9D552F6B55635573AC8E15643195D
:1006700094D3049B6D35D80B5F4D198EECFA6491C1
:100680000A72202BBC1A4AFE8BFDBBED1B23EAAD80
:100690007282A1299971BDF095C103DD7BC2B23C84
:1006A0002854D368A472C86696E0D1D87FF8D126C2
:1006B0002BF7ADBA55CA15B932C3E588978E5CFBE6
:1006C00092258BBFA245557AA76F8B575BCF0ECB78
:1006D0001DFB208277A88CCC16CE1DFADECC0B62D7
:1006E000FECCE1B7F0C381647340A0C24D8911759F
:1006F0003355338DE84AFDEA6E300BD7312CDE4797
:10070000E3BFF85542E27F59E517EF99346991B19B
:10071000238E20872DA8FED58AF3843AF037E4098A
:100720000054EE674993E48170E3904DEFFE41B7CA
:10073000997BC183BA62126F7DDE6BAFDA16F95511
:1007400051EEA60C2B02A3FD8DFB3017E46FDF36B4
:1007500071C4CA872548B047ECEAB4BFA54D9B9F3A
:100760000293C4E3E4E8422D6881150AEB845BD66A
:10077000A874FB7D1DCB2CDA462A7662CEBC5C9E2B
:100780008BE7CFBE78F57CEBB33A9CAA6FCC72D1E5
:1007900059F21123D63F48D1B7CEB0BFCBEA80DEA5
:1007A00057D45E972F75D1508E802C6679BF724BCF
:1007B000BD8A816CD3E101DCD21526C536DA2C1A4C
:1007C000C02794EDB79B850B5E8097C5EC4FEC88F6
:1007D0005D50073547DC0B3B3DDD60AFA85D8138E0
:1007E00024255D5C15D1DEB3ABEC0569EF83ED57D5
:1007F00054B8646411163269DA9F2D7F36BB445AAF
:1008000034E87FBF03EB007F59682279CF736C2CEB
:1008100029A7A15F38A11DF02053E01A6314587175
:1008200010AA080C3E161A6022827FBAA443A0D0F8
:10083000AC1BD56B64B51493319E5350D05766EE04
:100840005A4FFB032A695876F183F74EBA8C420659
:10085000605D6DCE6088AEA4C3F103A54B98A1FF87
:1008600067E1ACA2B862D76FA031B4D277AF2110E4
:1008700006C69AFF1D09170E5FF1AA54344B458A2C
:100880008763A6DCF9243067C6B2D6613369EE50BF
:10089000615728E77EEEEC3A5A734EA88DE418EAC9
:1008A000EC4164C8E2E866B62DB6FB6A6C16B3DDAF
:1008B0004643B973006A71ED4E9D251AC33C4A95B3
:1008C000159935811402D6989BECD8233B8429AF27
:1008D0000C9983A69A344FFAE8D03C4BD0FBB6680B
:1008E000B89E8FCDF7602D7A22E57DAB651B95A76D
:1008F000A87FB677477B5F8B1272D0D491EFDE1959
:10090000503CA78BC4A9B323CB76E681F0C1048FFA
:10091000A3B8545B97AC19FF3F55272FE01D429BAE
:1009200057FC4B4E0FCE98A9435703BDE7C894DF41
:100930006E367332B4EF2E857A6EFC6C1882753584
:100940009007F3E49F3EDC68F3B5F31980920699B3
:10095000A2E86FFF2E7FAE42A45FFBD40E812BC3B3
:1009600004FF2BB3744E365B9C1500C6472BE88BF7
:100970003DF19C039A587F9B9CBF854979352E5643
:100980007B411439478326AA078998111B86E77390
:100990007AD87D786153E979F5368D449284F913DC
:1009A00050583BA46A3665498E3C0EF16FD284C420
:1009B0007E8E3F39AE7C84F163378E3CCC3E4481E1
:1009C00045F14BB9ED6B365DBB20601A0FA3AA55FC
:1009D000773AA9AE374DBAB8866BBC0850F6CCA4AE
:1009E000BD1D4072A586FAE210AE3D584B97F34309
:1009F00074A99EEB21B701A4869397EE2F4F3B86F7
:100A0000A1416F412690785C7F30384B3FAAECEDD6
:100A10005C6F0EAD4387FD9335E601EF412690995B
:100A20009EFB195BADD2918AE046AF65FA4F84C157
:100A3000A12DCF458BD38550557CF96788D44EE9DD
:100A4000D76B6154A1A4A6A2C2BF309C409F5FD7C0
:100A5000692B24825ED9D6A712541AF7559F765077
:100A6000A99584E66B6DB59654D6CDB3A19B46A7E8
:100A7000944DC494B498E3E1E234D533160754CDD1
:100A8000B77753DB4F4D469DE9D49C8A36B6B838CC
:100A9000266C0EFF9C1B438B80CCB93DDAC7F18AD4
:100AA000F26DB8D7742F7E1EB7D34AB4ACFC794828
:100AB0006CBC96B69446572DB0A3FC1EB952608507
:100AC0002D41D043011E1CD57DFCF3960DC7CB2ACA
:100AD000299A93DD882D375DAAFB4968A09C508632
:100AE0007F685657F9791839D4E001843361CAA573
:100AF000D2D6E4C98A4A23444EBCF0DC24A1A0C467
:100B0000E2073C10C4B5254B6563F480E7CF61B1C3
:100B1000718221872CF59100320CECA9B59A74856D
:100B2000E3368F764F9C6DCEBCAD0A4BED7604CB91
:100B3000C3B9339E019396697DC5A245799B045C38
:100B40008409ED8843C7AB931426A140B5CE4EBFB0
:100B50002A42853E2C3B54E8121F0E9759B2278932
:100B6000FAF2DF8E6859DC06BCB6850D0622ECB1C0
:100B7000CBE504E63DB3B04173083F3C588663EBD8
:100B800050EE1D2C3774A9D318A3476E9354AD0AA9
:100B90005DB82A555D78F6EEBE8E3C7669B940C2E6
:100BA00034EC2AB9ED7E20E48D0038C7E68F44A8E6
:100BB00086CEEB2AE990F14CDF32FB731B6D921E5F
:100BC00095FEB4DB65DF4D23548948BF4A2E70D6AD
:100BD000D762B43329B13A334C236DA676A521638D
:100BE00048E6905DED90950B7A84BEB80D5E630C7F
:100BF00062264C145AB3AC23A474A76F333005603B
:100C00000142A028B7EE1938F164808243E1412700
:100C10001F1F90547AD5232ED13DCB28BA587FDCA4
:100C20007C9124E92851836EC5562142EDA05622BD
:100C3000A140806BA8F794CA136B0C39D9FDE9F376
:100C40006FA69EFC708AB3BC593C1E1D6CF97CAF2C
:100C5000F9887195EB5700BD9F8C4FE12483C52225
:100C6000EAFDD30CE217187C6A4CDE77B4539B4C38
:100C700081CD2360AA0E25739C02793230DF74DFA8
:100C80007519F4A5145CF77AA8A591847C60030615
:100C90003BCD50B6279CFEB1DDCCD3B05924B2CAAF
:100CA000E21C81229D078F8EB9BE4EFAFC3965BACF
:100CB000BF9D12375E977EF389F55DF5E3098C627F
:100CC000B5209D0C538A681BD28F75175DD4E5DA69
:100CD000756219146A262DEBF8AF37F06CA455B184
:100CE000BCE233C09ACAB011494F689B3B6B3CCC05
:100CF00013F6C785616842AEBBDDCD4516291DEAF6
:100D0000DBC803943CEE4F8211C3EC28BD970599D4
:100D1000DED7BB5E221FD4EB64D992D985B76A05B2
:100D20006AE42441F1CDF0D83FF89E0ECD0B7A70E5
:100D30006B5A750A6A3388EC17750870102F24CF28
:100D4000C4E942006194CA1F3A7606FAD24881F09B
:100D500077600345D961F4A46F3DD930C3046B5467
:100D60002AB7EC3BF44BF5685226CEFF5D1991A0F3
:100D7000A3A5A9B1E023C40A774DF95120A3A5A9E1
:100D8000B1C10082868E7F5D1991A0A3C4EB540B84
:100D9000756852078C9A978D79706246EF5C1B9547
:100DA000897141E121A1A1A1C002674C1AB6CFFD12
:100DB000785324ABB5C9F16023A5C812876D5813C9
:100DC000858892876D5832C70C9A97ACDA36EE5EFA
:100DD0003EDF1DB8F2662FBDF87247ED58138588C7
:100DE00092878C7B550990A2C6EF3DF85324ABD473
:100DF0002AB7EC5A36EE5E3EDF3CFA764FFD5930AC
:100E0000E246EF3DF853056931C10082868E7F5D71
:100E100019B0E227CCFB744B148B948B756833C5E7
:100E20000892878C9AB6CF1CBAD70D98B2E62FDC01
:100E30001B9589716023C40A968F9CBAF66E3FFC9D
:100E40005B15A8D226AFBDF872662FDC1BB4CB149D
:100E50008B94AAB7CDF951018082866F3DD930E2DB
:100E600027CCFB744B14AAB7CDF97043046B35C97A
:100E7000F16023A5C8F3450892876D5832E62FBD6F
:100E8000F872664E1EBEFE7E7E7E5F1D9991A0A307
:100E9000C40A774D1893A4ABD40B754910A2C6EFC2
:100EA0003DF85324ABB5E833E44A16AEDE1FBCDB95
:100EB00015A8B3C5087345E931C1E121A1A1A1C0BD
:100EC00002866F5C3AD70D9893A4CA16AEDE1F9DBA
:100ED00099B0E246EF3DF872470C9AB6CFFD591132
:100EE000A0A3A5C8F3450892876D39F043048A96FC
:100EF000AEDE3EDF1D9991A0C2066F3DF872470C31
:100F00009A978D989385887345E931E023A5A9D0F8
:100F100003848A96AEDE1FBCDB15A8D226CEFF5D09
:100F20001991818082672DD813A4ABD40B94AAB7F2
:100F3000CDF95120A3A5C8F345E95022C6EF5C3A8C
:100F4000D70D9893858873644AF74DF95120A3C44F
:100F50000A96AEDE3EFE7E7E7E5F3CFA764FFD78E0
:100F600072662FBDD930C3E54812878C7B5528D2D5
:100F7000078C9A97ACDA178D795120A3C4EB540BE8
:100F8000948B94AAD62EBFFC5B15A8D226AFDC1B8F
:100F9000B4EA37EC3BF46A37CD1893856931C1E187
:100FA00040E325C812878C9AB6CFFD5911A0C2061E
:100FB0008E7F5D38F2470C7B746A37EC5A36EE3F11
:100FC000FC7A764F1C9B95897141006344EB542A4F
:100FD000D60F9CBAD70D9893856931C10082868E51
:100FE0009EBEDF3CFA572CDA36EE3FFC5B1589716A
:100FF000410082868E7F5D38F247ED5813A4CAF710
:101000004DF95101806344EB542AD62EBFDD19916E
:10101000A0A3A5A9B1E042068E7F5D1991A0A3C44B
:101020000A968F7D7872470C7B746A562EDE1FBC41
:10103000FA570D7951016121A1C0E325A9B1C1E1A0
:101040004002674C1A978D9893A4ABD42AD60F9C74
:101050009BB4CB14AAB7CDF95120A3C4EB35C9F189
:101060006042068E7F7C7A766E3FFC7A766E5E3EBC
:10107000FE7E5F3CDB15897141E121C0E344EB5406
:101080002AB7CDF9706227ADD832C70C7B744B14E8
:10109000AAB7EC3BD528D2076D39D120C2E74C1A4C
:1010A000978D98B2C70C5928F39BF100F300F2001A
:1010B000F400F50019010601635D0C034D006F009B
:1010C0007500730065000000120350006C006F0093
:1010D0006F007000790043006F00000004030904F2
:1010E00009023B00020100A03209040000010301D3
:1010F00001000921110100012240000705810308B8
:101100000001090401000103000000092111010090
:1011100001227B000705820320000112010002006A
:1011200000000843506F4D01000102000105010954
:1011300002A10185020901A100050919012908156B
:101140000025019508750181020501093009311555
:1011500081257F95027508810609381581257F95BF
:101160000175088106050C0A38021581257F950155
:1011700075088106C0C005010980A1018503190118
:101180002AB700150126B700950175108100C0052A
:101190000C0901A101850419012AA002150126A04C
:1011A00002950175108100C005010906A10105071E
:1011B00019E029E7150025019508750181029501BF
:1011C000750881010507190029FF150026FF009504
:1011D0000675088100050819012905950575019115
:1011E00002950175039101C011241FBECFEFDAE013
:1011F000DEBFCDBF04B603FE27C080915703909198
:101200005803A0915903B0915A038730904BA740DF
:10121000B04BD1F410925703109258031092590317
:1012200010925A0314BE84B7877F84BF0FB6F89418
:10123000A8958091600088618093600010926000A2
:101240000FBEE0E0F8E3099511E0A0E0B1E0E2E4D0
:10125000FEE502C005900D92A838B107D9F723E04A
:10126000A8E8B1E001C01D92A735B207E1F70E94DE
:10127000F41E0C94ED2E0C94000030E020E043E0CE
:1012800060E080E30E942D2492E09A95F1F700C07F
:10129000089582E08A95F1F700C00C94D924CF9389
:1012A000DF93C82FD62F803511F010928A010E944B
:1012B0003D098C2F80680E94A9248D2F0E94A924AB
:1012C000D82FC92F85E38A95F1F7000087EC90E0CD
:1012D0000197F1F700C000000E94D9248D2F9C2FA8
:1012E000DF91CF910895CF93C82F0E943D098C2F95
:1012F0008F770E94A9240E94C124C82F82E08A957A
:10130000F1F700C082E38A95F1F700C00E94D9246A
:101310008C2FCF910895CF93DF93D82FC92F0E94A0
:101320003D098D2F9C2F64E670E00E94772E61505E
:1013300071096837710510F067E770E08FE00E946F
:101340004F09DF91CF910C94D924CF93DF936DE1B6
:1013500083E10E944F098FE19EE40197F1F700C0FD
:10136000000068E183E10E944F090E943D0982EE7E
:101370000E94A92498E29A95F1F7CCEAD0E080E1A6
:10138000CA3AD807C1F4EFE8F1E03197F1F700C0AD
:1013900000008AE20E94730960E080E10E944F0928
:1013A0000E94D9248FE19EE40197F1F700C000006C
:1013B000DF91CF910895FE0184910E94A924F8E263
:1013C000FA95F1F72196DBCFCF93DF9380E00E946F
:1013D0007309D82F8FE30E947309C82F8AE20E94F5
:1013E0007309982FD23429F4CD3B19F481E094305D
:1013F00009F080E08170DF91CF910895209A0E94DA
:10140000252410928A010E94D9240E943D090E943D
:10141000D92466EB8BE30E944F092FEF82E597E01A
:10142000215080409040E1F700C000000E943D093B
:101430002AE62A95F1F700C00E9449098AE68A95B2
:10144000F1F700C06AE58AE30E944F099FE728E3AD
:1014500081E0915020408040E1F700C0000082E030
:101460000E94730983E00E94730984E00E9473095B
:1014700085E00E94730986E00E9473090E94A50915
:101480000E9449098FE19EE40197F1F700C0000036
:1014900080E496E00E948B098FEC97E00197F1F7CA
:1014A00000C0000060E080E10E944F0960E081E13F
:1014B0000E944F090E94E409289808959F92AF92D4
:1014C000BF92CF92DF92EF92FF920F931F93CF9331
:1014D000DF93EC0180918A01811107C060E080E513
:1014E0000E944F0981E080938A010E943D0980E5B6
:1014F0000E94A9248DE58A95F1F700000E94C1247D
:10150000F82E80E00E94A9240E94C1246C010E9450
:10151000C124B82E0E94C1248C010E94C124E82E4F
:101520000E94D9249F2C991C9924991CAA24A39425
:10153000F3FCA12CDB28D194C194D1081E2911956C
:10154000019511090E94D9248F2D877011F01092F6
:101550008A01F8829982AA82DC82CB82BD821F83B3
:101560000E83E886CE01DF91CF911F910F91FF90FE
:10157000EF90DF90CF90BF90AF909F900895109222
:10158000EF02109267021092AB028FEF93E09093FC
:10159000AD028093AC021092F2021092F10210920E
:1015A000AE021092360310923D0310923C0310924B
:1015B0003A0310923903109268021092AA02909393
:1015C000380380933703109228021092270210925A
:1015D000F302109269021092F7021092F602109232
:1015E000B0021092AF021092F00210923B031092E0
:1015F000F5021092F40210926B0210926A020895A2
:10160000FC01DB01808191818E31910524F40196EA
:101610009183808308951182108281E08C930895D4
:101620002F923F924F925F926F927F928F929F92F2
:10163000AF92BF92CF92DF92EF92FF920F931F93E0
:10164000CF93DF9300D000D0CDB7DEB7FC013B01D4
:101650002A01190109831A8387017601AB82BC82B2
:1016600054018B8C9C8CDB018D919C911197E81718
:10167000F90714F4ED93FC93D2018D919C9111978D
:101680008E179F0714F4ED93FC93D201CD90DC905C
:10169000D3012D913C91C601821B930B8A30910599
:1016A000B4F163E070E00E948B2E620F731FE617A7
:1016B000F7070CF080C0E981FA818081882309F462
:1016C00076C0D501ED91FC91EE0FFF1FEE0DFF1DD1
:1016D000D182C082B401C5010E94000BF3012081B8
:1016E0003181D2018D919C91821B930B97FD0196C4
:1016F00095958795820F931FF30191838083D20183
:101700008D939C93F1011082A981BA811C92D4011E
:101710008C91882309F46AC0F7019701225C3F4F3E
:1017200090E080E041915191840F951F2E173F0763
:10173000C9F76FE170E00E948B2E9B01E98DFA8D55
:101740008081882309F46CC0F801A801425C5F4FD6
:1017500090E080E061917191860F971F4E175F07AF
:10176000C9F76FE170E00E948B2EFB01C9018E1B4F
:101770009F0B63E070E00E948B2ECB018E0F9F1FAA
:101780000F900F900F900F90DF91CF911F910F91BD
:10179000FF90EF90DF90CF90BF90AF909F908F9091
:1017A0007F906F905F904F903F902F90089581E0D1
:1017B000F1018083ACCF6E177F070CF0A8CFD10169
:1017C0008C91882379F0AB81BC81ED91FC911197CC
:1017D000EE0FFF1FE00FF11F31832083698D7A8D9B
:1017E000CD017ACF81E0E981FA81E3CFF501608113
:1017F00071816115710581F0F70130E020E090E022
:1018000080E0261737070CF096CF41915191840F55
:10181000951F2F5F3F4FF5CFD2012D913C918ECF79
:10182000AB81BC816D917C916115710581F0F801EE
:1018300050E040E090E080E0461757070CF093CF6F
:10184000A191B1918A0F9B1F4F5F5F4FF5CFD301DD
:10185000ED91FC918BCF8F929F92AF92BF92CF92DE
:10186000DF92EF92FF920F931F932AEA32E03F93A9
:101870002F9328E632E03F932F9329E3822E23E033
:10188000922E3CE3A32E33E0B32E41EBC42E42E074
:10189000D42E58EFE52E52E0F52E06E313E02EEAA3
:1018A00032E041EF52E06CEA72E00E94100B90933C
:1018B000F5028093F4020F900F900F900F901F91FC
:1018C0000F91FF90EF90DF90CF90BF90AF909F90DF
:1018D0008F9008958F929F92AF92BF92CF92DF9296
:1018E000EF92FF920F931F932BE333E03F932F93DD
:1018F00020EF32E03F932F932FEA822E22E0922EA8
:1019000036EFA32E32E0B32E4CE6C42E42E0D42EA6
:1019100059E2E52E52E0F52E09E612E023EF32E01F
:1019200047E252E067E373E00E94100B90936B0272
:1019300080936A020F900F900F900F901F910F915C
:10194000FF90EF90DF90CF90BF90AF909F908F90DF
:1019500008950F931F93CF93DF938C01EB01809138
:101960006802882321F08091AA02811103C0C80176
:101970000E942B0C8091F002882321F080913B0380
:10198000811103C0CE010E946A0C4091F402509173
:10199000F50280916A0290916B022091EF02211171
:1019A00028C004171507B4F4C817D9071CF490E031
:1019B00080E00BC083E08093EF028091AB0288232C
:1019C000B1F31092AB0281E090E0DF91CF911F91D3
:1019D0000F910895C817D90754F781E08093EF025B
:1019E00080916702882319F3109267028FEF9FEFAF
:1019F000ECCF2130A1F40417150754F0C817D9070C
:101A0000B4F21092EF022093AB0210926702CFCF94
:101A1000C817D90764F682E08093EF02F4CF223032
:101A200009F5041715077CF0C817D9070CF0BFCFCC
:101A300081E08093EF0280916702882309F4B7CF99
:101A400010926702C0CFC817D9070CF4B0CF83E05B
:101A50008093EF028091AB02882309F4A8CF109203
:101A6000AB02C4CF0417150764F0C817D9070CF4EC
:101A70009ECF1092EF0281E0809367021092AB023A
:101A800096CFC817D9070CF092CF82E08093EF026F
:101A9000F2CFFC016583448308950F931F93CF9386
:101AA000DF93EC0180918C0190918D010E945C2666
:101AB0008436910580F180918E0190918F010E9472
:101AC0005C26059740F180919201811124C00E940B
:101AD000302690938F0180938E0180E00E94032432
:101AE0008C0184E00E940324BC01C8010E94A90C5F
:101AF000AC01892B81F08C81480F511D87FD5A95CF
:101B00006D81062E000C770BCE01DF91CF911F91D6
:101B10000F910C94490DDF91CF911F910F91089572
:101B2000FC01628343830895CF92DF92EF92FF928C
:101B30000F931F93CF93DF93CDB7DEB729970FB6DF
:101B4000F894DEBF0FBECDBF8C01CE0101960E947E
:101B50005E0A8B818823E1F18A818823C9F1EC80B8
:101B6000FD80CF80D8848091900190919101892B44
:101B700031F40E9430269093910180939001A60148
:101B80004038510514F04FE750E041388FEF5807C7
:101B900014F441E85FEFB7016038710514F06FE7A6
:101BA00070E061388FEF780714F461E87FEFC801C7
:101BB00029960FB6F894DEBF0FBECDBFDF91CF914F
:101BC0001F910F91FF90EF90DF90CF900C94900DAC
:101BD00029960FB6F894DEBF0FBECDBFDF91CF912F
:101BE0001F910F91FF90EF90DF90CF900895EF92AB
:101BF000FF921F93CF93DF9300D000D00F92CDB709
:101C0000DEB77C0169837A83A981BA818C918130A6
:101C100079F411968C9181110BC00E94302690931B
:101C20008D0180938C01E981FA81828180939201F8
:101C300069817A81C7010E94660F182F882391F16C
:101C4000F3E6EF16FDE5FF06C9F5A981BA81129604
:101C5000BC91BD83BB2331F180913E0390E001969E
:101C600063E070E00E94772E80933E0320913E0354
:101C700030913F03409140035091410329833A83BF
:101C80004B835C83CA01B9010E94BF1AE0913E03F5
:101C9000F0E0EE0FFF1FE050FF4F808191810E9426
:101CA0008B091D81812F0F900F900F900F900F9037
:101CB000DF91CF911F91FF90EF90089534E6E316E6
:101CC0003DE5F30679F7A981BA8112968C918823B4
:101CD00031F080918B0191E0892780938B01E09115
:101CE0003E03F0E0EE0FFF1FE050FF4F8081918137
:101CF00020918B01222321F19C0150E040E02983B7
:101D00003A834B835C83CA01B9010E947C2D20E099
:101D100030E040E45FE369837A838B839C8369814D
:101D20007A818B819C810E94E22D69837A838B83E7
:101D30009C8369817A818B819C810E944D2DCB018E
:101D40000E948B09AFCF0F931F93CF93DF9300D0E7
:101D500000D000D0CDB7DEB78098889884988C9852
:101D600086E0EDE1F1E0DE01119601900D928A9599
:101D7000E1F7FE013196AE01495F5F4F61E070E02F
:101D80008191A82FA295AF70B0E091962C91919778
:101D90008F708B0102C0000F111F8A95E2F7C801F6
:101DA000922F982B91969C93919792969C919297B3
:101DB0008095892392968C934E175F0709F7269694
:101DC0000FB6F894DEBF0FBECDBFDF91CF911F914C
:101DD0000F910C94501B0E94FE090C94BF0ACF93E4
:101DE000DF9300D000D000D0CDB7DEB70E9405222F
:101DF00029833A834B835C836D837E83CE01019676
:101E00000E944D0DCE0101960E94940D80918B0190
:101E1000882349F08B819C819827892798279E8366
:101E20008D831B821C8249815A816B817C818D81CB
:101E30009E810E9426220E94CB2126960FB6F894FE
:101E4000DEBF0FBECDBFDF91CF910895CF93DF935B
:101E500000D000D0CDB7DEB781E080933E03809103
:101E60003E0390913F03A0914003B09141038983C9
:101E70009A83AB83BC83BC01CD010E94BF1A0F9033
:101E80000F900F900F90DF91CF910C94CB1A0E947E
:101E9000BB1A60933E0370933F038093400390937B
:101EA0004103643010F00E94260F0C94221EE09132
:101EB0003E03F0E0EE0FFF1FE050FF4F8081918165
:101EC0000E948B090C94521B81E0089581E00895D3
:101ED00008950C94680F1F93CF93DF9300D000D028
:101EE0000F92CDB7DEB749835A836B83309193014C
:101EF00089819A8131111DC06623B9F02223A9F08E
:101F00000E946D16182F682F89819A810E941716DA
:101F100069817A81812F0F900F900F900F900F9011
:101F2000DF91CF911F910C94DE1C0E944416182F54
:101F3000EFCF0E946D1669817A81EDCFFC01262FCB
:101F4000408151816281738184810C946B0F81E0A7
:101F50000895CF93DF93D82FC92F60E00E949E0F82
:101F60006D2F7C2FDF91CF910C94690F0E94EA1D99
:101F70000E9427100C94470F0C94241E08950E9471
:101F8000F0130E94BE0F2FE78AE196E021508040B7
:101F90009040E1F700C000000C948F260F931F9330
:101FA000CF93DF938C0161E00E949E0FEC01B8019A
:101FB0000E94F70D8823A9F1B801CE010E94B12239
:101FC000882379F1B801CE010E940623882349F1C4
:101FD000B801CE010E94D923882319F1F80182812A
:101FE000882361F0CB35FDE5DF0721F170F4C115E1
:101FF000ECE5DE07A1F0CF3DDC45C9F0C801DF917B
:10200000CF911F910F910C94640FCC358DE5D807BB
:10201000A1F0CD35DD4591F70E94C619EFCF0E94A2
:10202000BF0F80E0DF91CF911F910F9108950E9423
:102030002F1BF7CF0E94CF19E1CF0E94D219DECF1C
:1020400008950C94201081E008950C9423100895B5
:10205000CF93C82F0E9421108C2FCF910C94251064
:10206000CF93DF93CDB7DEB72B970FB6F894DEBFD3
:102070000FBECDBF4F83588769877A878B876111E1
:102080000E94F7191E8285E0FE013796DE01119647
:1020900001900D928A95E1F78C819D81892B89F4BD
:1020A00049815A816B817C818D819E810E94EF18CC
:1020B0002B960FB6F894DEBF0FBECDBFDF91CF9148
:1020C000089589819A8189238F3F51F3CE0101962A
:1020D0000E94A70F8111E4CFEBCFFC018081918199
:1020E0000C94AF160F931F93CF93DF9300D000D0C3
:1020F00000D0CDB7DEB7082F162F0E940522298306
:102100004B835C836D837E83002399F0312B49815F
:10211000532F6B817C818D819E8126960FB6F8941A
:10212000DEBF0FBECDBFDF91CF911F910F910C94F9
:10213000262210953123EBCFCF93C82F882309F4A3
:1021400046C08CEF8C0F813AA0F46C2F8091060171
:10215000909107010E946C25882329F08C2F0E9402
:1021600096190E941A1A8C2F0E948F19CF910C94E5
:102170001A1A80E28C0F883048F4C77081E001C0E1
:10218000880FCA95EAF70E94D819F0CF8BE58C0F1B
:10219000833038F42C2F2452330BC901CF910C9487
:1021A0002E25E8E5EC0FE73150F4F0E0EE0FFF1FCD
:1021B000EC5DFE4F80819181CF910C944425CD3E02
:1021C00030F08C2F0E94821FCF910C945520CF911C
:1021D0000895882361F19CEF980F913A20F40E94B2
:1021E00096190C941A1A90E2980F983050F4877050
:1021F00091E001C0990F8A95EAF7892F0E94DE19B4
:10220000F0CF9BE5980F933020F490E080E00C94A1
:102210002E2598E5980F973120F490E080E00C94FB
:1022200044258D3E20F00E94DC1F0C94552008951B
:102230001F93CF93DF93182FEB010E949C102097E0
:1022400031F4812FDF91CF911F910C94E9108FEC25
:1022500097E00197F1F700C000002197F0CF70E000
:1022600060E0893311F460E570E00C941811882364
:1022700021F00E94D8190C941A1A0895882321F08D
:102280000E94DE190C941A1A0895AF92BF92CF9251
:10229000DF92EF92FF920F931F93CF93DF9300D0C3
:1022A00000D00F92CDB7DEB76C016D837983FC014E
:1022B0001281058102950F700E94AD19E82E8823C6
:1022C000A1F0E12E112389F08981807F803429F0EB
:1022D0008D81805EE12C883040F082E00E946B1A94
:1022E0000E94AD1991E0E82EE926898182958F70D0
:1022F000A82EB12C8C30A8F5F501E151F14D0C94CC
:102300009F2E09810F70F981F07F11F00295007FF7
:102310001123B1F0002361F08D81805E883018F0C8
:102320001D81111109C0802F0E94D8190E941A1A0C
:102330008D810E949C1015C0802F0E94E919F6CF54
:102340008D810E94E910002361F08D81805E8830CC
:1023500018F01D81111133C0802F0E94DE190E94D8
:102360001A1A98E0A91AB108E4E0AE16B10420F4F4
:102370000E9408250E942810EE2009F4CCC10E947A
:10238000A91980FDC8C1F60112820E94A3190E94FA
:102390000715C6010E94B2130E94A3190F900F9057
:1023A0000F900F900F90DF91CF911F910F91FF90A1
:1023B000EF90DF90CF90BF90AF900C943815802FA6
:1023C0000E94EF19CCCF29812F70F22E3981307FF6
:1023D000303219F0F29480EFF8228D81882369F071
:1023E000813049F1112391F1002351F1F6018581EA
:1023F00080FF9ECF8F70858323C0112381F0011150
:1024000006C00E94FD198F290E943711AACF013002
:10241000C1F70E94FD198F290E94031AA2CF011152
:1024200006C00E94101A8F2D0E943E119ACF0130D3
:1024300009F497CFF6CF112329F0063008F091CF99
:102440008F2DE2CF053008F08CCFEDCF002359F36C
:102450000D81093349F41FEF23EF31E01150204083
:102460003040E1F700C000008D810E94E91079CF73
:10247000898186958695837069F0813009F071CFE6
:102480008D8199819370111102C090E080E00E94CB
:10249000442567CF8D8199819370111102C090E01E
:1024A00080E00E942E255DCF8D81112391F00E9446
:1024B000821FED81E15FFF0BE830F10568F461E018
:1024C00070E001C0660FEA95EAF7812F0E94721052
:1024D00048CF0E94DC1FEDCF0E94552042CF89815A
:1024E000837009F050C011113CCF2D8122952695A3
:1024F0002770220F220F8D818F7090E0B0E0A0E056
:10250000022E04C0880F991FAA1FBB1F0A94D2F77E
:102510000D8140E050E0BA0104FF0FC04FE050E0F1
:1025200060E070E004C0440F551F661F771F2A95B6
:10253000D2F740955095609570951981169516952E
:1025400013701D838A019B01082B192B2A2B3B2B0F
:1025500009831A832B833C831D8169817A818B8156
:102560009C81123051F0133059F0113019F00E9453
:102570007D14F7CE0E945514F4CE0E94A514F1CE1E
:102580000E945314EECE8695112311F0898181703B
:10259000882309F4E6CE2D81229526952770220FF7
:1025A000220F8D818F7090E0B0E0A0E0022E04C079
:1025B000880F991FAA1FBB1F0A94D2F70D8140E014
:1025C00050E0BA0104FF0FC04FE050E060E070E05F
:1025D00004C0440F551F661F771F2A95D2F74095F8
:1025E00050956095709519811695169513701D83F9
:1025F0008A019B01082B192B2A2B3B2B09831A8359
:102600002B833C831D8169817A818B819C8112306F
:1026100051F0133059F0113019F00E94C615A1CEB7
:102620000E949E159ECE0E94EE159BCE0E94D11454
:1026300098CE09810F700983112329F0802F0E9401
:1026400007158D81E1CE8D810E943E1189810E9406
:10265000381587CE2D81223FA1F160F4203FE1F0B3
:10266000213F41F1112309F445C0011161CE898157
:102670008F7124C03D81333F49F1343F99F71123D5
:1026800079F109810F710983802F0E94071563E09A
:1026900089810E94501A65CE112341F0053008F05F
:1026A00060CE89818F710E946D155BCE063008F077
:1026B00058CEF7CF89818F71112349F20E940715F7
:1026C00050CE89818F711123C9F3C1CF112329F015
:1026D00089818F710E94E21444CE0E94DD1441CEA4
:1026E00081E00E946B1A023008F43BCE82E00E9427
:1026F0006B1A37CE002361F01D81193309F0B4CE77
:102700002FEF33EF81E0215030408040E1F7AACE37
:1027100089818F719CCF0F900F900F900F900F9029
:10272000DF91CF911F910F91FF90EF90DF90CF90AD
:10273000BF90AF9008950F931F93CF93DF93EC0159
:10274000688179818A810E94BB168C010E941616CD
:102750000E945214B801CE01DF91CF911F910F91C9
:102760000C944511CF93DF93EC018B819C81892BD5
:1027700029F08881998189238F3F59F4DF91CF9186
:102780000895CE010E949B13CE01DF91CF910C944E
:10279000A90FCE010E94CE0F8111F3CF0E94AD1977
:1027A000882361F38A81882349F382E0DF91CF9106
:1027B0000C946B1A90E080E00E942E2590E080E05F
:1027C0000E9444250E94F7190E94FA190E941A1AC1
:1027D0000E947F210C9455200E949D190C94DA13BD
:1027E0000E94E6190C94EC13282F892F82958F7084
:1027F000903C80F48A30B0F4843020F4823090F43D
:1028000080E008958630E1F781E0283E88F0213F9E
:10281000B9F70EC08C3011F08F3091F793FB8827F9
:1028200080F9089581E0203F39F018F4283E40F700
:102830000895243F29F7FCCF0895FC018081918100
:102840000E94AF160C94F413CF93DF9300D000D006
:102850000F92CDB7DEB70F900F900F900F900F90A3
:10286000DF91CF910895CF93DF9300D000D000D0B7
:10287000CDB7DEB726960FB6F894DEBF0FBECDBF3C
:10288000DF91CF91089508950C9443140E9444144D
:1028900060939D0170939E0180939F019093A0018E
:1028A0000C94DA1308950C944614CF93DF9300D060
:1028B00000D0CDB7DEB769837A838B839C83809108
:1028C0009D0190919E01A0919F01B091A00129814D
:1028D0003A814B815C81282B392B4A2B5B2B298336
:1028E0003A834B835C83CA01B9010F900F900F901C
:1028F0000F90DF91CF910C944614CF93DF9300D0CB
:1029000000D0CDB7DEB769837A838B839C838091B7
:102910009D0190919E01A0919F01B091A0012981FC
:102920003A814B815C81282339234A235B23298305
:102930003A834B835C83CA01B9010F900F900F90CB
:102940000F90DF91CF910C944614CF93DF9300D07A
:1029500000D0CDB7DEB769837A838B839C83809167
:102960009D0190919E01A0919F01B091A0012981AC
:102970003A814B815C81282739274A275B272983A5
:102980003A834B835C83CA01B9010F900F900F907B
:102990000F90DF91CF910C9446140C9443140C9437
:1029A000CD140E94CF146093990170939A01809383
:1029B0009B0190939C010C94DA1360E070E0CB01D2
:1029C0000C94D1140F931F93CF93DF9300D000D0BA
:1029D000CDB7DEB741E050E060E070E08A019B01D6
:1029E00004C0000F111F221F331F8A95D2F70983DD
:1029F0001A832B833C83C901B8010F900F900F906D
:102A00000F90DF91CF911F910F910C94D1140F93E0
:102A10001F93CF93DF9300D000D0CDB7DEB741E056
:102A200050E060E070E004C0440F551F661F771F40
:102A30008A95D2F78091990190919A01A0919B017A
:102A4000B0919C018A019B01082B192B2A2B3B2B4F
:102A500009831A832B833C83C901B8010F900F901F
:102A60000F900F90DF91CF911F910F910C94D11483
:102A70000F931F93CF93DF9300D000D0CDB7DEB775
:102A800041E050E060E070E004C0440F551F661F55
:102A9000771F8A95D2F740955095609570958091F3
:102AA000990190919A01A0919B01B0919C018A019A
:102AB0009B01082319232A233B2309831A832B8391
:102AC0003C83C901B8010F900F900F900F90DF91D8
:102AD000CF911F910F910C94D1140F931F93CF930B
:102AE000DF9300D000D0CDB7DEB741E050E060E02A
:102AF00070E004C0440F551F661F771F8A95D2F7F8
:102B00008091990190919A01A0919B01B0919C01B3
:102B10008A019B01082719272A273B2709831A8343
:102B20002B833C83C901B8010F900F900F900F9039
:102B3000DF91CF911F910F910C94D114CF93DF931C
:102B400000D000D0CDB7DEB769837A838B839C83B6
:102B50008091990190919A01A0919B01B0919C0163
:102B600029813A814B815C81282B392B4A2B5B2BA5
:102B700029833A834B835C83CA01B9010F900F907C
:102B80000F900F90DF91CF910C94D114CF93DF93DE
:102B900000D000D0CDB7DEB769837A838B839C8366
:102BA0008091990190919A01A0919B01B0919C0113
:102BB00029813A814B815C81282339234A235B2375
:102BC00029833A834B835C83CA01B9010F900F902C
:102BD0000F900F90DF91CF910C94D114CF93DF938E
:102BE00000D000D0CDB7DEB769837A838B839C8316
:102BF0008091990190919A01A0919B01B0919C01C3
:102C000029813A814B815C81282739274A275B2714
:102C100029833A834B835C83CA01B9010F900F90DB
:102C20000F900F90DF91CF910C94D1140895990FCC
:102C3000990F990FE92FE80F877041E001C0440F09
:102C40008A95EAF7E695E695E69585E0E89FF00136
:102C50001124EC56FE4F30E020E070E05191DF018E
:102C60001197CB01022E02C0969587950A94E2F740
:102C7000817081958527842385278C932F5F3F4F13
:102C80002530310559F70895E92FEE0FEE0FEE0FBD
:102C9000E80F982F9770E695E695E69585E0E89F12
:102CA000F0011124EC56FE4F50E040E080E021910D
:102CB00030E0092E02C0369527950A94E2F721707C
:102CC0003327042E01C0220F0A94EAF7822B4F5FAC
:102CD0005F4F4530510559F70895BF92CF92DF926B
:102CE000EF92FF920F931F93CF93DF938C01C090CD
:102CF0009901D0909A01E0909B01F0909C01809105
:102D00009D0190919E01A0919F01B091A001C82AC0
:102D1000D92AEA2AFB2ACFE1D0E0BC2ED701C6018E
:102D20000C2E04C0B695A795979587950A94D2F76F
:102D300080FD0EC0219788F7B12C8B2DDF91CF91AC
:102D40001F910F91FF90EF90DF90CF90BF9008956B
:102D5000B8018C2F0E94F11C019761F3EECFCF9345
:102D6000DF93D82FC92F0E946D166D2F7C2FDF9116
:102D7000CF910C94F11C1F93CF93DF93162FD72F75
:102D800090919301992339F0862F972FDF91CF915E
:102D90001F910C94AF16882391F0862F972F0E94D5
:102DA0006D16C82F682F812F9D2F0E941716612F37
:102DB0007D2F8C2FDF91CF911F910C94F11C862FCA
:102DC000972F0E944416C82FF2CF1F93CF93DF9303
:102DD000E091A10116E08091A2018E1304C0DF9161
:102DE000CF911F910895CE2FD0E01E9FF0011124A6
:102DF000ED55FE4F408151816281738184819581BF
:102E00000E943314FE013196E770E5CF4091D30163
:102E10005091D4016091D5017091D6018091D70174
:102E20009091D8010C9433141F93CF93DF9380912A
:102E3000D801807FA9F48091D501882389F0809101
:102E4000A101C091A2016091D3017091D401A09120
:102E5000D601B091D701D62FD72316E0C81304C0EE
:102E6000DF91CF911F91089590E0109711F0DF3F0F
:102E700019F401968770F2CF189F9001199F300DB9
:102E80001124F901ED55FE4F41814713F2CF4081E6
:102E90004613EFCF42814111ECCF438154814A1B4D
:102EA0005B0B483C510528F78091D8018F708061F9
:102EB0008093D801F901E855FE4F80818F708061C1
:102EC000808383ED91E00E94B213DF91CF911F9137
:102ED0000C94E516AF92BF92CF92DF92EF92FF92E1
:102EE0000F931F93CF93DF93CDB7DEB72B970FB61A
:102EF000F894DEBF0FBECDBF8C0185E0F801DE0186
:102F0000179601900D928A95E1F7F801E28083ED22
:102F1000C82E81E0D82E6091D6017091D70161153D
:102F2000710509F440C19091D3012091D401822F01
:102F300089238F3F09F437C140815181A380B48038
:102F4000F090D501F501E61BF70BFF2009F4DDC079
:102F50008091D801382F307FE83CF10508F0AFC0F0
:102F6000311179C0FE2C521323C0941321C0E110FB
:102F70001FC08F7080618093D8010E940617C60120
:102F80000E94B2138091D801F80185838F2D2B9672
:102F90000FB6F894DEBF0FBECDBFDF91CF911F916A
:102FA0000F91FF90EF90DF90CF90BF90AF9008957A
:102FB000AB2829F0852F84238F3F09F00DC180E0D5
:102FC000F82FF170DF2EE091A1012091A20136E0EF
:102FD00080FD1CC0EE20D1F28091D80181608093E9
:102FE000D801F12CD3CF8E2F90E03E9FF001112419
:102FF000ED55FE4F6181561306C06081641303C016
:103000006281E612E7CFFC013196E770E213EBCF65
:103010004F8358878F8198850E94AF16292F22955C
:103020002F70903260F0225F2F70223078F49F7002
:1030300051F0F8019581907F31F4D12C0AC09F7036
:1030400011F08823D1F3805E8830B8F3C8010E9464
:10305000B213FD2C9BCF521306C0941304C0F80189
:10306000EE2009F46DC0C8010E941D14882319F1D7
:10307000EE2009F18091D801803270F02091D301C7
:103080003091D4013A8329831B82BD82AC828E8326
:10309000CE0101960E94B21386E0F801A3EDB1E0E3
:1030A00001900D928A95E1F70E9414170E9406176D
:1030B000FF24F3946BCFC8010E94B213F9CF3111F2
:1030C00013C07A2DBB86AA866E2D8B850E94241490
:1030D00083ED91E00E94B21386E0F60111928A9589
:1030E000E9F70E9406177DCF5213BDCF9413BBCFD3
:1030F000E110B9CFF8018583C8010E94B21386E0C0
:10310000F60111928A95E9F741CFE83CF10508F004
:103110003DC0FE2CEE2079F252132AC0941328C031
:103120008091D80180FD1BC0982F907FC1F0F801DD
:103130008583903F31F0982F907F905F8F70892B1F
:103140008583C8010E94B21386E0F801A3EDB1E0C7
:1031500001900D928A95E1F70E94061717CF86E03D
:10316000F801A3EDB1E001900D928A95E1F70ECF41
:10317000C8010E941D1481118FCF8091D8018160F8
:103180008093D801C8010E94B21300CF7A2DBB866C
:10319000AA866E2D8B850E94241486E0F60111927A
:1031A0008A95E9F7D9CFEE2009F485CFC8010E94AE
:1031B0001D14F82E882309F47ECF86E0F801A3EDD4
:1031C000B1E001900D928A95E1F783ED91E00E94C4
:1031D0006D100E941417C0CF81E08E25F1CE1F9391
:1031E000CF93DF93CDB7DEB72C970FB6F894DEBF41
:1031F0000FBECDBF4F83588769877A878B879C879F
:10320000CE0107960E946A17882369F08A859B85FC
:10321000892B39F04F815885842F85238F3F09F002
:1032200077C016E065C086E0FE013796DE01119694
:1032300001900D928A95E1F76A857B85611571058C
:1032400081F35F814885842F85238F3F51F320913F
:10325000A20130E0C901019687709927E091A10190
:10326000E817190671F40E94F0131092A20110924F
:10327000A10186E0E3EDF1E0DF011D928A95E9F717
:10328000D0CF59834A837D836C8396E0929FD0018F
:10329000939FB00D1124AD55BE4FFE0131960190A4
:1032A0000D929A95E1F78093A2010E94E516B9CF9D
:1032B000819FC00111248D559E4F0E946A1788235B
:1032C000E9F0E091A1011E9FF0011124ED55FE4FA0
:1032D0004081518162817381848195810E94331480
:1032E0008091A10190E00196877099278093A101B8
:1032F0008091A1019091A2018913DACF2C960FB68B
:10330000F894DEBF0FBECDBFDF91CF911F9108951E
:1033100069857A858B859C850E94331482CF682FBE
:1033200080910601909107010C94A625682F809149
:103330000601909107010C94A825809106019091B7
:1033400007010C94AA258091D901859585958595CD
:1033500008958091D901877008959091D90197704F
:1033600081E009F480E008959091430392FB2227C5
:1033700020F9281751F080FB92F990934303809134
:103380004203909143030C94AE1A08958091430335
:1033900082FB882780F991E089270C94B41981E099
:1033A0000C94B41980E00C94B4198091E50108954F
:1033B0009091E501982B9093E5010895982F9095B1
:1033C0008091E50189238093E50108951092E5013C
:1033D00008959091E401982B9093E4010895982F1B
:1033E00090958091E40189238093E40108951092DF
:1033F000E40108951092E30108958091DA0108959F
:1034000008950C94001A9091430392FD08C0909186
:10341000DA01981721F08093DA010C94011A0895CB
:103420008091DA01882329F01092DA0180E00C946F
:10343000011A0895E0910601F09107018091E501DC
:103440008083E0910601F091070180819091E40171
:10345000892B8083E0910601F09107018081909192
:10346000E301892B80839091DA01992381F0E09127
:103470000601F09107018081892B808380910601EC
:10348000909107010E945A2581110E94101A809183
:103490000601909107010C94142508950C944D1A7F
:1034A0009091430392FD10C098E0899F90011124F0
:1034B000622B6093D9010E9407158091D9018595EF
:1034C000859585950C944E1A0C9407151092D90188
:1034D00080E00C944E1A9091D901809589238093B5
:1034E000D901282F277039F4282F082E000C330B10
:1034F0009217130621F49091430392FF07C085951C
:10350000859585950E9438150C94661A08956FEF7D
:103510007FEF90E080E00C94D72E90E080E00E9456
:10352000B32E9C0181E0293E3E4F09F080E00895D2
:1035300082E090E00C94A52E83E090E00C94A52E00
:10354000CF9384E090E00E94A52EC82F82E290E005
:103550000E94A52E982F8C2FCF910895CF93682F7E
:10356000C92F84E090E00E94B92E6C2F82E290E097
:10357000CF910C94B92E8FE090E00C94AD2EAB015E
:10358000BC018FE090E00C94CB2EAB01BC0183E139
:1035900090E00C94CB2E60E070E0CB010C94C51A47
:1035A00069EE7EEF90E080E00E94D72E60E082E03E
:1035B00090E00E94B92E60E083E090E00E94B92E76
:1035C00010929D0110929E0110929F011092A001F5
:1035D00060E084E090E00E94B92E60E082E290E03A
:1035E0000E94B92E60E085E090E00E94B92E60E074
:1035F00086E090E00E94B92E6FEF87E090E00E9495
:10360000B92E40E050E0BA0188E090E00E94CB2E55
:1036100060E08DE090E00E94B92E40E050E0BA01F9
:1036200088E190E00E94CB2E60E087E190E00E946C
:10363000B92E40E050E0BA018CE190E00E94CB2E20
:1036400070E060E080E290E00E94D72E40E050E021
:10365000BA0188E190E00E94CB2E0C94260F0C94C6
:10366000D01A682F8EE090E00C94B92E0E943C2670
:103670006093EC017093ED018093EE019093EF0164
:103680006093E8017093E9018093EA019093EB0164
:10369000089585B7806885BF85B7806885BF089520
:1036A0000895089508950E94491B80ED9DE10E94B0
:1036B000B3260E94511B0C94A30E81E008950C9434
:1036C0005D1B089508950E94611B0C94621B0E946B
:1036D00027260E948C1E0E94EB0E0C94570FEF922F
:1036E000FF920F931F93CF93DF9300D000D00F92E0
:1036F000CDB7DEB70E94971E81110E94361B80E075
:103700000E94261E182F8091E701E82EE1268117DE
:1037100009F446C08091F00181FD0E942C1EF12C1D
:1037200001E08E2D8023B9F10E945F1B882399F060
:10373000F9821A82102381E009F480E08B830E94D1
:1037400030268160782F9D838C8349815A816B81DB
:103750008D810E9430108091E70108270093E701D6
:103760000E946F200E94EF0E0E9408259091E601B2
:10377000891739F10E9408258093E6010F900F9078
:103780000F900F900F90DF91CF911F910F91FF90AD
:10379000EF900C942810F394000F88E0F812C1CF3A
:1037A0008FEF89838A831B820E9430268160782F65
:1037B0009D838C8349815A816B818D810E94301059
:1037C000CFCF0F900F900F900F900F90DF91CF9170
:1037D0001F910F91FF90EF900895CF93DF930E9478
:1037E000F51CEC01811522E5920708F062C08115F5
:1037F00031E5930708F0B5C0883E910518F5803E85
:103800009105B8F5883A910570F4853A910508F06C
:10381000A2C08130910569F10497813A910548F180
:10382000D0E0C0E026C0885A91094797C8F7C85A27
:10383000D0E0CC0FDD1FCE5ADE4F0990D881C02DCD
:10384000D46417C0811540E59407B8F4C11580E42D
:10385000D80708F083C0CF3FD10509F028F4CD3E4A
:10386000D105F0F2D06505C0CE019A9581159F4132
:10387000B8F6CE01DF91CF910895F4E09695879543
:10388000FA95E1F783702C2F26952695237040E258
:10389000249F90011124382B8C2F8370C1E0D0E03D
:1038A00002C0CC0FDD1F8A95E2F7C22BD32BDC6858
:1038B000E0CFC11586E5D80730F5C11595E5D907E4
:1038C00008F063C0C11524E5D207C0F49C2F96957B
:1038D00096959E0123703327C115D34508F046C045
:1038E000C1E0D0E002C0CC0FDD1F2A95E2F720E254
:1038F000929FC0011124C82BD92BD9CFDC2FCC2704
:10390000C46FD06AB6CFC1153AE5D30788F4C115A4
:1039100049E5D40708F044C0CE0198558F3F910582
:1039200011F008F07DCFDC2FCC27C06FD06AA1CF7B
:10393000CE0190568115904208F072CF8D2F8F7175
:103940000E948D1D90E0982F882788279F719C01E9
:103950002C2BE90123C0A497D0648BCFDF70D06AF1
:1039600088CFD82FCC27C16FD06A83CFC1E0D0E0F9
:1039700002C0CC0FDD1F2A95E2F730E2939FC00111
:103980001124C82BD92BDA6874CF8C2F0E948D1D7F
:10399000C82FD0E0DC2FCC27CC27DF71D06269CFD5
:1039A0008C2F8F700E948D1D34E0D695C7953A9567
:1039B000E1F7CF70DC2FC82FD0695BCF272F280FFE
:1039C0003327331FF90183E0EE0FFF1F8A95E1F7DC
:1039D000E60FF11DEE0FFF1FE655FF4E8591949106
:1039E00008950E94DE1C0C94ED1B803E910599F118
:1039F000C8F48133910509F476C048F48932910501
:103A000009F46AC08A32910509F474C008958933B3
:103A10009105D1F082389105B9F08533910509F40B
:103A200054C00895843E910599F138F4823E910581
:103A3000F9F0833E910509F10895863E910599F1CB
:103A4000873E9105B9F10895209142032370A1F0BA
:103A500080EE90E008952091420320FD52C0309105
:103A6000430330FF09C024FF4FC090E080E004C052
:103A70002091420322FDF7CF08952091420322FDB9
:103A800046C03091430330FDE3CF24FFF5CFEDCFA7
:103A90002091430321FFF0CF8091420384FDE5CFC5
:103AA00087EE90E008952091420323FFE5CF24FDA7
:103AB000DCCFF6CF2091420323FD2CC0309143038D
:103AC00031FFE3CF84EE90E008952091420325FF7B
:103AD000D3CF89E290E008952091420325FFCCCF17
:103AE00085E390E008952091420326FFC5CF8AE246
:103AF00090E008952091420326FFBECF81E390E03D
:103B0000089589E390E0089583EE90E0089582EEB1
:103B100090E0089586EE90E008959091420392FF20
:103B200006C0282F28712830F9F4877F846093FF1E
:103B300006C0282F28712831F1F4877E84612091F6
:103B4000430320FF06C0382F38713830D9F4877FFF
:103B5000816021FF06C0282F28712831D1F4877E8B
:103B6000816194FD877E0895282F24712430F9F611
:103B70008B7F8860DCCF282F2471243101F78B7E66
:103B80008861DDCF382F3171313019F78E7F886031
:103B9000E0CF282F2171213121F78E7E8861E1CF7E
:103BA00080E008950C94871A0E94971E8FE19EE48E
:103BB0000197F1F700C000000E94971E80E00E946C
:103BC000261E83FF04C00E94D21D0C948F260895E8
:103BD0000C94D41DCF93DF9300D000D0CDB7DEB7C7
:103BE0000E948D1A811102C00E942F1B0E94981AF8
:103BF0008093F0010E94A01A9093430380934203A4
:103C00000E94E81D0E949C1A282F30E050E040E0FE
:103C1000CA01B9010E9453148091990190919A01AF
:103C2000A0919B01B0919C0189839A83AB83BC8353
:103C3000BC01CD010F900F900F900F90DF91CF91AD
:103C40000C94CF14089508950C94231EE82FF0E0EF
:103C5000EB5BFC4F808108950895CF93A0E8B1E01D
:103C600048E851E061E070E08D918F3F91F0E82FDE
:103C7000E295EF70F0E0C1A18F709B0101C0220FAF
:103C80008A95EAF7922F90959C2391A382A1822B8B
:103C900082A34A175B0741F7CF910895EF92FF92F5
:103CA0001F93CF93DF937C01C62FD0E088E0689FFD
:103CB000F0011124E058FE4F50E040E030E061E0B8
:103CC00070E021912F3FB9F0822F82958F7090E0A4
:103CD000DC0190968C9190E02F7002C095958795AD
:103CE0002A95E2F780FD16C0CB01042E01C0880F93
:103CF0000A94EAF7382B4F5F5F4F4830510509F7B8
:103D0000D701AC0FBD1F3C93DF91CF911F91FF9066
:103D1000EF90089580E0EECF0E942D1E1092440394
:103D20001092450381E00E94BD1E0C94B60F1F93B4
:103D3000CF93DF930F92CDB7DEB7198260E0CE014B
:103D400001960E944E1E90914403898111E09813C0
:103D500001C010E0981380934403212F41E065E4F3
:103D600073E084E493E00E94BE1E0E94BC0F812F8A
:103D70000F90DF91CF911F9108950895FF920F93B7
:103D80001F93CF93DF93F82E092F162FD72FC42F11
:103D9000222349F081E08093F3010E943026909322
:103DA000F2018093F1018091F3018823A1F08091C9
:103DB000F1019091F2010E945C26059760F0EF2DD1
:103DC000F02FA12FBD2FCE0FDF2FD11DEC17FD0738
:103DD00041F41092F301DF91CF911F910F91FF9069
:103DE000089581918D93F2CF0E94B2250E941128EF
:103DF0000E942A280E943C280E94631BFBCF8091CE
:103E0000FA0180FF12C060910D0185E0689FB0014A
:103E10001124759567957595679560387105A8F5B6
:103E200061157105A1F1862F089581FF09C0609188
:103E30000D0185E0689FB001112475956795EDCF60
:103E400060910D0182FD0AC08091F9018823D1F0B3
:103E500090910C0160910D01891728F085E0689F11
:103E6000B0011124DACF869FB001112485E0869F2E
:103E70009001879F300D1124692F70E0C9010E94C5
:103E80008B2ECBCF65E070E0CECF8FE7089581E039
:103E900008958091FA0180FF0CC06091090170E0E3
:103EA00075956795759567956115710549F1862F2B
:103EB000089581FF06C06091090170E075956795CE
:103EC000F3CF6091090182FD0BC09091F801992315
:103ED000A1F06091080180910901961738F0682FD0
:103EE00070E06038710500F38FE70895899FC00185
:103EF000112470E00E948B2EF4CF61E070E0D7CFE8
:103F000081E008958D3E31F40E94FF1E81958093DB
:103F1000FE0108958E3E19F40E94FF1EF8CF8F3ED9
:103F200031F40E94FF1E81958093FD010895803F2A
:103F300019F40E94FF1EF8CF893F29F40E94491FFF
:103F40008093FF0108958A3F21F40E94491F8195C3
:103F5000F7CF8B3F31F40E94491F81958093000277
:103F600008958C3F19F40E94491FF8CF9FE0980FE5
:103F7000983070F4815F990B21E030E001C0220F8E
:103F80008A95EAF78091FC01822B8093FC010895C9
:103F90008D3F31F48091FA0181608093FA01089598
:103FA0008E3F21F48091FA018260F7CF8F3FB9F7FD
:103FB0008091FA018460F1CF4091FD018D3E59F46A
:103FC0008091FE0187FF0DC01092FE0141110BC0D0
:103FD0001092F90108C08E3E81F48091FE011816FE
:103FE0009CF3442381F08091FF0190910002892B82
:103FF00009F05AC01092F80108958F3E49F447FF26
:10400000F0CF1092FD018091FE018111ECCFE0CF45
:10401000803F19F41416ACF3E4CF9091FF01893F6F
:1040200029F41916F4F61092FF01DBCF8A3F19F438
:1040300097FFD7CFF8CF909100028B3F29F497FFDD
:10404000D0CF10920002CDCF8C3F19F41916CCF3CB
:10405000C8CF9FE0980F983090F4815F990B21E0D2
:1040600030E0B90102C0660F771F8A95E2F7CB01F5
:1040700080959091FC0189238093FC01B2CF8D3F04
:1040800031F48091FA018E7F8093FA01AACF8E3F9E
:1040900021F48091FA018D7FF7CF8F3F09F0A1CFF6
:1040A0008091FA018B7FF0CF08950E9430262091F5
:1040B000FD013091FE01232B21F08093F6019093B6
:1040C000F7012091FF0130910002232B21F0809312
:1040D000F4019093F5018BEF91E00C941F25EF9282
:1040E000FF920F931F93CF93DF9300D000D000D0A7
:1040F000CDB7DEB786E0EBEFF1E0DE01119601907F
:104100000D928A95E1F7E090FD01F090FE0100919B
:10411000FF01109100021092FD011092FE01109219
:10412000FF01109200028F2D8E2991F08091F601EF
:104130009091F7010E945C269C018091F9018823EF
:1041400009F443C090910E019217130608F44BC076
:10415000802F812B91F08091F4019091F5010E94C4
:104160005C269C018091F801882309F47BC0909122
:104170000A019217130608F483C08091FD01909103
:10418000FE01892B9091FF01892B90910002892BD0
:1041900011F00E945520EB82FC820D831E8386E085
:1041A000FE013196ABEFB1E001900D928A95E1F7F7
:1041B00026960FB6F894DEBF0FBECDBFDF91CF912C
:1041C0001F910F91FF90EF90089540910F019AE099
:1041D000499FA00111244217530708F0B9CF8F5F00
:1041E0008093F90102C08F3FD1F7EE2059F00E9471
:1041F000FF1E9FEF1E140CF491E0899F802D112467
:104200008093FD01FF2059F00E94FF1E9FEF1F14B5
:104210000CF491E0899F802D11248093FE01309150
:10422000FD01332309F494CF2091FE01222309F4E8
:104230008FCF45EB3403C0011124992359F090939B
:10424000FD0145EB240390011124332339F0309311
:10425000FE017ECF81E08093FD01F3CF81E080936A
:10426000FE0176CF40910B019AE0499FA0011124F5
:104270004217530708F081CF8F5F8093F80102C087
:104280008F3FD1F7002359F00E94491F9FEF10166E
:104290000CF491E0899F802D11248093FF0111235C
:1042A00059F00E94491F9FEF11160CF491E0899F6D
:1042B000802D1124809300023091FF01332309F4F3
:1042C0005CCF20910002222309F457CF45EB340341
:1042D000C0011124992359F09093FF0145EB240369
:1042E00090011124332339F03093000246CF81E04E
:1042F0008093FF01F3CF81E0809300023ECF86E000
:10430000EBEFF1E0DF011D928A95E9F71092F901D8
:104310001092F8011092FA010895EF92FF920F9314
:104320001F93CF93DF93CDB7DEB72C970FB6F894DA
:10433000DEBF0FBECDBF7C838D839E831A872B8704
:104340003C875F1119C0662311F0061315C08C81DC
:10435000882319F09A8598130FC08E81882319F04D
:104360009C85981309C09D81992321F081E02B85BC
:10437000291303C080E001C081E081702C960FB644
:10438000F894DEBF0FBECDBFDF91CF911F910F918B
:10439000FF90EF900895EF92FF920F931F93E0909C
:1043A0000102F09002020091030210910402209198
:1043B0000502309106024091070250910802609177
:1043C000090270910A0280910B0290910C020E94E6
:1043D0008D21882321F087E092E00E941F25109212
:1043E000090210920A0210920B0210920C0286E04F
:1043F000E7E0F2E0A1E0B2E001900D928A95E1F7EA
:104400001F910F91FF90EF900895CF93DF9300D00D
:1044100000D000D0CDB7DEB786E0E7E0F2E0DE0105
:10442000119601900D928A95E1F729813A814B818D
:104430005C816D817E8180E090E026960FB6F894D5
:10444000DEBF0FBECDBFDF91CF910895CF93DF9335
:1044500000D000D000D0CDB7DEB749835A836B833C
:104460007C838D839E8386E0FE013196A7E0B2E0D7
:1044700001900D928A95E1F726960FB6F894DEBF6B
:104480000FBECDBFDF91CF9108950F931F93CF93B0
:10449000DF93C42FD22FFC0182818823C9F040937F
:1044A0000F020E94302690930E0280930D0280E24C
:1044B0008C0F883008F050C0C77081E001C0880FB1
:1044C000CA95EAF7DF91CF911F910F910C943711A4
:1044D00010910F02141335C080910D0290910E02BD
:1044E0000E945C26883C910560F5C0E2CD0F1D1747
:1044F000B9F080E2810F883040F4177081E001C08C
:10450000880F1A95EAF70E943E11C83048F481E0FE
:104510009D2F977001C0880F9A95EAF70E94371176
:10452000802F0E942F11C830B8F4D77081E001C0ED
:10453000880FDA95EAF7DF91CF911F910F910C94D4
:104540003E1180E28C0F883038F4C77081E001C0E2
:10455000880FCA95EAF7EFCFDF91CF911F910F91A6
:1045600008950F939C01CB01243F4CE53407A1F142
:1045700090F4293DFCE53F0749F12A3D4CE534071D
:10458000E9F1283D3C45C1F0FC0182818823E1F13D
:1045900010920F0219C0263FFCE53F0719F1273F93
:1045A0004CE5340729F1253F3C4571F707E225EE3C
:1045B00044EE65EF7CE505C006E221EE41EE68EDD4
:1045C0007CE50E94452280E00F91089507E225EEE8
:1045D00045EE69ED7CE5F5CF06E221EE40EE64EFB5
:1045E0007CE5EFCF06E221EE42EE66EF7CE5E9CF17
:1045F00007E225EE46EE67EF7CE5E3CF08E221E037
:1046000045EE6AED7CE5DDCF81E0DECFCF93DF9331
:10461000EC01FB018281882309F4C9C0C631FCE5A5
:10462000DF07E0F4C2309CE5D907F0F00E94A01A41
:104630009093430380934203C631ECE5DE0720F5F7
:10464000C230FCE5DF0798F4809142039091430368
:104650000E94AE1A0E94F01380E006C09E012B5FFC
:104660003C452930310510F3DF91CF910895FE01CB
:10467000E350FC45809142038160E331F10588F409
:10468000E550F14D0C949F2ECB5FDC45C930D10530
:10469000D8F6C25FD04DFE010C949F2E809142034C
:1046A000826080934203D0CF809142038460F9CF2F
:1046B000809142038860F5CF8091430381608093AD
:1046C0004303C2CF809143038260F9CF80914203BC
:1046D0008061E7CF809142038062E3CF8091420303
:1046E0008064DFCF0E94F013809142038068D9CFAD
:1046F000809142038C60D5CF809143038360DFCFEC
:10470000809142038E7FCDCF809142038D7FC9CFB0
:10471000809142038B7FC5CF80914203877FC1CFB9
:10472000809143038E7FCBCF809143038D7FC7CF92
:10473000809142038F7EB5CF809142038F7DB1CFB0
:10474000809142038F7BADCF0E94F0138091420392
:104750008F77A7CF80914203837FA3CF80914303BC
:104760008C7FADCF8091420382FB992790F921E0A5
:10477000922790FB82F990FB83F993CF80914303BA
:10478000982F909591708E7F892B90FB81F997CF10
:104790000E94F01390914203892F97FB87F980586C
:1047A00080CF81E00E94311B4FCF80E0FBCF81E0C2
:1047B0005BCFCF93DF93EB0186319C4511F50E94CF
:1047C000D5199A81992399F08A7A91E009F490E0B9
:1047D00090931002811109C089E20E948F190E94F2
:1047E0001A1A80E0DF91CF91089585E3F6CF80918A
:1047F0001002811104C089E20E949619F0CF85E36E
:10480000FBCF81E0EFCF95E890937A00982F9072DC
:10481000906890937B008F7190911001892B809309
:104820007C0080917A00806480937A0080917A0085
:1048300086FDFCCF809178002091790090917A00DC
:104840009F7790937A00922F0895289A219A229A1E
:1048500023982B9880E58CBD0895F9019091110162
:104860009F3F09F074C08F3F09F471C061114AC0C5
:104870001092120290911202423009F447C0433064
:1048800009F448C09460413009F441C021E030E0AF
:104890002E173F0708F440C09091120220323105D4
:1048A00009F450C0E0F52830310509F446C0203144
:1048B000310509F445C022303105D9F19CB520916C
:1048C0001202922B9CBD90911102992319F09DB573
:1048D00091609DBD80931101E82FE295EF70F0E0AB
:1048E00031A1282F2F7081E090E001C0880F2A9518
:1048F000EAF7932F982B91A392A18095892382A305
:1049000081E0089590E290931202B4CF9860909362
:104910001202BCCF9C60FBCF220F331FB9CF2034D3
:10492000310599F093602038310541F690931202D9
:10493000C5CF91E090931102C1CF21E020931102E5
:104940009160F4CF21E0209311029260EFCF80E0DC
:104950000895CF93DF938EBD0E943026EC010DB4F5
:1049600007FE05C08EB590E0DF91CF9108950E94BB
:1049700030268C1B9D0B8436910588F38EEF9FEFBC
:10498000F3CFCF93DF931EBC0E943026EC010DB411
:1049900007FE05C08EB590E0DF91CF9108950E948B
:1049A00030268C1B9D0B8436910588F38EEF9FEF8C
:1049B000F3CF809111018F3F29F1E82FE295EF703D
:1049C000F0E041A18F7021E030E0B90102C0660F34
:1049D000771F8A95E2F7CB01942F982B91A392A190
:1049E000892B82A38FEF809311018DB58E7F8DBDB2
:1049F0009CB580911202809589238CBD1092120281
:104A0000109211020895909318028093170208954E
:104A1000E0911702F0911802309721F00190F08197
:104A2000E02D099480E00895E0911702F0911802BA
:104A3000309721F00280F381E02D09940895DC0184
:104A4000E0911702F0911802309739F082E08C93D0
:104A50000480F581E02DCD0109940895209115027F
:104A6000309116022817390771F09093160280933F
:104A70001502E0911702F0911802309721F006809C
:104A8000F781E02D099408952091130230911402CA
:104A90002817390771F09093140280931302E09164
:104AA0001702F0911802309721F00084F185E02D73
:104AB00009940895AC019C012E5F3F4F485F5F4F02
:104AC00080E02417350709F40895F90191919F01B9
:104AD0009923B9F38F5FF5CF9C01662351F0FC0158
:104AE0003296285F3F4F8191861729F0E217F3072E
:104AF000D1F780E0089581E008959C01FC01329691
:104B00008FEF90E04191461751F08F3F19F441111A
:104B100001C0892F9F5F9630A9F78F3F09F4089550
:104B2000280F311D87FD3A95F901628308959C0194
:104B3000FC013296285F3F4F8191861303C0DF014D
:104B400011971C92E217F307B9F708950C947D258D
:104B50000C949725FC01329686E0DF011D928A9520
:104B6000E9F708950895089508950C94B425809167
:104B70004E03843049F10E94B52580E00E94281040
:104B80001092190288E190E020E40FB6F894A895FD
:104B9000809360000FBE2093600083B7817F8460A4
:104BA00083BF83B7816083BF7894889583B78E7FF6
:104BB00083BF0FB6F894A8958091600088618093B8
:104BC0006000109260000FBE089508950E94B32502
:104BD0000E94971E0E94E52580E00E94261E982FC5
:104BE00081E0911101C080E0089508950C94F525AD
:104BF0000E94F0130E9408250E9428100C94F625AC
:104C00001F921FB61F9211248F939F93AF93BF9350
:104C100080911902811113C080914603909147033E
:104C2000A0914803B09149034196A11DB11D809305
:104C3000460390934703A0934803B0934903BF9161
:104C4000AF919F918F911F901FBE1F90189582E08A
:104C500084BD93E095BD9DE797BD80936E00089558
:104C60002FB7F8948091460390914703A091480391
:104C7000B09149032FBF0895CF93DF9300D000D0A8
:104C8000CDB7DEB78FB7F894209146033091470334
:104C9000409148035091490329833A834B835C83B5
:104CA0008FBF69817A818B819C810F900F900F90CB
:104CB0000F90DF91CF9108959C014FB7F8948091A8
:104CC000460390914703A0914803B09149034FBF19
:104CD000821B930B089578941F921FB61F92112484
:104CE0008F939F93AF93BF93809146039091470317
:104CF000A0914803B09149030196A11DB11D809375
:104D0000460390934703A0934803B0934903BF9190
:104D1000AF919F918F911F901FBE1F90189581E0BA
:104D20008093E00080E28093D8001092C9008FE069
:104D300097E20197F1F700C0000087E090EBDC01FB
:104D40008093570390935803A0935903B0935A0349
:104D500088E19CE00FB6F894A895809360000FBEA0
:104D600090936000FFCF909389018093880108950C
:104D700080912502089590914E03943031F58093EF
:104D80001A0260931B0270931C0282E08093E90078
:104D90008FEF9091E800815095FD06C09AE69A95B4
:104DA000F1F700C08111F5CF8091E80085FF0DC0BB
:104DB00050E040E063E070E08AE192E00E94C828A1
:104DC0008091E8008E778093E8000895BC0184E02C
:104DD0000C94BB26BC0183E00C94BB2622E02093FC
:104DE000E9002FEF3091E800215035FD06C03AE68A
:104DF0003A95F1F700C02111F5CF2091E80025FF89
:104E00000BC050E040E066E070E00E94C82880914E
:104E1000E8008E778093E8000895CF93DF93D82F32
:104E2000C92F81E08093E9008FEF9091E8008150D5
:104E300095FD06C09AE69A95F1F700C08111F5CF6D
:104E40008091E80085FF16C050E040E068E070E027
:104E50008D2F9C2F0E94C8288091E8008E77809328
:104E6000E80088E0ED2FFC2FADE1B2E001900D925B
:104E70008A95E1F7DF91CF91089580914D038111DB
:104E800009C00E94502A0E94AD2A8091E2008460ED
:104E90008093E200089510924D03089508950895B7
:104EA000089542E061EC81E00E94CC2942E261EC8D
:104EB00082E00C94CC2980915003893089F148F428
:104EC000823009F49DC0833009F458C0813041F02C
:104ED00008958A3009F484C08B3009F46AC00895BB
:104EE00080914F03813A09F048C08091E800877FA4
:104EF0008093E8008091530390915403892B61F4CF
:104F000068E08DE192E070E00E9417298091E8004E
:104F10008B778093E800089560E090E080E0F3CF25
:104F200080914F03813249F580915303909154034E
:104F3000029718F58091E800877F8093E8008091C0
:104F4000E80082FF16C09091F3008091F200029772
:104F500029F48091F1008B7F813021F48091F10060
:104F6000809325028091E8008B778093E8000C9471
:104F7000002A80914E038111E2CF089580914F0362
:104F8000813AD9F78091530390915403892BA9F763
:104F90008091E800877F8093E8008091E80080FF9F
:104FA000FCCF80911C018093F1008091E8008E7706
:104FB000DCCF80914F03813201F7809153039091B0
:104FC0005403892BD1F68091E800877F8093E80015
:104FD0000E94002A8091510380931C010C94F013CD
:104FE00080914F03813249F68091E800877F80935A
:104FF000E8000E94002A80915203809326020895BF
:1050000080914F03813A09F0B8CF8091E800877F03
:105010008093E8008091E80080FFFCCF8091260219
:10502000C2CF84B7877F84BF0FB6F894A8958091CC
:105030006000886180936000109260000FBE80E87D
:1050400090E00FB6F89480936100909361000FBEDA
:105050000C94531B0E94502A0E94AD2AE2EEF0E00D
:1050600080818460808378940E94322D0E94671B27
:1050700082E191E00C94032580914E03853031F458
:1050800080914E03853021F00E94F8250C946F1B0F
:105090000E94B72580914C03882391F30E94E62556
:1050A000882371F30E94B3280E94F013E9CF0C9477
:1050B0005928FC01CB01DA012F2F3327233031058A
:1050C000D1F070F42130310509F43EC022303105B1
:1050D00069F48BE390E020EE30E12D933C9308954A
:1050E00021323105E9F02232310521F190E080E0F2
:1050F00030E020E0F2CFCF019927E13059F0823043
:10510000910559F0ECEDF0E1892B81F7849190E065
:105110009F01E3CFE8ECF0E1F9CFEAEBF0E1F6CF65
:10512000892BB9F06130710509F789E090E02BE037
:1051300031E1D3CF892B91F061307105B9F68BE75E
:1051400090E02DE231E1C9CF82E190E02BE131E145
:10515000C4CF89E090E022EF30E1BFCF80E490E05F
:1051600028EA31E1BACF19BC82E089BD09B400FE5A
:10517000FDCF8091D8008F7D8093D8008091E00092
:1051800082608093E0008091E00081FDFCCF089573
:10519000AF92BF92CF92DF92FF920F931F93CF9364
:1051A000DF936C01EB018A010E941F2AF82E811106
:1051B00023C00115110539F0F80180819181C81BC8
:1051C000D90BC80ED91EB12CA12C2097A9F0809123
:1051D000E80085FD22C08091E8008E778093E8008A
:1051E00001151105A1F0F80180819181A80EB91E69
:1051F000B182A08285E0F82E8F2DDF91CF911F9193
:105200000F91FF90DF90CF90BF90AF9008950E94D4
:105210001F2A8823D1F2F82EEFCFF60181916F017A
:105220008093F1002197FFEFAF1ABF0ACECFFC01A8
:10523000CB0120915503309156032617370790F084
:10524000009729F42091E8002E772093E80040E0B1
:10525000009751F4411108C08091E80082FF31C0ED
:1052600080E00895C901F3CF20914E032223A9F1D4
:105270002530A9F12091E80023FD2DC02091E80000
:1052800022FDEACF2091E80020FFE2CF3091F30029
:105290002091F200009719F02830310558F041E0D4
:1052A0002830310509F040E02091E8002E77209366
:1052B000E800CECF41914093F10001972F5F3F4F1F
:1052C000E9CF80914E03882341F0853041F08091F1
:1052D000E80083FFC1CF81E0089582E0089583E074
:1052E0000895FC01CB0120915503309156032617F8
:1052F000370790F0009729F42091E8002E7720934B
:10530000E80040E0009751F4411108C08091E800A6
:1053100082FF32C080E00895C901F3CF20914E038F
:105320002223B1F12530B1F12091E80023FD2EC0F8
:105330002091E80022FDEACF2091E80020FFE2CF93
:105340003091F3002091F200009719F028303105D8
:1053500058F041E02830310509F040E02091E800A4
:105360002E772093E800CECF44914093F100319600
:1053700001972F5F3F4FE8CF80914E03882341F084
:10538000853041F08091E80083FFC0CF81E008952F
:1053900082E0089583E00895982F973028F08F7069
:1053A0008093E90081E008959093E900242F762FFF
:1053B00050E0981731F07091EC002091ED00509181
:1053C000F00021FD02C09F5FE8CF3091EB003E7FEF
:1053D0003093EB003091ED003D7F3093ED00309144
:1053E000EB0031603093EB007093EC002093ED0004
:1053F0005093F0002091EE0027FDE5CF80E0089566
:1054000080914F0387FF13C08091E80082FF06C0A0
:105410008091E8008B778093E80004C080914E0370
:105420008111F2CF089580914E038823D9F38091A2
:10543000E80080FFF8CF8091E8008E77ECCF2091D4
:10544000E4003091E50095E6A9012091EC00822F5F
:10545000817020FF06C08091E80080FF06C080E0D8
:1054600008952091E80022FD1AC080914E03882300
:1054700089F0853089F08091EB0085FD0FC0209187
:10548000E4003091E50042175307F9F29150E1F63C
:1054900084E0089582E0089583E0089581E008950E
:1054A0000E94BE2A0E94C62AE0EEF0E08081816060
:1054B0008083E8EDF0E080818F77808319BCA7EDD1
:1054C000B0E08C918E7F8C9380818F7E8083109250
:1054D0004D0308950F931F93CF93DF930E94BE2A2D
:1054E0000E94C62AC8EDD0E088818F7788838881A2
:1054F0008068888388818F7D888319BC10924E03D1
:1055000010924A0310924C0310924B0300EE10E0ED
:10551000F80180818B7F808388818160888342E06D
:1055200060E080E00E94CC29E1EEF0E080818E7F97
:105530008083E2EEF0E080818160808380818860FA
:105540008083F80180818E7F808388818061888359
:10555000DF91CF911F910F910895E8EDF0E08081E8
:105560008F7E8083E7EDF0E080818160808384E03E
:1055700082BF81E080934D030C946A2AE8EDF0E04D
:1055800080818E7F80831092E20008951092DA006D
:105590001092E10008951F920F920FB60F921124FE
:1055A0002F933F934F935F936F937F938F939F932B
:1055B000AF93BF93EF93FF938091E10082FF0BC005
:1055C0008091E20082FF07C08091E1008B7F809391
:1055D000E1000E94312D8091DA0080FF18C0809197
:1055E000D80080FF14C08091DA008E7F8093DA00AB
:1055F0008091D90019BC80FF91C082E089BD09B4B7
:1056000000FEFDCF81E080934E030E943D278091F4
:10561000E10080FF19C08091E20080FF15C08091F9
:10562000E2008E7F8093E2008091E20080618093AF
:10563000E2008091D80080628093D80019BC85E098
:1056400080934E030E944F278091E10084FF28C081
:105650008091E20084FF24C019BC82E089BD09B4B6
:1056600000FEFDCF8091D8008F7D8093D80080917F
:10567000E1008F7E8093E1008091E2008F7E809335
:10568000E2008091E20081608093E20080914A0311
:10569000882309F448C084E080934E030E94502779
:1056A0008091E10083FF29C08091E20083FF25C043
:1056B0008091E100877F8093E10082E080934E0338
:1056C00010924A038091E1008E7F8093E1008091E7
:1056D000E2008E7F8093E2008091E20080618093FF
:1056E000E20042E060E080E00E94CC298091F0007E
:1056F00088608093F0000E944E27FF91EF91BF9148
:10570000AF919F918F917F916F915F914F913F9159
:105710002F910F900FBE0F901F90189510924E036F
:105720000E944B2774CF8091E30087FD02C081E087
:10573000B3CF83E0B1CF1F920F920FB60F92112417
:105740002F933F934F935F936F937F938F939F9389
:10575000AF93BF93CF93DF93EF93FF93D091E90083
:10576000DF708091EC00C82FC17080FDC0E81092FE
:10577000E9008091F000877F8093F00078940E9488
:10578000DF2B1092E9008091F00088608093F00098
:10579000CD2BCF70C093E900FF91EF91DF91CF91B6
:1057A000BF91AF919F918F917F916F915F914F9139
:1057B0003F912F910F900FBE0F901F9018951F9340
:1057C000CF93DF93CDB7DEB7AA970FB6F894DEBFBD
:1057D0000FBECDBF8FE493E0FC0101962091F10054
:1057E000208323E087359207B9F70E945B278091D9
:1057F000E80083FF1EC180914F03909150039A30BF
:1058000008F017C1E92FF0E0E95EF04D0C949F2EEF
:10581000803899F0823809F00CC1809153038F7061
:10582000873008F006C18093E9008091EB0085FB8A
:10583000882780F91092E90006C080914B0390916F
:105840004C03911182609091E800977F9093E8005B
:105850008093F1001092F1008091E8008E77E5C00E
:10586000882309F4D3C0823009F0E3C0809151034A
:105870008111D6C0809153038F702FEF280F2630EF
:1058800008F0D7C08093E9002091EB0020FFC8C04A
:10589000933031F48091EB0080628093EB00C0C0C4
:1058A0009091EB0090619093EB0021E030E001C01B
:1058B000220F8A95EAF72093EA001092EA0080917D
:1058C000EB008860EACF8111B4C0109151031F77BB
:1058D0008091E3008078812B8093E3008091E80041
:1058E000877F8093E8000E94002A8091E80080FF73
:1058F000FCCF8091E30080688093E30082E0111187
:1059000083E080934E0395C08058823008F091C0A8
:1059100080915103909152038C3D23E09207A1F5B1
:1059200083E08A838AE289834FB7F894DE01139675
:1059300020E03EE051E2E32FF0E050935700E49185
:1059400020FF03C0E295EF703F5FEF708E2F90E075
:10595000EA30C0F0C7968D939D932F5F243159F79D
:105960004FBF8091E800877F8093E8006AE270E093
:10597000CE0101960E9417298091E8008B778093D1
:10598000E80057C0C096E7CF60915303709154036D
:10599000AE014F5F5F4F0E945728BC01892B09F46D
:1059A00048C08091E800877F8093E80089819A81D0
:1059B0000E947129E1CF8038E1F58091E800877F6E
:1059C0008093E80080914A038093F10045CF8111D4
:1059D00030C090915103923060F58091E800877F4C
:1059E0008093E80090934A030E94002A80914A0322
:1059F000882311F084E005C08091E30087FDFACF91
:105A000081E080934E030E94512713C0809151037F
:105A1000813079F481E0933009F080E080934C0389
:105A20001092E9008091E800877F8093E8000E944F
:105A3000002A8091E80083FF0AC08091E800877FF8
:105A40008093E8008091EB0080628093EB00AA963F
:105A50000FB6F894DEBF0FBECDBFDF91CF911F917F
:105A600008950895CF9380914E038823A1F0C091AB
:105A7000E900CF709091EC00892F817090FD80E853
:105A8000C82B1092E9008091E80083FD0E94DF2B73
:105A9000CF70C093E900CF9108950E94C12D88F086
:105AA0009F5798F0B92F9927B751B0F0E1F0660FE2
:105AB000771F881F991F1AF0BA95C9F714C0B13023
:105AC00091F00E94DB2DB1E008950C94DB2D672F3F
:105AD000782F8827B85F39F0B93FCCF38695779552
